:020000041008E2
:4000000000780408EB0208100D00000051030810510308105103081051030810000000000000000000000000000000004D0308104D030810000000004D0308104D030810DA
:400040004D0308104D0308104D0308104D0308104D0308104D0308104D0308104D0308104D0308104D0308104D0308104D0308104D0308104D0308104D0308104D03081000
:400080004D0308104D0308104D0308104D0308104D0308104D0308104D0308104D0308104D0308104D0308104D0308104D0308104D0308104D0308104D0308104D030810C0
:4000C0004D0308104D0308104D0308104D0308104D0308104D0308104D0308104D0308104D0308104D0308104D0308104D0308104D0308104D0308104D0308104D03081080
:400100004D0308104D0308104D0308104D0308104D0308104D0308104D0308104D0308104D0308104D0308104D0308104D0308104D0308104D0308104D0308104D0308103F
:400140004D0308104D0308104D0308104D0308104D0308104D0308104D0308104D0308104D0308104D0308104D0308104D0308104D0308104D0308104D0308104D030810FF
:400180004D0308104D0308104D0308104D0308104D0308104D0308104D0308104D0308104D0308104D0308104D0308104D0308104D0308104D0308104D0308104D030810BF
:4001C0004D0308104D0308104D0308104D0308104D0308104D0308104D0308104D0308104D0308104D0308104D0308104D0308104D0308104D0308104D0308104D0308107F
:400200004D0308104D0308104D0308104D0308104D0308104D0308104D0308104D0308104D0308104D0308104D0308104D0308104D0308104D0308104D0308104D0308103E
:400240004D0308104D0308104D0308104D0308104D0308104D0308104D0308104D0308104D0308104D0308104D0308104D0308104D0308104D0308104D0308104D030810FE
:400280004D0308104D0308104D03081010B5054C237833B9044B13B10448AFF300800123237010BDCCB403080000000000E20810084B10B51BB108490848AFF300800848E8
:4002C000036803B910BD074B002BFBD0BDE81040184700BF00000000D0B4030800E2081098AE0308000000007047FFF7FDFF72B6104C114DAC4209DA21686268A368043BDC
:40030000A2BFC858D050FAE70C34F3E70B490C4A00209142BCBF41F8040BFAE709480A490860BFF34F8F00F023FB00F0FDFA00F00BFAFEE704E208101CE20810CCB40308D6
:40034000EC5A04080040020808ED00E0FEE7FEE700B504207146084202D0EFF3098001E0EFF30880043001F0D3FFFEE738B52DED048B08EE100A09EE101A08EE902ADFEDC1
:40038000177A68EEA77A17EE900A09F09BF902460B460020124909F013FB04460D4638EE498A4FF08041C8EE287A17EE900A09F007FDFEEE007A07EE100A67EE277A17EEF4
:4003C000900A09F07FFC09F07DF922462B4609F0CDF909F0DDFBBDEC048B38BD996C20400000F03FF8B506460F4601F07BF90546064C3B4632460146204600F0D7FF41F267
:40040000B0622946204609F013FCF8BDE8B4030830B589B0244802F0FBFD002002F0F4FD6FF07F4002F0ECFD02F080FE002513E005EB4512930023441C4A52F823302BB951
:4004400005F1140104F1410003F0E2F9013400E00024832CECDD0135AF2DF9DD022002F0FBFD05228421124803F04AF8114A06AB1068516803C3104A03AB07CA03C31A7041
:4004800006A802F0E9F803A809F000FC0B4B009303460E2206A903A803F066F901210846FFF7A0FF09B030BD2CC208108C420208C8AC0810C0AC0810E0AC0810F0AD030828
:4004C0002DE9F0412DED028B694802F0A1FD002002F09AFD6FF07F4002F092FD02F026FE022002F0B9FD05228421624803F008F814228421604803F003F8032002F052FD67
:40050000A023C3221946372003F0DCFBA0237D222821104603F0D6FB012002F043FD574802F076FD002002F06FFDA5225D21544802F0E6FFA5227A21524802F0E1FFA522AC
:400540008F21514802F0DCFFF8EE088A4FF0FF373D467DE000244FF07E5221462046FFF705FFDFED4A7A07EE100A67EE277A9FED487A87EE278A4FF07E52214618EE900A7F
:40058000FFF7F4FEB0EE087A38EE877AF1EE086AC7EE267A9FED3F7A67EE877AFDEEE77A17EE906A373607EE900A28EE278ABDEEC88A18EE103AC3F1A008B5F1FF3F15D04B
:4005C000B7F1FF3F12D0362E10DDC22E0EDCB8F1270F0BDDB8F19F0F08DC022002F0E2FC434632463946284603F06CFB022002F0D9FCFFEE007AF4EEE78AF1EE10FA21DB44
:40060000F7EE007AF4EEE78AF1EE10FA1AD816E0BB1913F0030F0CD00FE03919A81903F0F7F8013401E04FF0FF34012CF5DD013501E04FF0FF35012DF5DD013700E04746D8
:400640009F2FE5DDDFED147A78EEA78A47463546F0EE087AF4EEE78AF1EE10FA7FF67AAF01210846FFF7BEFEBDEC028BBDE8F0812CC20810ECAC0810F8AC08109CB1081072
:4006800000AD081004AD081008AD0810CDCC8C3F0000F04200000C43CDCCCC3D08B51F4802F0B6FC6FF07F4002F0AAFC002002F0ABFC002002F0DAFC02F038FD022002F0FE
:4006C000CBFC0A228421164802F01AFF022002F0C3FC1E228421134802F012FF022002F0BBFC32228421104802F00AFF002002F0B3FC462284210D4802F002FF002002F0A4
:40070000ABFC5A2284210A4802F0FAFE002002F0A3FC01210846FFF765FE08BD2CC208100CAD081024AD081038AD081040AD08104CAD081008B500F0F1FF0028FBD100F022
:40074000EDFF0028FBD008BD10B562B602F01EFD142000F017FE012000F01CFEFFF79EFFFFF7E8FF002400E00024064B03EB8403D3F8A8369847FFF7DDFF0134E4B2022CD6
:40078000F2D8F2E7E4A6030808B5012001F07EFB08BD00BF704700BF5C4AD2F8803303F00F0303F1D00152F8212002F00702032A04D0042A05D092B9554914E0554A116853
:4007C00011E003F1C002514951F8222002F01F02112A06D0132A04D04FF4FA4103E04E4901E04FF400418BBB484BD3F8902502F00100D3F88825C2F30172D3F8883513F024
:40080000405F07D0414BD3F88835C3F30173012B02D102E0012300E0002303B108B9032A46D13A48D0F88025C2F31103D0F88425C2F30C02D0F88005C0F300600130B1FB1A
:40084000F2F202FB03F2B2FBF0F131E0012B2FD12E4BD3F8402602F00100D3F80026C2F30172D3F8003613F0405F07D0274BD3F80036C3F30173012B02D102E0012300E025
:40088000002303B108B9032A12D12048D0F8002602F07F02D0F80036C3F30423D0F80006C0F3044002FB01F2B2FBF3F2B2FBF0F1164BD3F88033C3F3011321FA03F2154900
:4008C0004A601648D0F89030C3F3072301330069000E0130B2FBF0F08860B2FBF3F3CB600B6103F5742202F23F220D48A0FB0202C2F387420A7503F2E7330A4AA2FB032313
:400900009B098B61DB03CB61704700BF0000264000127A0098AD030800366E010000214083DE1B43D34D621008B50D4801F054FEFFF730FFFFF730FF00221146042001F0E1
:400940006DF8084801F000F9074B1B6893F8513013B1064801F068F900F0AAFF08BD00BFE4B0081048E20308705904085CAD081008B501F02AFD074AD2F8883043F470034D
:40098000C2F88830BFF34F8FBFF36F8F01F021FD08BD00BF00ED00E02DE9F04180460E4617460A4C08256560702000F06FFD404600F06CFDA5606560722000F067FD394625
:4009C000304600F0C7FDA560BDE8F0810006324000B583B002AB03F8011D01221946FFF7DBFF03B05DF804FBF8B507460E46094C08256560702000F049FD384600F046FD27
:400A0000A5606560732000F041FD304600F06EFDA560F8BD0006324038B50425084B5D60084C402363601023636000F0FFFC0822054B5A6065602023636000F0E1FC38BDE6
:400A400000003240800232400006324010B5434C6F220021204609F011F9631C236704F14E03636704F12203A36700F0C9FC03E000F0D0FC032868D800F0AEFD0028F7D1A2
:400A800000F0CEFC00217220FFF7AEFF00F00F0002285CD14021FFF79BFF00210F20FFF7A3FF10F0800F54D002210B20FFF790FF08222B490120FFF76FFFD1210720FFF73F
:400AC00087FF02210820FFF783FFC2210920FFF77FFF03210420FFF77BFF01210320FFF777FF00210320FFF773FF0A2001F0E6FB002400E01C4601210520FFF769FF64208D
:400B000001F0DCFB03210520FFF762FF322001F0D5FB0F210520FFF75BFF322001F0CEFB00210F20FFF760FF10F0400F05D040210220FFF74DFF234603E0631C9BB2042CB3
:400B4000D8D1032B07D9052010BD012010BD022010BD032010BD002010BD00BFC8E3030890AD081010F1090F0EDB10F1040F0EDB05280FDD0A2810DD0F2811DD142811DDC2
:400B8000282811DC5A2210E04FF496620DE04FF461720AE04FF4167207E04FF4A57204E0DC2202E0B42200E03C22034BA3F87C20A3F87E20704700BFC8E303082DE9F84F39
:400BC00006460D46047828B1CA4B984205D10127002403E00127FF2400E0002700F010FC4FF00008D0E1C8EBC80AC8EB0A1ADFF80C930AEB090B6F220021584609F03EF86D
:400C00000BF1010EBC4BC3F870E00AF148004844063058670AF1200AD14409F10209C3F878902022002397E10FB934780136032D00F29081DFE815F004006500C6002701F3
:400C400000EB030C14F0400F01D0C02100E080218CF8001049B214F0100F02D04FF0300A01E04FF0200A4AEA01018CF8001014F0040F02D04FF00C0A01E04FF0080A4AEA3F
:400C800001018CF8001014F0010F02D04FF0030A01E04FF0020A4AEA01018CF800100EEB020C14F0800F01D0032100E002218CF8001049B214F0200F02D04FF00C0A01E01A
:400CC0004FF0080A4AEA01018CF8001014F0080F02D04FF0300A01E04FF0200A4AEA01018CF80010013A92B214F0020F02D06FF03F0A01E06FF07F0A4AEA01018CF80010BE
:400D000028E100EB030C14F0400F01D0802100E040218CF8001049B214F0100F02D04FF0200A01E04FF0100A4AEA01018CF8001014F0040F02D04FF0080A01E04FF0040A51
:400D40004AEA01018CF8001014F0010F02D04FF0020A01E04FF0010A4AEA01018CF800100EEB020C14F0800F01D0022100E001218CF8001049B214F0200F02D04FF0080A0E
:400D800001E04FF0040A4AEA01018CF8001014F0080F02D04FF0200A01E04FF0100A4AEA01018CF80010013A92B214F0020F02D06FF07F0A01E04FF0400A4AEA01018CF86F
:400DC0000010C7E000EB030C14F0400F01D0C02100E040218CF8001049B214F0100F02D04FF0300A01E04FF0100A4AEA01018CF8001014F0040F02D04FF00C0A01E04FF09D
:400E0000040A4AEA01018CF8001014F0010F02D04FF0030A01E04FF0010A4AEA01018CF800100EEB020C14F0800F01D0032100E001218CF8001049B214F0200F02D04FF04F
:400E40000C0A01E04FF0040A4AEA01018CF8001014F0080F02D04FF0300A01E04FF0100A4AEA01018CF80010013A92B214F0020F02D06FF03F0A01E04FF0400A4AEA01014C
:400E80008CF8001066E000EB030C14F0400F01D0802100E0C0218CF8001049B214F0100F02D04FF0200A01E04FF0300A4AEA01018CF8001014F0040F02D04FF0080A01E0AC
:400EC0004FF00C0A4AEA01018CF8001014F0010F02D04FF0020A01E04FF0030A4AEA01018CF800100EEB020C14F0800F08D0022107E000BFFFFF0F10C8E30308F80C04088D
:400F000003218CF8001049B214F0200F02D04FF0080A01E04FF00C0A4AEA01018CF8001014F0080F02D04FF0200A01E04FF0300A4AEA01018CF80010013A92B214F0020F9A
:400F400002D06FF07F0A01E06FF03F0A4AEA01018CF8001001339BB2202B7FF665AEC8F1AF031BB299101A4A134003D5013B63F003030133174A02FA83F31B7A09F801303D
:400F800008F101081FFA88F8B8F1AF0F7FF62BAE00240FE0C4EBC403C4EB03136F220E4919440A20FFF7F8FC07210220FFF710FD0134A4B2AF2CEDD9084BB3F87C4000F017
:400FC00029FA8442E4D800F02BFABDE8F88F00BF0300008090AD0810F80C0408C8E303082DE9F04706460D4600F00AFAD2210920FFF7EEFC0024C6E0C4EBC407C4EB0717C1
:40100000DFF8008207EB08096F220021484608F035FE09F1010C784BC3F870C007F1480EC6440EF1060EC3F874E02037B84408F10208C3F87880202000218EE0771C3278A5
:401040006E1C95F800900EEB010582EA090212F0400F04D019F0400F03D0802302E0402300E0C0232B705BB212F0100F05D019F0100F05D04FF0200A04E04FF0100A01E036
:401080004FF0300A4AEA03032B7012F0040F05D019F0040F05D04FF0080A04E04FF0040A01E04FF00C0A4AEA03032B7012F0010F05D019F0010F05D04FF0020A04E04FF037
:4010C000010A01E04FF0030A4AEA03032B700CEB000512F0800F04D019F0800F03D0022302E0012300E003232B705BB212F0200F05D019F0200F05D04FF0080A04E04FF0B7
:40110000040A01E04FF00C0A4AEA03032B7012F0080F05D019F0080F05D04FF0200A04E04FF0100A01E04FF0300A4AEA03032B70013880B212F0020F05D019F0020F04D09D
:401140006FF07F0203E0402201E06FF03F0213432B70013189B235463E4620297FF66EAFC4F1AF031BB29910244A134003D5013B63F003030133224A02FA83F31B7A08F8DF
:4011800001300134A4B2AF2C7FF636AF002421E0C4EBC405C4EB05151A4B1D446F2229460A20FFF7F9FB07210220FFF711FCC4F1AF0343F38D032B44002283F822206F22A5
:4011C00029460A20FFF7E8FB07210220FFF700FC0134A4B2AF2CDBD9074BB3F87E4000F019F98442D2D800F01BF9C2210920FFF7EFFBBDE8F08700BFC8E3030803000080F6
:4012000090AD0810F80C0408002307E01349086F5522C254496FCA5401339BB2202BF5D970B5002416E0A6080C4DAA6F04F003030B490B441B7A93556F2229460A20FFF7D6
:40124000ABFB07210220FFF7C3FBAB6F00229A550134A4B2AF2CE6D970BD00BFC8E3030890AD081008B5002304E00021094AD1540133DBB2152BF8D900210420FFF7A8FB76
:401280006F2204490A20FFF787FB07210220FFF79FFB08BDC8E3030838B50E4C1023A360142001F00BF800F0D9F808220A4B9A604023A3600425A5600A2000F0FFFF656009
:4012C0000A2000F0FBFFA5600A2000F0F7FFFFF7BDFB38BD800232400006324038B5FFF793FFFFF7BFFF1E2000F0E8FF234C40256560322000F0E2FFA56000210F20FFF771
:4013000073FB10F0400F36D000210B20FFF760FB01210320FFF75CFB03210520FFF758FB01210520FFF754FB322000F0C7FF80210420FFF74DFB00210520FFF749FB0121F0
:401340000720FFF745FB1E2000F0B8FF00F094F8102363606560142000F0B0FF0822084B5A60042363602025A5601E2000F0A6FF6560002038BD042038BD00BF800232403D
:401380000006324010B50446FFF746FB2046FFF7E9FB10BD08B510B1FFF77EFF01E0FFF79DFF08B9012008BD002008BDF8B507460E4614461D4613B10120FFF7EBFF24B9C5
:4013C00031463846FFF70CFE15E0631EDBB2012B11D800213846FFF7F1FB012C07D101213846FFF7EBFB02213046FFF7E7FB03213046FFF7E3FB15B10020FFF7CBFFF8BDA4
:4014000008B50022024BC3F8082100F06FF908BD00003840014BD3F808017047000038400122014B5A6070470000384010B5074C074A0849204600F09DFD236843F00043B5
:4014400023600822044B9A6010BD00BF000067404C590408E4AD0810000632400822044B9A60044A136843F000431360704700BF000632400000674008B50249024800F075
:40148000ADFE08BD4C5904080000674008B50146154800F011FD144BD3F8C03F13F0040FF9D0114BD3F8042242F48032C3F80422D3F8042222F48032C3F80422D3F804225C
:4014C000D3F8042342F48032C3F80423D3F8042322F48032C3F80423D3F804230422C3F8C02FD3F8C03F08BD0000674008B50146174800F0E1FC164BD3F8C03F13F0040F2B
:40150000F9D0134BD3F84003D3F8042242F48032C3F80422D3F8042222F48032C3F80422D3F80422D3F8042342F48032C3F80423D3F8042322F48032C3F80423D3F80423E7
:401540000422C3F8C02FD3F8C03FC0B208BD00BF0000674038B50C46054600B121B940F2E6511B4800F0C4FE22462946194800F0E9FC184AD2F80832C3F30803D2F8082279
:40158000C2F3C032D342F4D1124BD3F8042242F48032C3F80422D3F8042222F48032C3F80422D3F80422D3F8042342F48032C3F80423D3F8042322F48032C3F80423D3F8E5
:4015C00004230422C3F8C02FD3F8C03F204638BD9CAD081000006740044B1B6913F0080F01D0012070470020704700BF8002324008B54FF48051034801F048F9024801F01E
:4016000061FD08BD48E40308B8D70810024A136801331360704700BF4859040810B52021002000F017FF002409E0204600F042FF20B90849204600F02FFF02E00134042C53
:40164000F3D9042C03D9A421034800F051FE00F0D9FE10BD0D160810DCAD081008B5FFF7DDFF08BD10B582B002AC012344F8043D00231A461449154801F0A4FE214603F00F
:401680000EFC04F08BF860B14FF48472B021002004F019FC4FF48472B021002004F03FFC0BE0B0224FF48471002004F00CFCB0224FF48471002004F032FC0549002004F04D
:4016C00019FC02B010BD00BF40DF081074DF0810B8AD0308012901D1002070474FF0FF30704700BF0048704748F4030808B5084B1B783BB9074A0021074800F0E5FE01223A
:40170000034B1A70044B01229A609A6108BD00BFF80A040818AE081000003840014B1878704700BF041634401F4B98422DD00CD840282ED003D8E8B1102828D02FE08028BC
:4017400029D0B0F5807F28D029E0184B984228D006D8B0F1204F0DD0154B984212D01EE0144B98420AD00133984209D0023B984215D101E0002070470F4870470F487047E6
:401780000F4870474FF4A0007047074870470D4870470D4870470D487047034870470C4870474FF4A400704706005200010000F0090000A0040000F001005200020052001F
:4017C00003005200010050000200500005005200FF00520038B5124B1B6893F83130012B04D840F2C3110F4800F082FD0C4B1D682A6AB5F8B03013442C46D5F8B420D3582A
:40180000002B0BDB084B1868FFF78EFF6B6801229A6063689B68002BFBD138BD034838BD7059040864AE0810FC0A0408020050001A4B186128B102230370FF2343700023AD
:401840004380174B1B6893F850202AB300B583B0B3F93830ADF80030002301931149684600F0F2FCBDF90030002B08DB590903F01F03012202FA03F30B4A42F82130084BC7
:401880001B6893F8513023B102220849012000F077FA03B05DF804FB704700BFFC0A04087059040809AF030800E100E0C1AF030808B50248FFF7BCFF08BD00BF100B040808
:4018C00038B50B4B1B68D3F8B4301B58002B0DDA0D4604460B0C1B0423B140F2D521054800F006FDA9B26160002038BD024838BD70590408A4AE081001008A0038B503684D
:40190000002B01DA002300E0094B73B90D460446C2600B0C1B0423B140F2BB21054800F0E7FCA9B2A160002038BD014838BD00BF01008A00A4AE081038B504460D4619B968
:401940009921084800F0D4FC074B1B68D3F8B4301B59002B03DAE3682B60002038BD034838BD00BFE4AE08107059040801008A00254B1B6893F8313083423AD900293AD0BF
:401980000B6813F01F0F38D170B50D4604461E4B1B6893F83130984204D340F2C3111B4800F0A6FC184B1B68186AB3F8B03004FB0304174E34602A68D2080021686808F0ED
:4019C0005DF900212046FFF77BFF346825B940F293310E4800F08CFC2A4600212046FFF78DFF60B900210A4B1868FFF769FF40B970BD0848704707487047064870470648F0
:401A000070BD054870BD00BF70590408A4AE0810140B040803018A0001018A0010B504461346B2B9A9B9124B1B6893F83130984204D340F2C3110F4800F05AFC0C4B1B688D
:401A40001A6AB3F8B03004FB03240B4B1C60002010BD43B149B1084A51609360111D2046FFF786FF10BD054810BD044810BD00BF70590408A4AE0810140B040803018A00C8
:401A80002DE9F0411B4B1B68DC68236883422CD90D464609A0EB4610012303FA00F819B900F093FC074600E00027124B18680368002B01DA002300E00F4B83B9626852F821
:401AC000263018EA030F05D023EA080342F82630002400E0094C0021FFF7F2FE00E0084C25B9384600F075FC00E0064C2046BDE8F08100BF140B040801008A000201880000
:401B00000301880004018A000B4B1B68DB681A6882420CD94109A0EB4110012202FA00F05B6853F82130184203D004487047044870470448704700BF140B04080101880005
:401B400004018A0000018800024B1B680BB9014B18607047200B04082DE9F8430446884691461D46089F2C4B1B681BB9B5212B4800F0BEFB284B1B682C2000FB04F01C1898
:401B8000EEB21E50C5F3072363602D0CA560244B1B6893F831309E4204D340F2C311214800F0A6FB1E4B1B68196AB3F8B02006FB02162661666893F832309E4204D340F271
:401BC000DF11184800F094FB154B1B681D6A803605EB46156561A668330C1B0423B14FF4FF71104800F084FB330C1B0423B140F2FF110C4800F07CFBB3B243EA0646AE6010
:401C0000C4F81C90C4F820800023A36117B1B7F90030A381BDE8F883200B040824AF081070590408A4AE0810F0B58FB0044618B95221274800F05CFBA369072B03D95621B3
:401C4000234800F055FBE36A1BB95821204800F04FFB236B1BB959211D4800F049FB07AD04F114060FCE0FC537682F6002AD26460FCE0FC533682B60164B1B68B3F936208E
:401C8000079B1344ADF83030089B0D93A26AE16A0CAD00953B460A98FFF75EFF00210091069B0A460598FFF757FF216B284600F0CBFABDF93030002B08DB590903F01F03F2
:401CC000012202FA03F3044A42F821300FB0F0BD24AF08107059040800E100E0F8B506460F461D4614461AB9FD211F4800F000FB1E4B1B681BB9FE211B4800F0F9FA1B4B30
:401D00001B682C2101FB063001FB07314B68012202FA03F31B04466802FA06F60269EAB18F69EFB91268002A01DA002200E0104AC2B92288134323600369DC6001238B61A9
:401D40004D620469330C1B0423B140F2BB21094800F0CEFAB2B2A2600020F8BD0648F8BD0648F8BD0548F8BD24AF0810200B040801008A00A4AE081004028A0007028A0081
:401D8000F8B505460F4616460E4B1B6823B94FF4AF710D4800F0ACFA0A4B1B682C2404FB0534236A23B94FF4B171074800F0A0FAE369B34204D9236A43F826700020F8BD1C
:401DC0000248F8BD200B040824AF08100A028A0070B582B000230193044620B940F2D111284800F085FA236923B94FF4E971254800F07EFA636923B940F2D311214800F017
:401E000077FA236A23B94FF4EA711E4800F070FA6369DD682A0C20D012041A601B682069194B1B68D3F8B430C358002B15DA01A9FFF782FD60B9019803681E0CDBB2E2698E
:401E4000934206D2226A52F8233013B1984700E0002631462069FFF733FDADB275B16369ADB21D601B68636A1BB198470023636202E0A36A03B198470023A36163691B68B5
:401E800002B070BD24AF08107059040810B50446074B1B6823B940F2B111064800F028FA034B1B682C2000FB0430FFF791FF10BD200B040824AF0810036813F4006F01D0FC
:401EC000802200E04022D0F80832C3F30803934203D0C0F84012012070470020704700BF10B4D0F8003203F00F03072B06D900230DE0CC5CC0F84042013300E000239342C9
:401F0000F7D306E031F81340C0F8404201339342F8D35DF8044B704710B51446036813F4006F01D0802200E04022D0F80832C3F30803D31AA34200D81C462246FFF7D0FF5B
:401F4000204610BDF8B507460D461446D0F8006206F00F060BE0224629463846FFF7DCFF072E01D9430000E003461D44241A002CF1D1F8BD002800F02481F8B505460029A6
:401F800000F0218117460C460B78012B03D93F218F4800F0ADF96378012B07D9052B05D0022B03D040218A4800F0A2F9A378032B03D94121864800F09BF92378012B07D166
:401FC0006368023B0E2B03D94321814800F090F9A36933F00F0303D044217D4800F088F9A368043B0C2B03D94521794800F080F9E368043B0C2B03D94621754800F078F960
:402000006378022B07D0A268E3689A4203D047216F4800F06DF9636A33F06D0303D049216B4800F065F9E36A33F0730303D04A21674800F05DF9236B33F4206303D04B211A
:40204000634800F055F96378A678052B07D8DFE803F0060305060603022600E00026A368082B04D8E368082B03D9002302E0002300E0012313B14FF4006200E00022237FBD
:4020800013B14FF4807300E000231A436368013B03F00F03134343F080732B60226A2B6813F4006F01D0802300E040239A4203D35821474800F01CF9A26A2B6813F4006F93
:4020C00001D0802300E040239A4203D35921404800F00EF9237D0BB9012100E000216278052A01D1022300E000230B43E17C09B1102100E000210B43617C09B1202100E057
:4021000000210B432178012902D14FF0004100E000210B43B60006F00C063343A169090201F470610B43120602F0407213432B62237C13B14FF4807200E00022A37C13B152
:402140004FF4007300E000231A43A368013B03F00F031343C5F8003394F82030C5F80433237C13B14FF4807200E00022E368013B03F00F031343C5F8003294F82830C5F8DB
:402180000432636A03F06D03C5F8C83FE36A03F07303C5F8883F236B03F40073C5F8003F236B03F40063C5F8403F0023C5F8C83E5FB118463B60BB61FB60FB61054B3B62F4
:4021C000F8BD054870470448F8BD0020F8BD00BFA8AF0810EFCDAB000140AA00036823F00043036019B100220A60CA608A61036A002B04DB0023C0F8C83FC0F8883F7047B2
:4022000038B50D4B9A680D4B9A420FD10D46044621B940F237110A4800F06AF804F11003064A52F8230042F8235038BD1030054B53F8200038BD00BF00ED00E00040020881
:40224000E8AF08100000081048B338B504460D464368072B03D93221134800F049F8B4F900306268002B08DB5201D2B203F1604303F5614383F8002305E003F00F035201E0
:40228000D2B20A49CA540A4B9A680A4B9A4208D12946B4F90000FFF7B3FF002038BD06487047002038BD00BFE8AF081014ED00E000ED00E0004002080100560010B5044609
:4022C00005E0084B186800F077F8A4F50044B4F5004FF6D8044B186800FB04F000F06CF810BD00BFB4AD0308B0AD030801BEFEE738B50D46044C18220146204607F0CEFCD6
:40230000A5610020FFF7F2FF38B40308FEE700BF08B50268254BDA6142681A6282685A62C2689A620269DA6242691A6382695A63C2699A631E4A916AD963D16A1964516A80
:402340005964516B9964926BDA64F1EE103A13F0900F27D0026A154B1A65426A5A65826A9A65C26ADA65026B1A66426B5A66826B9A66C26BDA66026C1A67426C5A67826CDE
:402380009A67C26CDA67026DC3F88020426DC3F88420826DC3F88820C26DC3F88C20026EC3F89020FFF7B2FF08BD00BF38B4030800ED00E0000000000230800803D0013065
:4023C0000238FCD100BF00BF7047EFF3108072B6704780F310887047084B1B6813F4803F07D17047064B53F8243003B19847013401E010B50024042CF4D910BD10E000E047
:40240000600B0408044B1A6842F002021A601A6842F001021A60704710E000E0042805D10A4A136843F0040313607047084B1B681A68D3F8A030000600F04070D050034AB1
:40244000136823F004031360704700BF10E000E07059040810B50C46002304E000210A4A42F823100133042BF8D9084A084BDA63FFF7D4FF24F07F44064B5C6000229A605A
:40248000FFF7C0FF10BD00BF600B0408D92308100040020810E000E00346042805D8044A52F8200042F8231070470020704700BF600B0408042803D8024B53F82000704785
:4024C00000207047600B040800287DD00346002A7CD070B45068000280B29568AD0405F480252843D468240404F4403404431069000600F0E0602043147F0CB1012400E015
:40250000002420430C1DA4011851D06828B903EB81100024C0F808410CE0012805D1146803EB8110C0F8084104E003EB81100124C0F80841106938B9546903EB8110C0F852
:402540000C419469C0F81041146803EB8110C0F81441906CB0F1FF3F17D0946A04F00F04166B360206F470663443956B2D0405F470252543146C2403A4B22C430001C0B233
:40258000204303EB8114C4F82001506A00F00300D66A360106F030063043556B2D0205F440752843D46BA401E4B20443506C800000F00C00204303EB8113C3F82401126A53
:4025C000C3F83821002003E0024870470148704770BC70470100B600014B1860704700BF70590408F0B51B4C85B02668F76C3D18306DBC1841180191C718337E02A9013BC0
:402600009BB2EA1A0A801A198A80019A0800D21ADB194A80CB8004F079F9002818D022000199280002F092FC22003900280002F08DFC019B7A1E5E1C3100280002F0ACFC71
:402640007A1E3100200002F0A7FC04F0AFF8E4E705B0F0BDD8AD030810B50622835E0421425E0224015F0024005FFFF7BBFF10BD064B5A68596B01325A60C2008A18596A80
:4026800051600021117058627047C046745904080F2330B542680E4CD90009190D6C2100AA4202D2013BF7D211E00F2B0FD82468A21A0A608268C068002A00D0506000285A
:4026C00001D0026003E00833DB00CB185A6030BD74590408F8B5284C0600E368A26B013B0818D3180D00984206D80368002B03D14368F618FFF7CCFFA36B9D420BD92B1FC1
:402700001F68EF1B3B68002B05D17B683800F6183D00FFF7BDFF0F23DA00A218126C964202D2013BF8D225E00F2B23D80833DA00A21850680022A91904392A606E60A86014
:402740002D610E6029000831904200D04160EA602200DB00E318A860596023682932F31823601278002A05D1E268D31AA268934200D9A3603000F8BD74590408F0B5234BF4
:4027800087B09C6BDB680490013BE318039323686568002B30D1039B6719BB422CD93B680293002B28D0194EDB00726B9B5C012B22D17B6820000193F36A0593FFF768FF1A
:4027C0003B68726BDB00D3185C60019A3900200007F039FA029B059A934202D1736B5B1B7363019B2800E118FFF774FF049B002B01D0984206D2019D039B6419A342C6D8FC
:40280000012000E0002007B0F0BDC04674590408002806D0034BDA6B0260002A00D05060D863704774590408034BC0005B6B1818406808307047C04674590408064A10B53D
:40284000D3690133D361526BC300D3181A7801321A70FFF7E9FF10BD74590408036810B5083B094C1B68626BDB00D3181A78012A04D9E169002901D00139E161013A1A7079
:4028800000230360180010BD745904080322024B9143186059607047740B040810B5041E0BD0064B5A6BC300D3185B6819005868FFF710FF2000FFF7DBFE10BD745904085F
:4028C000F7B5224DEB6A002B07D1214B99685868083106F069FD841C03E02B691C1DDB08E418E00000F0CAF80126071E2CD06A6BC300D3185E68EB6A083601932B69696BC2
:40290000DA00144B30001B68984729696E630B00CA000432EF62B218601E834203D2013313600832F9E7DB00F31800265E60074B5A685962511A091959601C61019BB3427D
:4029400002D01800FFF7AAFF3000FEBD74590408740B0408FCAD030870B5184C230028331A78002A29D101321A70154B0F32DA609A68002A02D15A6892089A605A22102570
:402980002262002228009040D100611801320864102AF7D15868196803000125143BCB180E3A22616363A163E0605D6065626560FFF790FEFFF784FF256370BD7459040849
:4029C000740B0408F0B5040085B0FFF7C5FF0323294E03349C43376C201DB84200D30700F26B1400002C06D0231F196823688F4232D01C00F6E7F268B36B94466344019333
:402A0000043B02931B680393039A019B9D1A2B68002B06D02000FFF7B1FE029B1D68019B5D1B2B68002B23D16B689F4220DC28001C1DFFF72DFEF368E41BDB1BF3607369C7
:402A40002C19DB1973616B68D81B02D02900FFF741FE231F1F600BE0002B01D0616859606168002900D00B60A24201D12368F363200005B0F0BDC04674590408F0B585B02A
:402A80000400FFF769FF3C4D2E6CB44203D3032303349C4326002B680C360196B34241D32B6B6A689A420FD96B686F6A013B6B60FB0003936B6BFA009B185A686A6201224A
:402AC0001A70002F0AD12DE0013B2B63FFF7F8FE2B6B01332B630028E6D023E00F23DA00AA18126C964201D2013BF8D21A00DB004433EB180F2A0DD81968002907D08C6847
:402B0000002C04D061688E420ED9A168F5E701320833EFE73000FFF731FE0028DED03800FFF7A6FD002723E0636802939E1B2B6C0C339E4201D2029B01932000FFF7A8FD38
:402B40006B6B039A9B185C60019B019A63600023A360019B2760E1180B1F24611A601300029A934204DA1300019A981AFFF7B2FD380005B0F0BDC04674590408002310B546
:402B8000984202D0FFF77AFF0300180010BD000037B50500FFF7F2FF041E0AD0FFF74EFE054B01901B682A000021984701A8FFF755FE20003EBDC04600AE0308514BF0B561
:402BC0001B688FB0DA69D469A589A84208DBE189814205D32168451B09910121494215E0A168002900D184E00D88A84200DA80E04E8886427DD3451B4968A8B266688000A7
:402C0000081809960021455E0221415E0891691C6FD022215E5E2420195E0691127E0A92A27C0A9951430C91227C0B922A229B5E1800079302F054F9324F0D903A680699B3
:402C4000D369926B300005920C9A5543099A551904950125A27C02950392DA7E01929B7E0B9A00930A9B02F0CDFA089B01331BD00220079B184302F033F93B680899DA69DC
:402C80009B6B300005930C9B4B430999CB180493A37C02950393D37E06990193937E0B9A00930A9B02F0AEFA164D2B68DB695A7E1B7E9A4217D9079B022B14D004205840B7
:402CC00002F00EF92B68069AD8690B99437E057E9B18827E51438A19C17E069869430918300002F07FF96B4634229B18187802F0F7F8044B617C1A68538CCB1853840FB020
:402D0000F0BDC046D8AD0308044B1B68DB69DB69002901D01A7C0A60587C7047D8AD030802230B80704710B5C3699A89914203DBDA8901208A4210D29B68181E0DD01A88CB
:402D40000020914209D35C888C4206D3891A5B688900C85AC04380B2C00B10BD002807D003888B4202D843888B4201D28068F5E770470000F0B5334F8BB03B6804002A21B0
:402D80005A5EDB690100D8690792FFF7E7FF002855D00388E41A4368E4001E190798B47802F09EF839680990CD6932782B7E08932423C85E84462223C85E896B089B059144
:402DC00071680394049101210291E97E0191A97E0091614602F016FA3B68DB695C7E1A7E089294421FD9079A022A1CD0DD7E00F088F8079000F07FF800F006F93A682423A4
:402E0000D15E2223D05E2300D2696B43D47E32785B186243089C12186543691802F0E2F8079800F0F1F8099802F05AF8054B71781B68DA69927E4A43598C52185A840BB02C
:402E4000F0BDC046D8AD03080C4B70B51B680400DE690D000100F069FFF780FF00280CD002884368A41AE4001C196078B37E5843002D02D0227853432B6070BDD8AD0308BE
:402E800001230B80704710B5C069FFF767FF431E9841C0B210BDFF2230B5040014400A40A21A92B213B2002B01DA524213B25B431D00FF23020A1A4014000A0A1340E21A63
:402EC00092B213B2002B01DA524213B2000C5B43090C411A89B208B25B19002801DA494208B280B24043C01830BD10B5002801D003F080FE10BD10B502F0ECFB02F0F2FAAD
:402F000010BD10B502F0EEFB02F0ECFA10BD70B500282CD0002926D0002A25D013880D881C1C2EB21BB2B34200DD2C1C048053884D881C1C2EB21BB2B34200DD2C1C4480D2
:402F400093888D881C1C2EB21BB2B34200DA2C1C8480D388C9881A1C0CB21BB2A34200DA0A1CC28003E01100082206F061FE70BD00280DD0038889B2CB180380838892B26D
:402F8000C91843888180D3184380C388D218C28070470000024B1B685884998400207047D8AD0308024B1B681A7E187610007047D8AD030830B503000222845E06200A5E8F
:402FC0000020944213DC02228C5E06255A5F94420DDC00229C5E04254A5F944207DC00228A5E0421595ED00FCB179142584130BD10B502F02FFF02F0A9FF03F007FD10BD51
:4030000010B502F0B3FA10BD10B502F0B7FA10BD034B021E1B68D86900D0DA617047C046D8AD0308084B10B51880084B0A001980074B08491B685B7C9B005B58D9680C6AF8
:4030400001001800A04710BD5C5A04084C5A0408D8AD0308845A0408034B1B682C215A5E988510007047C046D8AD0308034B1B682A215A5E588510007047C046D8AD030837
:4030800070B50024094D0A4E10C53368210028007022984733680422210006489847064B1D60064B1C70064B1C6070BD840B040800AE0308845A0408D8AD03086C5A04089B
:4030C000485A0408014BD8607047C046D8AD0308F0B50700160085B00C000420019301F0FFFE114B00901A68D36CDD199E19176D019B3C19FF1802AB18001D809E805C8066
:40310000DF8003F003FC002804D1009801F0E8FE05B0F0BD3B0032002100280001F062FF03F044FBEFE7C046D8AD0308002110B50800FFF72FFF034A034813000100FFF716
:40314000C7FF10BDFF3F000001C0FFFF024BDA6FD86742607047C046840B0408084B10B51A68002A0AD101321A60FEF741FAFEF779FA0448044B0360FFF7E8FF10BDC0465E
:40318000840B0408040C04088130081070B5FFF7E5FF2E22314B1A70FEF760FA304C314D2100314B0C3123672B681A1DDA630432A2619B631B645B7C2C4A9B009858C368CD
:4031C0001B6B98472A4B6366EB6823622B680833A36101232377E37703F01CFD2300032268331A70234BE064606F6363A36302F0BDF9A86802F0C2F91F4A204B1A6002F0FF
:4032000017F9050002F014FB060002F017FB002E01D0002808D102F0FBFA060002F0FDFA0100300002F0FEFA00210800FFF7FAFE03F03AFCA36F002B0AD0A36F002B07D012
:403240001B68002B00D09847A36F5B68A367F4E701220B4B28001A7070BDC0463D5A0408840B0408D8AD0308D8DE0810845A0408D0DE0810785634FF30DF08107C5A040883
:40328000645A04080300002083420ADC054A9B009858002805D0C3681B68002B01D00068F7E77047845A040810B5FFF7B1FA10BDF8B506000D0017001C1E01DD00201BE0D1
:4032C0001C20FFF77FFB0028F8D0002D01D005610BE00A4BA200D358002B06D01A68002A01D01300FAE71B690361002384618782C660036043608360F8BDC046845A0408A2
:4033000083690C499A0010B554580368A04204D15350002B01D000225A604268002A00D013600368002B00D05A6000230360436010BDC046845A040830B5002801D1012087
:403340003BE08269002AFADC1C4B19788A4201DB012119701A49920053580D00002B02D15050180029E05968002901D00B00FAE7C1680968DC6824688C4203DD1B68002B23
:40338000F8D1DCE78C420AD1848A012C07D11C68002C04D02300E4682468A142F7DD5968002902D00860416000E0A85058600022984200D01A000260002030BD355A04084A
:4033C000845A040870B51C00FFF772FF051E0AD0FFF7B2FFEB681B68002B04D1034B16341B68A400E550280070BDC046D8AD0308F0B5040087B0002800D17BE003F082FD3C
:403400003D4D02902B6822229B5E039303F064FD2A6883B20093938C00995B1A93842378002B5AD03549200003F0D8FD01000600200003F0FDFD304B1A680323918D194014
:403440000300012905D00023022902D1C30F1B185B10518C04ADCB1A9BB219B25184298081B2019101395B18AB802423D35E6A4617896B80013BFB182A0020003100EB802B
:4034800003F004FE1C4D04AB5B882A6820009384310000F063FD241823780A2B01D00D2B12D103212B689A8D0A40013A012A02D86A46928900E01A8C5A8422780A2A09D19B
:4034C0009A8CBF189F8405E004AA1088019A2B68101858842378002B0AD10321064B009A1B68988C10189A8D98848A439A8501E0013494E707B0F0BDD8AD0308FF7F00009E
:4035000010B5034B1B6859849A84FFF771FF10BDD8AD0308F0B58BB0059004920C000822002106A8009306F0A9FB03F0EBFC059B0290039308AD002C05D00822210028002F
:4035400006F076FB02E02800FFF7CFFC0C24049B1C4002D10223EC5E33E00025009E002E11D03100059803F039FD0100361A059800F0F4FC059B01351818059005A803F0C7
:4035800047FC0028EBD0082C03D00C2C09D0042C16D108AB06229B5E029A55435C1B01340FE008AB02229C5E06229B5E029A1B1B554301335D1BEB0F5D196D102C1900E0F9
:4035C00000240026039B0593009B002B00D187E00099059803F002FD009B01901B1A01000598009303F024FD0322049B1340012B13D0022B05D0002B14D108AB00269E5F71
:4036000010E008AB00215A5E04215B5E9B1A1B1AD90FCB185B109E1804E008AB04229B5E1B1A5E1C3D4F06AD396823B28B846B80029B013832B28019013B4A841B192A800B
:40364000A8802A0001990598EB8003F01FFD344B1B78002B34D002223B685B8D13422FD1039B059A93420DD108A80222AB5E0222815E8B4206DD0425425F013B0025405FB8
:40368000FFF726FD06A90023CA5E08AB0020185E824206DD06254B5F013A0225495FFFF717FD06A90423C85E08AB04229A5E904206DA06254B5F01300225495FFFF708FDCF
:4036C0000199059800F04AFC059B1818059003F019FC241805A803F09BFB002800D173E70F4B1B78002B17D00C4B1B685B8D9B0712D4039B059A93420ED006AB08A806216A
:40370000595E0622835E994206DA0424025F01310024005FFFF7DCFC0BB0F0BDD8AD0308140C0408F0B585B006000C0017000193002817D00D1E0CD0080003F0E3FA051E36
:4037400007D00200210002A803F091FB02A803F0D9FA3000019B3A002100FFF7DBFE280003F0D0FA05B0F0BDF0B589B003930E9B02900D001700002B03D1039BFFF7D2FF42
:403780003DE0082206A8002903D106F077FA2C0013E006F04DFA082206A91A4806F048FA280003F0AFFA041E07D00200290004A803F05DFB04A803F0A5FA0022124E134DE2
:4037C000336806A801932B685A610E9B33605B689847039B3A0006A90298FFF79BFE200003F090FA019A3300002A02D02A68002102E02A68110008315161019A1A6009B0B8
:40380000F0BDC046905A0408405A0408D8AD030873B50E4E3368DA6C1B6D84186A46CD1823B29380138068462BB2D380538003F06DF8002808D0336829001B6E20005B68D7
:40384000984702F0B3FFF4E773BDC046D8AD030810B5084B1B681A7E012A03D11B6E5B68984705E0013AD30F9A18521003F05CFC10BDC046D8AD030810B51F4A0300126858
:403880000020927E013A032A35D8100005F078FD020F1D25194A0633134004D51022013B524213430133D80F00210B220AE0144A134004D50422013B5242134301330021F8
:4038C0000122D80F9A42484115E01421180005F08BFD01200B2909DC0DE01821180005F083FD01200B2906DD042399430023103988425B41180010BDD8AD03080F0000809C
:40390000030000808023000530B5000D1B010021984202DD104A013180188022D200904200DD181A3F23402482111840201A0B4D83B25000405B5843A34207D0102A05D032
:4039400001325200525BE31A5343C01820308009002900D0404230BD00F8FFFFECDE0810802310B5DB00C018FFF7CCFF10BD0000F0B587B002910299141A5F1A2100019085
:403980000C9D394303D10299FFF762FFBFE0F917E61778184840A11971400026049688420BDD21003C000F0011001A000B00019902980291012101900491E0172118414019
:4039C00001200390A14208D00293019B01921A0001235B4264427F4203932E68002F3FD14C4B04991B6800291BD09B7E3700002B13D10199029801F0CFFA88E03800FFF739
:403A00003BFF002808D1019B0298991B414BC9191B681B6E5B6898470137BB1BA342EDDD1BE0997E3700002914D11B6E02991B68019898476BE03800FFF71EFF002808D17B
:403A4000019B0299981B334BC0191B681B6E5B6898470137BB1B9C42EDDA013F2F6056E0E30F1B195B10002F00DA5B42294A1268927E002A19D11D00019E019BF31A9C4214
:403A800045DB2100280005F0A1FC029B049AC018204B31001B681B6E5B68002A01D10100300098470136ED19E7E7039A013201D1A6192E60019E0593019B2868F31A9C4239
:403AC0001CDB039B18182860FFF7D6FE002810D12100059805F07AFC029B049AC0180D4B31001B681B6E5B68002A01D1010030009847059B0136DB190593DDE7039B01330D
:403B000001D104192C602B68039A9B1A2B6007B0F0BDC046D8AD0308F0B58BB00593634B03901B6804921E7E0F00012E05D1109B0093059BFFF71CFFB5E0039B049A991AAB
:403B4000059BF81A0B00034300D1ACE00024013EA14201DA49420134002802DA022340421C43814204DA04231C430B00010018004B108002181805F029FC10254C4983112A
:403B80009C46800622315B00000F5B5E2D1A6B43102D05D0624601325200525E50431B180F220833DD171540ED182D11630702D58023DB005D1BE30702D580231B015D1B56
:403BC000A30702D580235B015D1B8023DB00ED182800FFF7C5FE704304002800FFF792FE4643002C05DA80208000041BA412644203E080239B00E418A412002E05DA802055
:403C00008000861BB612764203E080239B00F618B612002C02DD621C521005E0E20F1219013CE00F521004196410002E02DD731C5B1005E0F30F9B19013EF00F5B108619F7
:403C40006946898992B206A894468A1802809DB2BAB2531943806B467610B6B2921BC2801A8A9B8AA4B29E1BEB18C3810023091B141B624481800481828146811A00042151
:403C800000F062F8094C23685B7E002B03D139000398FFF7DDFD23685B7E002B03D105990498FFF7D5FD0BB0F0BDC046D8AD0308ECDE08101FB50024039403AC0094FFF751
:403CC0002BFF1FBDF7B51F000B4B00901B68002001911600DD6C1C6D02F018FE00280AD001990098E319AA1961182818FFF7E2FF02F05CFDF2E7F7BDD8AD0308F7B51149F7
:403D00000A6801910B2A1BDC002A01DC002311E0019B00251C1D5300E41813005E1EB446AE1EA75F874205DB634667533500002BF4D1EBE701995B00CB18013298800A6004
:403D4000F7BDC046180C0408F0B587B00292002204936E4B039001936D4B059105998A420DDA0398910041180220095E8B4200DD0B000198884200DA01910132EEE7654A68
:403D80001268516900290ED006200A5E0498121A0198904200DD019202228A5E0499521A934200DA1300049A9B180093009B049A9C1A019BA34200DAA6E00025564B039EA5
:403DC0001D60059B9D425CDA059B00215F1EBD4200DA691C0223F25E039B8900591802200B5E94461800A24239D1A34203D000212A008C461EE00023F75E029BFF1800235B
:403E0000C85E029B3A00C018424B1B681B6E1B68874221DA0200009938001EE0002A0CD0013A0398910041180220095EA14206D101218C446745F1DC20E03A00F1E7091B52
:403E40001B1B0022B05E59404BD4029BC0180200304B1B681B6E1B68009998470EE0A3420CD002DBA2423FDD02E0A24206DB01E0A34203DC9A423DDCA2421FDD013504360E
:403E80009FE7002420002500234B1A68954212DA04336A00D65E002C08D0029B00999A1918181C4B1B681B6E1B689847012330005C40ED18E8E7009B013376E7A342DDDB0C
:403EC0000023F75E0023C95E63466246C91BE31A4B43811A4810002B13DDC01805F076FAC019FFF70BFFC9E79A42E9DDA342C5DCA242C3DB0027CF5F9C460020315E1000CC
:403F0000E2E70138181AE9E707B0F0BD01C0FFFFFF3F0000D8AD0308180C0408044B10B51A68002A00D1186000F036F810BDC046340C0408F8B5084F06683B6804001B687A
:403F4000300098473B6805005B6830009847301820602800F8BDC0467C5A040870B506000D000024002D08D0054B30001B68013D5B68984736182418F4E7200070BDC0462F
:403F80007C5A04080078704701207047012070470170012070470000034B10B51B68002B00D0984710BDC046940C04080200FF231100000A194010B51840120C401813408A
:403FC000C0188030FF30024905F000FA10BDC046FD020000002800D000487047FFFFFF0001207047F7B58068C46A856B624307245218D2080192026A0C409200002D18D07A
:4040000080212141CCB2A446C94301248218151F019E2D68AD192F783E000E40234201D066463E436400043A2E70E4B29042EED117E001210D00A540ECB2A446ED438218C2
:40404000141F019E2468A41927783E002E400B4201D066463E434900043A2670C9B29042EED1F7BD70B5072584680D40E36AA06B5A43236A5218D2089B00002810D080211E
:4040800029410020CDB20121E318043B1E68B65C2E4200D008434900C9B29C42F5D10EE001210E00AE40E318F5B2043B1E68B65C2E4200D008434900C9B29C42F5D170BD6B
:4040C000F8B50D0016000400FFF7CCFF070023699B6898473B003200434029002000FFF781FFF8BDF0B580688BB00090066AC06A5B1A42435F1CA44B5218D2081B680190A4
:40410000039200981A7C806BD20779D50722082311405B1A002839D0F8321000DD1B0841AA40C4B21040C2B238009F4200DD1800381A009D0190B00028189F4200DB221C48
:40414000D3B29C46FF25031F039A1B689B183A00002905D064461A7862401A70019A0133072A05DD1E78083AF6431E700133F7E7002A06D00824A21A2C0094401E78664068
:404180001E70009B04388342DDD1FAE0FF221000DD1B88402A41C4B21040C2B238009F4200DD1800381A009D0190B00028189F4200DB221CD3B29C46FF25031F039A1B6872
:4041C0009B183A00002905D064461A7862401A70019A0133072A05DD1E78083AF6431E700133F7E7002A06D00824A21A2C0014411E7866401E70009B04388342DDD1C0E0BC
:404200000722DB6B11401B68FF22019308230491591A130000285AD00498CC1B0341A2401A40D8B2D3B23A008F4200DD0A00BA1A09928F4200DB031CDAB2DB435BB208935E
:40424000012307920293013E009AB300D458039B3D00E418049B002B0BD02278089B019902981340014201D0079B1343099D23700134072D14DD029A0199444B11404A1ED7
:4042800091412B400593059A414B49421B68D2102000C9B206929847069BE418059BED1A002D0DD0082321785D1BF733AB400A000198029D9A43284201D00B43DAB2227097
:4042C000029B5B00DBB20293002EBCD159E00498CC1B834022411A40D8B2D3B23A008F4200DD0A00BA1A09928F4200DB031CDAB2DB435BB20893012307920293013E009AF5
:40430000B300D458039B3D00E418049B002B0BD02278089B019902981340014201D0079B1343099D23700134072D14DD029A0199164B11404A1E91412B400593059A144B9C
:4043400049421B68D2102000C9B206929847069BE418059BED1A002D0DD0082321785D1BF7332B410A000198029D9A43284201D00B43DAB22270029B5B00DBB20293002E0D
:40438000BCD10BB0F0BDC046D8AD0308F8FF000000AE0308F8B505000E0014001F00069B9C4207DC22003B0031002800FFF79AFE0134F4E7F8BD002382680B804B80D36AC4
:4043C000013B8B80136B013BCB80704700B58368481E0D2818D804F0D3FF090B0D0F17171711131A1A070707002011E0586A0FE0986A0DE0D86A0BE0186B09E0186A07E034
:4044000001201B6A984003E00120404200E0012000BD000009390020062902D8014B8900C858704758DF081010B501290FD1094B1B68587CFEF726FF03699B68984701F081
:404440003CFA054B012803D0044B082800D00023180010BDD8AD0308DCDF081050E0081010B5002206218069FDF734F910BD10B5002205218069FDF72DF910BD73B50400CA
:404480000E00150000210822684605F0F7FB6A460321A06900960195FDF71CF973BD0000F7B51D000F4B14001B6806001A7C0F00D20708D5A54213DB220039003000FFF746
:4044C000FFFD0134F6E7DB6B1B680193AC4207DC2200019B39003000FFF784FD0134F5E7F7BDC046D8AD0308F0B591B00193179B0390581E06910592072801D900F05EFCD1
:4045000004F048FF230021005C041F005C045C045C0408000723069A1340802211001941C9B29A40099101219940D3B2199A0A939446019BC9B263440293059B079108936C
:40454000FBE2059B50E2059BB0E11A9A069B9446634409930723099A134080221A41D2B20A9201229A40D3B20C93059B0793059A079B9B1A169A9A4201DC00F01FFC1B9B31
:40458000BE4C5B680693039B9B680293D96A1A6A079B5943099BC918CB08049303232168087C1840022800D1A1E0984200D10FE1012800D10CE11B9B06981B6808938342AB
:4045C00010D1CB6B089A1D681A60099A019B09999B18013B079A0398FFF784FD2368DB6B1D6043E1029B92009B6B002B3ED00127029B9E1808990FAA394011700699049B93
:4046000039405170321F12680A99D218019B1A989C46199B0B936346002B20D08025054113780D930B9B1C782C40651EAC410FAD2D5D0D9C8C43002D01D00D9C0C43013091
:404640001470082803D10B9801300B900020490801D10132803101235B429C44DBE7029B7A00043ED7B2B342C4D1FFE00127029B9E1808990FAA394011700699049B3940E8
:404680005170321F11681A98C918019B0C9A9C46199B0B936346002B22D0802505410B780D930B9B1C782C40651EAC410FAD2D5D0D9C9443002D01D00D9C144301300C700B
:4046C000082803D10B9801300B9000205200D2B2002A01D10131013201235B429C44D9E7029B7A00043ED7B2B342C2D1BEE0029B92009B6B002B34D0029B9A180123089315
:40470000089B06990A9819400B91111F0968049B019D1A9C199EC918002D19D08023234137783B4209D00B781F009C460B9B8743002B01D0674607430F700134082C01D1B1
:4047400000240136400801D101318030013DE3E7089B043A5900CBB20893029B9342CFD184E0029B9A18012308930899069B019D0B40111F08680B93049B0C991A9C199EEA
:40478000C018002D1BD08023234137783B4209D003781F009C460B9B8F43002B01D067460F4307700134082C01D1002401364900C9B2002901D101300131013DE1E7089B36
:4047C000043A5900CBB20893029B9342CDD14DE0029B92009B6B002B23D0029B9A18111F0968049B0A9C019D1A98199EC918002D12D08023034137783B4202D00F7867403B
:404800000F700130082801D100200136640801D101318034013DEAE7029B043A9342DED124E0029B9A18111F0868049B0C99019D1A9C199EC018002D14D0802323413778FC
:404840003B4202D007784F4007700134082C01D1002401364900C9B2002901D101300131013DE8E7029B043A9342DCD1189A199B944663441993079B013377E6D8AD0308EC
:404880001A9A199B944603221C78069B63440493C34B1B681B7C134010D0022B4DD0189A199B944663441993029B01330293059A029B9B1A169A9A42E2DC7FE21B9B1A9D77
:4048C000199E0499002B23D003235A1B5200DB18981ABA3303412340D3401B9A9B009B580398029A01354F1CFFF77CFB042D02D1002574780136019B049A39009B189F4232
:40490000E2D1CCE7019B049A39009B189F42C6D003235A1B5200DB18981ABA3303412340D3400398029A01354F1CFFF75BFB042DE8D1747800250136E4E71B9B1A9D019E0E
:40494000199F002B27D0019B049A991803235A1B5200DB18981ABA3303412340891BD34006D01B9A9B009B580398029AFFF73AFB0135042D02D100257C780137013E002E22
:40498000E1D18CE70135042D02D100257C780137013E002E83D0019B049A991803235A1B5200DB18981ABA3303412340891BD340E8D0029A0398FFF715FBE3E71A9A199B98
:4049C000944603221F78069B63440493744B1B681B7C134010D0022B4DD0189A199B944663441993029B01330293059A029B9B1A169A9A42E2DCE1E11B9B1A9C199D049937
:404A0000002B23D001231A1B9200CE180333981AEC3303413B40D3401B9A9B009B580398029A0134FFF7DEFA022C02D100246F780135019B049A31009B189E42E2D1CCE78B
:404A4000049B019A31009B189E42C6D001231A1B9200CE180333981AEC3303413B40D3400398029A0134FFF7BDFA022CE8D16F7800240135E4E71B9B1A9C019D199E002B00
:404A800027D0019B049A991801231A1B92000333981AEC3303413B40491BD34006D01B9A9B009B580398029AFFF79CFA0134022C02D1002477780136013D002DE1D18CE700
:404AC0000134022C02D1002477780136013D002D83D0049B019A991801231A1B92000333981AEC3303413B40491BD340E8D0029A0398FFF777FAE3E7039B08989B68019370
:404B0000019A1B6AD16A4143069809180320C9080491234909680B91097C014014D0022900D1ABE0189A199B944663441993089B01330893029B63440293059A089B9B1ACF
:404B4000169A9A42D8DC39E1019A1B98916B9B0000284ED0002925D00124D318191F04980968199D09180998029A954211D02E780F781B9AB600B2583E008643224201D093
:404B80003E0006430E70400801D1013180300135EAE7019A6400043BE4B29A42DED1C1E7D8AD03080124019AD318191F0868049A199D07998018029A954213D02E780778FC
:404BC0001B9AB600B2583E008E43224201D03E000E434900C9B20670002901D1013001310135E8E7019A6400043BE4B29A42DCD198E7019A0124D318002938D0191F09686F
:404C0000049A199D09988918029A95420ED00F782A783E008643224201D03E0006430E70400801D1013180300135EDE7019A6400043BE4B29A42E1D174E707782A783E0001
:404C40008E43224201D03E000E434900C9B20670002901D1013001310135029A9542ECD1019A6400043BE4B29A4200D15AE7191F0868049A199D80180799EEE7019A9B00A0
:404C8000916B1B9A002A4FD0019A0124D318002937D0191F0968049A199D09988918029A954213D02E78002E0AD00F781B9AB600B2583E008643224201D03E0006430E709F
:404CC000400801D1013180300135E8E7019A6400043BE4B29A42DCD124E72E78002E17D14900C9B2002901D1013001310135029A9542F2D1019A6400043BE4B29A4200D180
:404D000010E7191F0868049A199D80180799EEE707781B9AB600B2583E008E43224201D03E000E430670DBE7019A0124D318002934D0191F0968049A199D0A988918029AC0
:404D4000954210D02A78002A07D00F783E008643144201D03E0006430E70400801D1013180300135EBE7019A6400043BE4B29A42DFD1D7E62A78002A17D14900C9B200295D
:404D800001D1013001310135029A9542F2D1019A6400043BE4B29A4200D1C3E6191F0868049A199D80180799EEE707783E008E43144201D03E000E430670DEE711B0F0BD32
:404DC00070B505680400002D0AD13C20FDF7FAFD2060002804D0044B3C221B682900984720684342584170BD00AE030870B504000830FFF7E5FF002205000121A069FCF70E
:404E000069FC284370BD73B504000D00160000210822684604F032FF20000830FFF7D0FFA368002B0CD05A6B002A00D15D635D629E626A460721A06900950196FCF74AFC54
:404E400073BD70B5050008300C001600FFF7B8FFAB68002B02D0DC621E635C6370BDF7B50500002708300E000197FFF7A9FFAC68BC4213D02B699B68984700F0E5FC3B004B
:404E80002062F258E2500433202BFAD1E36A01AA63630221A8690196FCF71CFCF7BD70B5040008300D00FFF78BFFA368002B01D02A689A6370BD000070B5084B1B681A7C1D
:404EC00011004140490705D59C6BD96B25680E6826600D601874100070BDC046D8AD030810B5024B1B689B68984710BDE8AD030870B5144B05001B680A000A20195E9142E8
:404F00001EDC0E20195E8A421ADC0820195EA94216DC0C20195E8D4212DC5C7C187C0A49A400C00705D508592900C368DB69984706E00859DB6BC1681B688C692900A0471A
:404F400070BDC046D8AD0308845A040870B5104B0D001C680A21635EAB4217DC0E21635E9D4213DC0823E15E814200DA01000C20235E934200DD1300994207DC627C054886
:404F800092001058C26894682A00A04770BDC046D8AD0308845A040870B5104B15001C680822A35E834218DC0C22A35E984214DC0A23E25E8A4200DA0A000E21635EAB4223
:404FC00000DD2B009A4208DC617C054C89000D59E968CC6801002800A04770BDD8AD0308845A040873B51E00114B0D001C680823E15E814200DA01000C20235E934200DDF6
:4050000013008B4213DB0A20225EAA4200DA2A000E20255EB54200DD3500AA4207DC607C044C80000059C46800952469A04773BDD8AD0308845A0408F0B517006E4A91B0E6
:405040001268069308900C001C9B002A10D01B9B05931A9B0493199B0393189B0293179B0193169B00931568069B3A00A847C1E016991798014301294FD1604A069D106869
:405080000A21425E111B002909DD6D1A002D00DCB0E0199E71431A9E71181A9100E02200069964180E26815F013C641A002C03DD2D1B002D00DC9DE008990C26845FC91915
:4050C0000139091B002900DD7F1A08990826845FC91AA1420CDA641A1B199C46DE101A9B3F1B9E191A9607266346B44309193340002F7FDD407C424C800000591B9EC46868
:4051000004931A9B05960393199B00950293189B019364683B00A0476CE00823160018990A925B1A0E930A9B069A934262DA179BE3180C93013B0D93304B1B680A215A5E90
:405140000D998A424CDC0E229B5E9C4248DC00251A9B09950B93089B0793099BBB423FDA002D04D10B9B08351E7801330B9333000E9A1899134132008A40D6B2DAB26D1A99
:40518000002A05D102211D4A1268127C0A421ED11A4A1268D26B11680F911B99002905D0FF210B401B999B005B5801E0FF210B401360169B21005A1E079B0798D2180D9BF3
:4051C000FFF710FF0D4B0F9A1B68DB6B1A60169A099B944601330993079B63440793BCE7199A0A9B944601330A931A9B0C9C63441A9398E711B0F0BD405A0408D8AD03080B
:40520000845A0408F0B593B008937E4B06001B680C0006921A9D1C9F002B0ED01D9A049705921B9A02950392199A0192189A00921D68069A089BA847E1E0189A19990A4313
:40524000012A6DD1704B19680A228B5E089A9C461B1B002B07DDD21A002A00DCCFE01B984343FF1800E0A446089BE4180E200B5E013CE41A002C03DD121B002A00DCBEE0A2
:40528000069B0C24085FF318013B1B1A002B02DD0698C31A06930823C85E0023864228DA069C831BE41A0694082D1FD009DC022D0FD0042D15D0012D1BD1D8103F18072059
:4052C0000AE0182D11D0202D0FD0102D11D15B000CE098103F1803201C0084433619034007E058103F180120F6E79B00FF18060000230698002800DC81E0497C434889001A
:4053000008581D9CC16804931B9B009202930594039701954C68069B62463100A0476EE00822521B109207930C930C9B089A934265DA199BE3180E93013B0F93324B1B688E
:405340000A215A5E0F998A4252DC0E229B5E9C424EDC00230D9709960A930B930B9B069A934245DA0A9B002B07D10D9B1B7807930D9B01330D9308230A93079B109A13413B
:40538000079AAA40D2B207920A9A521B0A92DAB2002A05D102211C4A1268127C0A421ED1194A1268D26B116811911D99002905D0FF210B401D999B005B5801E0FF210B409C
:4053C0001360189B21005A1E099B0998D2180F9BFFF708FE0C4B119A1B68DB6B1A60189A0B9B944601330B93099B63440993B5E70C9B0E9C01330C931B9BFF1895E713B01D
:40540000F0BDC046405A0408D8AD0308845A040810B5054B054A19684B7C08319B009858C3681B6B984710BDD8AD0308845A040807B5FFF7EDFF00F0B7F800283AD1FDF7EE
:4054400021FF0190002807D100F006F91A4A1B4B12689A420ED12CE0C3680C215B6A01A8984703000120002B24D0019898470028EAD01FE00020FDF705FF0190002818D087
:40548000002001F0B7FE0420FFF72AFD00210C4B08001A00FFF7A6FD0020FFF721FD019B0E21DB6801A85B6A9847031E01D00198984700200EBDC046F80B0408785634FFB8
:4054C000FF3F000010B5054B054A1B685B7C9B009B581B691B68984710BDC046D8AD0308845A040810B5054B054A1B685B7C9B009B581B695B68984710BDC046D8AD03081A
:40550000845A0408044B1B681A7C520701D59B6B00E0DB6B18607047D8AD0308054B10B51B681A6B824204D01863FFF7CBFFFFF7E9FF10BDD8AD0308044B1B681A7C520713
:4055400001D5DB6B00E09B6B18607047D8AD0308054B10B51B685A6B824204D05863FFF7B1FFFFF7E9FF10BDD8AD030810B5024B1B685B68984710BDE8AD030810B5024B23
:405580001B681B68984710BDE8AD030810B5044C2068FDF73DF90023024A2360136010BD985A04089C0C040870B500240A4D2B68A3420FD1094B18688000FDF703FA286029
:4055C000A04206D00648074B04300360FDF7BEFD00E00124200070BD985A0408ECAD03089C0C04088D550810F7B5051E28D08768381E25D0134C2068002821D080232A6835
:405600005B0000209A421BDC0F4B00921B689A4200DD00930026009B9E420ADA2268B300D218F8580192FFF74DFF019B01361860F1E7064B1B68002B01D02800984720680E
:40564000FEBDC046985A0408ECAD03089C0C040810B5FFF7C9FF10BDF7B500F043F900240090009B9C422EDA2000FDF70BFE002827D0154E200033685A7C5C74019200F033
:4056800060F8082804DD6A46336812795A7418E00E4AA300D2580E4B12699A42F3D0200000F054F800250700BD42ECDAFF202840FFF718FFE9B20200200000F0EDFB0135A1
:4056C000F2E70134CDE7F7BDD8AD0308845A0408C4DF0810024B1B689B6B18687047C046D8AD0308024B1B68DB6B18687047C046D8AD030810B50C00FDF7C4FD002803D0F8
:40570000C2682100926A904710BD002310B5984202DCFFF7EFFF0300180010BD10B501000020FFF7E7FFC343DB17184010BD10B50121FFF7EAFF10BD10B50221FFF7E5FFDE
:4057400010BD10B50821FFF7E0FF10BD10B50921FFF7DBFF10BD10B50E21FFF7D6FF10BD10B5034B1B68587CFFF7E1FF10BDC046D8AD030810B5034B1B68587CFFF7DCFFD6
:4057800010BDC046D8AD030810B5034B1B68587CFFF7DCFF10BDC046D8AD030810B5034B1B68587CFFF7D7FF10BDC046D8AD0308044B800010B5C0580821C3689B6A98476B
:4057C00010BDC046845A040810B5FDF75BFD002803D0C2680221D26A904710BD10B5034B1B68587CFFF7F0FF10BDC046D8AD0308024B8000C3581B6958687047845A040834
:40580000024B8000C3581B6918687047845A040810B50120FFF782FF10BD10B50220FFF77DFF10BD014B03C37047C046A80C0408014B18687047C046A80C0408014B5868A7
:405840007047C046A80C04080023984233D0020001339A432FD003220100013391432AD00100053399431300002924D002000C339A430B3B002A1ED002001B339A431A3B2E
:40588000002A18D00200FA339A43F73B002A12D0420A0833002A0ED0020B0CD0C20B0AD0020C08D0820C0233002A04D0000E0633002800D008331800704710B5FFF7C4FFFF
:4058C000030001280DD0821E0820062A09D9073A0018072A05D900200F22113B9A424041400110BD10B50020FDF7CCFC431E984110BD0000F7B5154F154E3B6804005B7CBC
:405900000D009B0098596946C3681B6B98476B4600229B5E0020A34217DC6B4604229B5E9C4212DC6B4602229B5EAB420DDC6B4606229B5E9D4208DC3B682A005B7C210031
:405940009B009859C3685B699847FEBDD8AD0308845A040810B5C18804880423C25E43886118C91A9B181B1B8180C38010BD0000F7B5082205000C006846002104F07EF975
:40598000684601F09BF9FFF7EBFEFFF7F3FE6B4606229B5E0138984201DA6B46D8806A460021525E21682B688A182A606A460620105EC31A23600A4B0022995E2A6802278F
:4059C000DE5F8A18921B2A6006229B5E22689A186B4602255B5FC31AD31A5B182360F7BD905A04081FB504000022835E01A900930222835E01930422835E02930622835EE2
:405A000068460393FFF7B4FF03A902A8FFF7B0FF009B2380039B6380029BA380019BE3801FBD0000F0B5050093B00B905818551901380A910D900AA90BA8013D1C000192FA
:405A40000C95FFF795FF0DA90CA8FFF791FF189B012B00D08CE1199B012B00D088E1C14B1A680C23D15E0C9B994201DA5B1AE41A0823D15E0B9B994207DD1B98CB1A584328
:405A80001C9D0B9128181C90E41A0A21535E0D998B4203DD5B1A0199CB1A01930E23D35E0A9A0027934220DAD71A019BDB1B01931A9B022B09D0042B0DD0012B15D11C994F
:405AC000FB10CB181C9307210AE01C99BB10CB181C93032104E01C997B10CB1801211C933B008B43D31A0A930F40019B002B00DCACE1002C00DCA9E10A9B03930B9B0293CF
:405B0000E31809931A9B581E072800D91CE103F041FC0800AA001B01DF001B011B011B010A011D9B5B680693039BDB1B05938D4B1A680323117C0B40012B57D0002B07D075
:405B4000022B00D000E11C9B019D3C00049336E03C001D9B019D1B6807931C9B0493059B019A81499A1A7F4B52191B685B7C9B0058588021C36821419B690893049B1B787A
:405B80009C466646069B314200D1079B0299089E0134B047082C03D10024049B01330493013D002DDBD1CFE00134082C03D10024049B01330493013D002D00D1C4E08021BB
:405BC0002141059B019A9A1A049B52191B781942EAD0644B64491B685B7C9B0058580299C3689B691E00069BB047DDE7537C5E4A9B009B583C001B699B689847019B089082
:405C000004931C9B0693059B019A9D1A80222241049BEB180793069B1B781A4216D0514D514E2B68079A5B7C02999B009859C3685B69984702002B6802995B7C9B00985904
:405C4000089B5340C2689669079AB0470134082C03D10024069B01330693049B013B0493002BD0D170E0414B0EAA13CB13C21B68022013601C9B3C001B780493039BDB1B10
:405C8000059303F011FA019D1C9E069003231A1B5200DB18991ABA330B41049902980B40D34012AA9B00D318103B1A680199059BD2B2591A4919069B01349847042C03D1E4
:405CC0000024737801360493013D002DDED13BE01C9B04201B783C000493039BDB1B059303F0E2F9019D1C9E069001230422F0211B1B9B00D21A11410A00049902980A4074
:405D0000DA400199059BD2B2591A4919069B01349847022C03D10024737801360493013D002DE2D110E0082003F0BEF906001C9D019C039B01992A78591A09190298013CA0
:405D4000B0470135002CF4D11B9A1C9B944663441C93029B099A01330293934200D0D1E674E0C046D8AD0308845A0408B4DF0810002708233E001A9A9B1A08930B9B0293B6
:405D8000A74263DA199A029B944663440693013B07932F4B1B6808215A5E07998A424CDC0C229B5E029A9A4247DC00250A9B049503931C9B0593049B019A93423DDA002DAE
:405DC00004D1059B08351E78013305933300089A1A99134132008A40D6B2DAB26D1A002A04D11B4A1268127C92071ED4184A1268D26B116809911D99002905D0FF210B40DA
:405E00001D999B005B5801E0FF210B4013600123189A0298991A039B079AC918FFF7E2F80B4B099A1B68DB6B1A60049B189A01330493039B9B1A0393BDE71B9A1C9B944661
:405E400063441C93069B0137029399E713B0F0BDD8AD03080E4B10B51C001A680D49527C92005058002809D0C368002B02D01B68042B01D00068F5E7FDF742FA00222368F7
:405E8000DA651A0008325A61FFF7C2FA10BDC046D8AD0308845A040837B50C001500FDF7F1F90190002801D101200BE0C36810215B6A01A89847031EF6D001982A0021009F
:405EC000984700203EBD37B50C001500FDF7DAF90190002801D101200BE0C3680B215B6A01A89847031EF6D001982A002100984700203EBD13B50C00FDF7C4F90190002896
:405F000001D101200AE0C36809215B6A01A89847031EF6D0019821009847002016BD37B50C001500FDF7AEF90190002801D101200BE0C3680A215B6A01A89847031EF6D0A6
:405F400001982A002100984700203EBD10B5074C2368186BFFF7B6FAFFF7D4FA2368586BFFF7B0FAFFF7E8FA10BDC046D8AD030870B50024134B144D1C60144B14481C60CF
:405F8000144B04701C60144B44601C60134B84601C60134B21001C60124B18221C600C302B689847104B21001C60104B08221C600F482B6898472B68082221000D489847C5
:405FC00070BDC046C85A040800AE0308B05A0408B00C0408D05A0408D85A0408A05A0408C05A0408CC5A0408AC5A0408A45A0408E45A0408DC5A0408F0B504000D00160063
:4060000085B0002C50D02000FCF718FC0223876A010001901F4241D002AC002E04D03200200000F024FF02E0230005C905C321002800FCF7BFFF002830D00122019B1742B4
:406040001FD1002E09D05A887188131C08B212B2824200DA0B1C1BB201E002229B5E0222A95E06202A5E8B4205DD0221635E9A4214DB013B03E00621635E9A420EDDEB80A1
:406080000CE0DF69002F09D0380022002900FFF7B3FF3800FCF7C8FB076AF3E7019B01A81C6AFCF7DBFBACE705B0F0BDF0B504000F00002687B00192002C39D02000FCF7C7
:4060C000BDFB0223856A010003901D422AD0019B04AC002B04D01A00200000F0C8FE02E0230005C905C321003800FCF763FF002818D001231D4204D1A388012601333B80BA
:4061000010E0039BDD69002D0CD0220039002800FFF7CCFF002800D001262800FCF784FB056AF0E7039B03A81C6AFCF797FBC3E7300007B0F0BDF0B504000E00170085B0AA
:40614000002C34D02000FCF779FB0223856A010001901D4225D002AC002F04D03A00200000F085FE02E0230005C905C321003000FCF720FF002814D001231D4203D12388E4
:40618000013BB3800DE0019BDD69002D09D0280022003100FFF7CFFF2800FCF745FB056AF3E7019B01A81C6AFCF758FBC8E705B0F0BD0000F7B506000D0002272800FCF793
:4061C0003DFB846A010001903C4004D101A8FCF745FB230013E0300000F02BFE019B01A89C69002C07D1FCF739FB064B1868401B4342434103E0FCF731FB2500DEE71800AD
:40620000FEBDC046A45A0408F0B5040085B00D1E4DD0FCF713FB00230190036285612800FCF70CFBC6690290002E05D1C46101A8FCF714FB02A838E0019B30009D6A0827F2
:40624000FCF7FCFA3D4003900ED1836A3B420BD0019B01A81E62029BDC61FCF7FFFA02A8FCF7FCFA03A820E002A8FCF7F7FA03A8FCF7F4FA3000FCF7D7FA08270390039BCA
:406280001E6A002E01D11C620EE03000FCF7CCFA002D07D1836A3B4204D0039B1C62019B1E6201E00390EAE701A8FCF7D7FA05B0F0BD030010B5080002215A5E0021595EEF
:4062C000FCF756FE10BD0000114B30B51D6885B0696C0400002916D0082202A803F0A8FC0C4B1868002800D1A86CFCF7A7FA02A90190FFF7DEFF01A8FCF7B0FA02A82100A4
:4063000000F097FD02A802F0F7FE05B030BDC046D8AD0308A05A04081FB5104B1B681A0054321278002A02D00D48143012E0986CFCF784FA02AC2300019006C806C301A890
:40634000FCF78CFA074B1968002902D02000FFF731FF2000FFF7B8FF1FBDC046D8AD0308B00C0408A05A040813B5041E22D0FCF765FA836A01909B0719D5406A002808D09D
:406380000D4B1B689C4204D000F0B6FF0022019B5A62200000F044FC0400002C07D02000FFF7E2FF2000FCF73FFA046AF5E701A8FCF754FA13BDC046D45A0408030000222E
:4063C000815E04201A5E0020914207DC02215A5E0621595ED00FCB179142584170470000F0B585B004000E001500FCF71DFA876A0190BB0730D53000FFF7E0FF00282BD033
:40640000164B3B40012B27D02000FCF717FA02AC020001903100200000F029FD2000FFF7CDFF002815D0019B0D4918009A6A08300A4204D022000100FCF769FD09E042CCC9
:4064400042C02A439A62074A138801331380FDF7A3FD01A8FCF702FA05B0F0BD0108000020400000B45A040810B52022FFF7B8FF10BD7FB504000E001500002828D0FCF7FE
:40648000DDF9836A020001909B0703D401A8FCF7E5F91DE0310002A800F0E9FC0028F5D001A8FCF7DBF920002A0002A9FFF798FF200000F0B5FB0400002C09D020002A00F4
:4064C00002A9FFF7D6FF2000FCF7AEF9046AF3E77FBD0000F0B587B007000D0001921C00002932D00800FCF7A9F9866A02000390B30727D5390004A800F0B9FC002821D0A3
:40650000134B1E40012E07D1039923000A6A04A88969FFF7DFFF04E0220004A92800FFF75FFF039BDD69002D0CD0019B9D4209D02800220004A9FFF79CFF2800FCF774F973
:40654000056AF0E703A8FCF789F907B0F0BDC0460108000010B52023FFF7BCFF10BD1FB500916946019000F011FB05B000BD00234B800B80028883889B1A8B80C3884288C6
:406580009B1ACB8070470000F0B5050087B00F00002835D0FCF752F9866A0190B3072CD504AC230006C806C3F30302D52800FFF7DBFE002F0CD00822390002A803F038FB21
:4065C00002A90198FFF775FE02A9200000F031FC29002000FFF7EEFD00280ED0094B1E40012E06D1019B20001A6A9969FFF7B2FF03E021002800FFF737FF01A8FCF72EF91A
:4066000007B0F0BD0108000010B50021FFF7BCFF10BD000070B50B4C051E23689E6C01D1094A15689D64FEF7F3FE2800FCF7FCF823680021425EDA640221425E30001A65C1
:4066400070BDC046D8AD0308B85A0408F0B585B00193494B05001F680A9B0E000092002B27D1464B1B88002B28D0454B1B685A1C012A23D90A930A98FCF7E0F8039000227D
:40668000835E0222815E009AED187618002A04D10424025FD21A531C0093019B002B04D10622835E5B1A0133019303A8FCF7D6F804E00A9B0133DED100230A930D982C30D8
:4066C000FCF766FA041E53D02C4A0B9B1F43138801331380FCF7B2F8009B02900580ED18019B4680F6180C9B826A0361254B013D3B401343013E83628580C68002A8FCF7DC
:40670000ADF8214B1868002809D0FCF78DF805002000FCF789F86B6943616C6100E01C600A992000FFF770FDBB0602D52000FFF771FFFB0703D5154A1368013313607B06F5
:4067400002D5200000F07AFA02252F420CD02000FCF774F8836A02902B43836202A8FCF77DF82000FFF750FF01212000FFF7F7FE200005B0F0BDC046C05A04089C5A0408A5
:40678000A45A04089F3F3F00B85A0408D85A04081FB5089C0394079C0294069C019400240094FFF753FF04B010BD00000020F0B5534E85B0336854331B78834200D19DE0F3
:4067C000504A136A1500012B02DD013B136295E002AC2100D36914320133936081CA81C1002B03D1AB892380EB890DE02B8B01331BB22380EA8A628010216A5E9A4204DA9D
:40680000AB8923806B8B013363800223E25E12216B5E9A4204DD2B6A0020013B2B626DE03368986CFCF70AF80023E25E0C216B5E01909A4217D16B8AE3802B8AA38033687E
:406840009A6C002A0AD01000FBF7EEFF070000222100006AFFF7D0FBBA69F2E7019B2100D869FFF7C9FB2388A38033689A6C002A0CD01000FBF7D8FF002207002100006AF4
:40688000FFF714FC0028EED1BA69F0E7019B2100D869FFF70BFC0028E5D11022AB5E0021625EA3809A4208DD2B002200143303CA03C301A8FBF7D2FFA2E733689A6C002A31
:4068C0000AD01000FBF7B0FF060000222100006AFFF731FCB269F2E7019B2100D869FFF72AFC01A8FBF7BAFF074BEA699A4292DC14350CCC0CC5FFF70FFD012005B0F0BD6F
:40690000D8AD0308B00C0408204E0000F0B53B4D89B02A680700130054331B78002B03D1FFF7FAFC012066E00120354E336A34000133336283425EDC906CFBF77FFF012346
:406940005B42F3612F4B02901B78002B02D004AB083005E00223826A1A4001920AD004AB06C806C304AE002F0CD03900300000F060FA07E0336A02A8013B3362FBF76EFFD2
:40698000019838E02B68204F596C02A8002918D0029B082206A8039303F04AF93B68002B06D003A8FBF75AFF3868FBF747FF039006A90398FFF77DFC300006A900F039FAA3
:4069C00003A8FBF74BFF3968002904D03000FFF7F1FB002806D02B683000996CFFF7EAFB002803D1236A013B236204E00C340CCE0CC4FFF7DBFE09B0F0BDC046D8AD03087C
:406A0000B00C0408BD5A0408A05A04080122024B1B6854331A707047D8AD030810B5040023684068172B0FD007DC0E2B0ED0142B12D1E16800F0CEF80EE0222B0AD0282B7A
:406A40000AD1FFF7E1FD09E0E06007E0210000F04BF903E0024B00E00023E36010BDC046785634FF036810B504000E2B02D00F2B08D010E0C3685A68012A0FD11868FDF70B
:406A80004DFA0BE0064B1868064B984203D0FCF7B7FAFCF74BFB2000FFF7C0FF10BDC046C45A0408785634FF30B51B4C85B0207800282ED1194BA0601860194B01001B6821
:406AC0005864184B1880184B188004230293174B019302230093164B1A00FFF759FE154B154A164D1A602860FFF78EFD144800F069F8144800F066F82868FFF78BFDFFF7B2
:406B000085FF0123200023700F4B24306362FCF71DFB05B030BDC046B00C0408B85A0408D8AD0308B45A04089C5A0408656A0810FF3F0000C45A0408785634FFA45A0408E8
:406B4000E45A0408DC5A0408715F081010B500F06EF80023984202D0FBF766FEC369180010BD70B50500FFF7F1FF0400002C0AD0AC4207D02000FBF757FE036A9D4202D0EC
:406B80001C00F3E70024200070BD000070B50C4C060023680D00132B11DCFBF745FE02696E60002A08D0236828000133236090472368013B236002E02800FFF72FFF70BDD2
:406BC000E00C0408024B1A68026018607047C046C85A040813B50C0000280AD0002908D0FBF72CFE21000190FFF7C1FC01A8FBF735FE13BD054B0100186810B5002802D182
:406C0000034B1B68986CFFF7E5FF10BDA05A0408D8AD0308014B18687047C046A45A040810B5002802D0FBF7FFFDC06910BD10B5002802D0FBF7F8FD806910BDF0B5040007
:406C400089B0002838D0FBF7F9FD0200039006AB22CA22C3836A076A03A80193FBF7FEFD2000FFF77EFF051E26D02000FFF7DFFF019B06009B0704D501003A0006A8FFF786
:406C800069FC2000FBF7DAFD03903000FBF7D6FD05902800FBF7D2FD059B039AD96907620490116203A8DC61FBF7D8FD05A8FBF7D5FD04A8FBF7D2FD09B0F0BD10B5041EB7
:406CC0000DD0074B1868002802D1064B1B68986CFBF7AAFD08220100200002F0A9FF10BDA05A0408D8AD030870B505000C1E07D0FFF79DFF002803D0A5602100FFF746FF18
:406D000070BD0000044B10B51B685C6C5864FFF703FB200010BDC046D8AD0308F7B505000E000120002D66DC334F7B683C00002B01D028009847012E04D0022E20D0002E50
:406D400058D133E0AF00E719BC68002C14D12800FCF798FA019000284CD0C3680D215B6A01A89847031E45D0310001989847BB6820000133BB603EE0601CB86030003AE05E
:406D80002800FCF77FFA0190002833D0C3680D215B6A01A89847051E2CD02368002B00D0984702210198A847002024E0AF00E3199B68012B01D0012014E02800FCF762FA53
:406DC00001900028F7D0C3680D215B6A01A89847051EF0D02368002B00D0984700210198A8470020E719BB681A00511E8A419B1ABB6000E00120FEBDE40C040810B5034B4A
:406E000001001B68587CFFF789FF10BDD8AD030813B50368040001A80193FDF78BF80123002804D000230A2801D1019A2260180016BD10B500228B5E0024025F9A4200DADA
:406E4000038002228B5E0224025F9A4200DA438004228B5E0424025F9A4200DD838006228B5E0621425E9A4200DDC38010BDF7B513880D881C1C2EB21BB2B34200DA2C1CB5
:406E80000480538825B24C881E1C27B21BB2BB4200DA261C4680938834B28E881F1C1BB2019333B29C46019B634500DD371C8780D388C9883EB21A1C0FB21BB2BB4200DDDA
:406EC0000A1CC28011B20020B54203DCE00FCB17A1425841FEBD0000094B1A680C23918D0B40082B08D00C2B06D00020042B06D1D369187E013802E0D369187E40087047FF
:406F0000D8AD0308024B1B68DB69587E7047C046D8AD0308034B10B51B680021DB695B68984710BDD8AD0308034B10B51B68DB695B68984710BDC046D8AD030870470000FA
:406F400037B5224B00911B6801906946150098471F4C019023685869002808D10120FFF74DFF2268D3695B69002B06D125E02900FCF720F80028F1D127E0164C9B68216820
:406F8000002908D02225555F01980099984723682800984716E000990198984712E001A8FCF7C8FF23680500DB691B6898470A4B1B68002B01D028009847009B013B00935B
:406FC000002BECDA0020FFF719FF37BD04AE0308D8AD0308545A0408605A040837B50D000190002815D00B4A1268D2695469002C0CD06468002C09D0A0470AE001A8FCF70D
:4070000099FF002804D00A2802D00134AC42F5DB20003EBDD8AD030813B5002401A90194FFF782FF019B984200DA1C1A200016BD37B5144B009101901B68694698470190F0
:4070400000281ED0104A1268D2695469002C02D02468002C01D1250002E00099A04710E0009B013B0093002B07DB01A8FCF762FF0400FFF74FFF2D18F2E72000FFF7CCFF74
:4070800028183EBD04AE0308D8AD0308244B73B51B680E0005001100002B0CD00020FFF735FC00283BD06A4631002800FFF748FFFFF77CFBF5E70822684602F0B9FD194C15
:4070C00068462168CB6C9AB26B461B88D31803800B6D41889BB259184180818852188280C2889B18C380FFF711FC2368002808D15A8CD96C521A5A84196D9A8C521A9A8465
:407100000DE06A46128831005A846A46528828009A846A46FFF714FFFFF748FBE5E773BD405A0408D8AD0308F0B587B00391FA21140002902D488900504302F047F92200FF
:40714000431C62430493E30F1B195B10D3180593029B0399E218181B254B1B681B6E1B68984701230193019B049A93423CDC2300019A634311005243D318059A9A421ADAD9
:40718000049B9C4216DD029B194E5F1C029B7F1A5D1E039B6D18E11833682A001B6E38001B689847039B2A00191B336838001B6E1B689847013C029B019A1D1BE6180C4F6B
:4071C000039B280099183B6832001B6E1B689847039B019A2800991A3B6832001B6E1B689847019B0133BDE707B0F0BDC3020000D8AD030870B5084D04002B685E7C002844
:4072000007D1FCF73FF8002803D02B685C74FBF7EFFE300070BDC046D8AD030810B5FEF7B3FA802208235200904215D0013B7F2812D8013B3F280FD8013B1F280CD8013BE5
