:020000041000EA
:4000000000400208310100100D000000950100100000000000000000000000000000000000000000000000000000000091010010000000000000000091010010910100109B
:400040009101001091010010910100109101001091010010910100109101001091010010910100109101001091010010910100109101001091010010910100109101001060
:400080009101001091010010910100109101001091010010910100109101001091010010910100109101001091010010910100109101001091010010910100109101001020
:4000C00010B5064C2378002B07D1054B002B02D0044800E000BF0123237010BD7404000800000000782B0010084B10B5002B03D00749084800E000BF07480368002B00D151
:4001000010BD064B002BFBD09847F9E70000000078040008782B0010EC000008000000007047EFF3108072B6704780F310887047FFF7F6FF72B6104C104DAC4209DA2168D1
:400140006268A368043B02DBC858D050FAE70C34F3E70B490B4A0020521A02DD043A8850FCDC094809490860BFF34F8F00F002F900F01EF8FEE700007C2B0010942B00105A
:40018000740400086C0600080000000808ED00E0FEE7FEE700B504207146084202D0EFF3098001E0EFF30880043001F019FAFEE710B5034800F052F9002001F03BFCFBE7AA
:4001C0000000081070B56249E0239B00CB580F2213401A00D0329200525807210A40032A05D0042A06D0002A12D15A4814E05A4A106811E01A00C0329200554952581F212C
:400200000A40112A06D0132A04D0FA20C00103E0524801E080200002002B36D14C4BB222D2009A5801211140B125ED005A59120F032422405B591B0F1C4207D0444C635924
:400240001B0F03242340012B02D102E0012300E00023002B01D0002901D1032A4BD13C4BB022D2009D58AD03AD0B3D495958C904C90C9C58240E01231C40013401F07CFCDD
:400280006843210001F078FC35E0012B33D1304BC822D2009A5801251540C024E4001A59120F03210A401B591B0F194207D028490B591B0F03210B40012B02D102E0012317
:4002C00000E00023002B01D0002D01D1032A12D11F4DC022D200AB587F210B40A958090A1F263140AC58240C3440584301F044FC210001F041FCE0239B00154AD3581B0909
:4003000003221340D840144C6060164B1D692D0AFC32154001351969090E013101F02CFCA060290001F028FC0500E06020610E4BC0180E4901F020FC20750D4BE818FA21B1
:40034000890001F019FCA061C003E06170BDC0460000264000127A00C000000800366E0184050000000021403F420F0040420F00E703000010B5234BB021C9005A58520091
:4003800052085A50E02080001A583024A2431A50802252045A501C491C4A9950A021890104329950FF211A4A995081315A58920092088020C00502435A505A58802000063B
:4003C00002435A505A58012082435A5000F0A4F9FFF7F8FE00F06EF800F076F800F0FEFAB0235B055B78002B04D0B0235B055B78DBB200E02123212B03D1064B0022DA602E
:400400005A6010BD0000264001000200840500008C050000E00023408023024AD3580320184070470000214010B5FFF77AFE084980228C58074B2340074C23438B508823C4
:40044000034AD358DB06FAD5FFF76FFE10BDC04600002140FCFF00000100FA0570B50500FFF75FFE0400FFF7D7FF032801D1FFF7DBFF0A4AB0239B00D55080215058084B25
:4004800003400848034353508823044AD358DB06FAD52000FFF749FE70BDC04600002140FCFF00000300FA0510B5002000F0DEFD10BDC04610B5034A8021042000F042FB77
:4004C00010BDC0469004000810B50748103000F0F9FB01F0EEF80400044800F065FC200001F0EBF810BDC04690040008101D0010FEE7C046F0B50025002711E0BB00C65897
:40050000F3B2FF22964308E06A008A181478A419527822700135013BDBB2002BF4D10137012FEBD9F0BDC04670B586B05D4BA021C9005A58032082435A505B4A9024105922
:400540005A490840105110690002000A1061106901408020400001431161E02292009958F138814399509958213081439950995880200006014399500021012000F0A8FD04
:400580000021022000F0A4FD0021032000F0A0FD0021042000F09CFD0021002000F098FD01A8434903000A0032CA32C312CA12C300F0B6FD002802D00420FFF799FF39494D
:4005C0003C4A8B588020000603438B503A4800F05FFE002802D00420FFF78AFF314C374BE158374A0A40E250E158364A0A40E250E25880252D062A43E250043BE158324A50
:400600000A40E250E158314A0A40802189010A43E250E258802109020A43E2502C4A11682C4B0B40802149000B431360002001F089FA294AA3581D43A550A3580125AB436F
:400640002B43A3506421002000F0E2FF234B0021234A9950802000011A5814490A401A508022D2001F489850985840241E481C50902424011E591D4830401D4E3043185145
:400680001C48985098581C481D501C481C582140C424A40121431950194999509B5806B070BDC0460000264000002140FF00FFFF441D0010087F0000400D0300040500005E
:4006C000FEFCFFFFFFFF00FFFFF0FFFFFF8FFFFF00002740FFFCFFFF0C05000000000140180C000000FF00804C0C0000FF0000FF004FC30040FF0080580C000004080000A0
:4007000001FF008010B50A00002101F0CAFA10BD10B501F0BDFA10BD70B58AB09621002000F076FF00F04CFF002814D100F038FFC0235B00554AD358DB0705D41100544A11
:400740008B585B005B088B505049514A8B588020000603438B50012001F0A4F84D4A516C4D4B0B40E82189010B435364536C1B0AFF2213403A2B07D1464A516C474B0B40E3
:40078000E82189010B435364FFF7CEFE444A454B1A6000240CE0620012195300424AD318198B9A8AD88A00041043FFF7ABFF01340B2CF0D900240AE06200121993003A4AD8
:4007C000D3185A6E196ED86DFFF7A2FF0134112CF2D9364D2900343128003C30FFF78AFE334A1368832149000B43136001AC22002B00443343CB43C243CB43C243CB43C233
:4008000021002C4800F0F4F822002B00683323CB23C223CB23C223CB23C22100264800F0E7F824220021200001F03BFA234BE3602100234800F0DCF8224D22002B000C33DF
:4008400043CB43C243CB43C243CB43C221001E4800F0CEF822002B00303343CB43C243CB43C243CB43C22100184800F0C1F822002B00543323CB23C223CB23C223CB23C2A2
:400880002100134800F0B4F80AB070BD000026400C05000000002740FF00FFFFFFC5FFDF0300FA05F0012140441D0010441E00100079344000003240800032400086660642
:4008C00080023240C41E0010000332400006324080063240214B984230D00ED8402831D004D800281FD010282AD031E080282BD080235B00984229D02AE0194B984229D0AD
:4009000007D8A0231B0698420DD0164B984212D01EE0154B98420AD0144B984209D0144B984215D101E0002016E0124814E0124812E0124810E0A020C0030DE007480BE058
:400940000F4809E00F4807E00F4805E0034803E00E4801E0A420C0037047C04606005200010000F0090000A0040000F0050000F0030000F00100520002005200030052004A
:40098000010050000200500005005200FF00520010B50C4B1B69002B11DB0B4B1868FFF799FF0121094B0A4AD150084B084AD358002BFAD1074BD358002BF6D100E0064883
:4009C00010BDC04600002340200600080C040000000025408C0400000200500010B502220249002000F0AEFA10BDC0464501000870B505000C00002848D0002948D0FF2356
:400A00000A689A4303D08D21224800F0BBFDFF2322699A4303D08E211E4800F0B3FDA3685B0D03D08F211B4800F0ACFD63685B0A03D09021174800F0A5FDE3695B0F03D0A2
:400A40009121144800F09EFD236A5B0F03D09221104800F097FD104BEB18DB090F4A944663441B0122682A60E268AA622269EA6262692A63A2686A626268AA61A2696A6330
:400A8000E2691A60226A5A60002002E0044800E0034870BD6C2800100000CEBF0010030401005A0070B504000D000369002B0ADA0B0C03D00549064800F064FD2D042D0CF0
:400AC0006560002000E0034870BDC046B3020000EC28001001008A0070B505000C000368002B01DA002300E0084B002B0BD1EA60230C03D00649074800F044FD2404240CD8
:400B0000AC60002000E0014870BDC04601008A009A020000EC28001070B505000C1E03D19921064800F02EFD2B69002B03DAEB682360002000E0024870BDC0462C29001043
:400B400001008A00F8B504000E0015000F283FD8002A10D100290ED10F2804D9AA21FF31214800F00FFD6401204B9C466444204B1C60002037E0002D2CD0002E2CD0F3067D
:400B80002CD10F2C04D9AA21FF31174800F0FAFC6401164B9C466444154F3C607E60BD60F2080021280001F07CF800212000FFF779FF3A0001CA0021FFF78EFF00280FD18D
:400BC0000B4B18680021FFF76DFF00280AD10AE0084808E0074806E0064804E0054802E0054800E00448F8BD6C290010000023403006000803018A0001018A00F0B583B07B
:400C00000D001C4B1B68DC68236883422DD947097B01C01A012383401E00002903D100F048FD019001E000230193124B18680368002B01DA002300E00F4B002B0ED163689D
:400C4000BF00DF193B68334203D0B3433B60002400E00A4C0021FFF725FF00E0084C002D04D1019800F029FD00E0064C200003B0F0BDC0463006000801008A0002018800BB
:400C80000301880004018A000A4B1B68DA68136883420BD943095901401A0121814052689B009B580B4203D0034802E0034800E003487047300600080101880004018A00DF
:400CC00000018800034B1B68002B01D1014B18607047C0463C060008F0B5474680B404000F0090461E002B4B1B68002B03D1B421294800F047FC072C03D9B521264800F0B1
:400D000041FC244B1B682C2060431C18FF22150035402560330A13406360330CA3600F2D04D9AA21FF311D4800F02CFC6B011C4A94466344236165680F2D04D9E221490002
:400D4000164800F01FFC6D01164B9C4665446561A668330C04D0F1214900104800F012FC330C04D0E421FF310C4800F00BFC3604330C1E43AE604346E36127620023A36120
:400D8000069B002B02D000229B5EA38104BC9046F0BDC0463C060008AC2900106C2900100000234000102340F0B58FB0041E03D150212E4800F0E6FB6368032B03D9522189
:400DC0002A4800F0DFFBE36A002B03D15621274800F0D8FBE368072B03D95721234800F0D1FB236A072B03D95821204800F0CAFB236B002B03D159211C4800F0C3FB07AACF
:400E00001300210061C961C321C921C302AD290023001433C1CBC1C141CB41C10821535E0CAE3380079B1933B370089B0D930B9B0A980096A26AE16AFFF74EFF2B69E8680D
:400E4000002200920021FFF747FF216B300000F027FB0023F25E002A05DB1F231A401E3B9340034A13600FB0F0BDC046AC29001000E100E0F8B504000F0016001D00002A59
:400E800003D1FD21284800F07DFB284B1B68002B03D1FE21244800F075FB072C03D9FF21214800F06FFB072F04D9802149001E4800F068FB1D4B1B682C21200048431818CD
:400EC00079435918012213004C68A3401B044468A24014000269002A20D08F69002F1FD11268002A01DA002200E0114A002A19D132681204120C134333600369DE60012326
:400F00008B614D620569230C03D00A490A4800F039FB2204120CAA60002004E0074802E0074800E00648F8BDAC2900103C06000801008A009A0200006C29001004028A009D
:400F400007028A0070B504000D001600134B1B68002B04D16221FF31114800F013FB072C04D9B12149000E4800F00CFB0B4B1B682C2060431C18236A002B04D1B321490089
:400F8000074800F0FFFAE369B34204D9236AB6009D51002000E0034870BDC0463C060008AC2900100A028A0070B582B0040000230193002804D1EA2149002B4800F0E2FAC5
:400FC0002369002B04D1D621FF31274800F0DAFA6369002B04D1EB214900234800F0D2FA236A002B04D1D821FF311F4800F0CAFA6269D5682B0C1FD01B041360136820692E
:401000000369002B18DA01A9FFF786FD00280ED1019803681E0CFF221340E269934207D29B00226AD358002B02D0984700E0002631002069FFF736FD2D042D0C0FD0636936
:401040001D601B68636A002B03D098470023636203E0A36A002B00D098470023A36163691B6802B070BDC046AC29001010B504000B4B1B68002B04D1DA214900094800F0AD
:4010800081FA072C04D9B621FF31064800F07AFA034B1B682C2060431818FFF785FF10BD3C060008AC29001010B504000F2803D9E421054800F066FAA402044B9C46644489
:4010C00023680F20184010BDEC2900100040244004281DD8042904D94B1EFF3B9BB2132B18D8FF290CD91F2319400B4A0300C0339B009950D03080000423835000200AE004
:4011000007231940D0308000034BC150002002E0024800E0014870470000264001004A0070B5041E04D1E221FF314C4800F02AFAB023DB004A4AD358002B01DB002500E000
:40114000484D002D00D086E0474B22689A4204D9F8214900414800F015FA23689B03990BE3791B068022520413400B43B022D2003B498B50A2883D4B9A4204D9F821FF311E
:40118000364800F0FFF92289394B9A4204D9FC214900324800F0F6F9A388DB04D90C23891B04344A13400B43334A2D498B50A37A0F2B04D9FF214900284800F0E3F9E37A45
:4011C0000F2B03D92A49254800F0DCF9A289274B9A4204D980218900204800F0D3F9A37A0F211940E27A1201FF2313400B43A289120222490A401343A27B1207C0218905C9
:401200000A401343B122D20015498B50A379072B04D982218900114800F0B4F9228A144B9A4203D916490D4800F0ACF90C4815494658154B1E40A3791B02E022D200134069
:40124000334343504658114B1E40238A1B04094A134033434350280070BDC0462C2A00100000264003004A00FFFF0300FF1F0000FF0100000000FF018405000000FF1F0058
:40128000090200008C050000FFF8FFFFFFFF00FE70B505002D492E4A8B588020000603438B502C0003E0012000F060F9013CB223DB00264AD3585B0701D4002CF3D123494B
:4012C000B122D2008858234B03408020800503438B50002D02D00ED0002C0CD01B49B022D2008B588020000603438B5003E0012000F03CF9013CB223DB00144AD358DB075A
:4013000001D4002CF3D1002D0ED0002C0CD10F4AB021C90053585B005B0853500C4953585B005B0853500BE0084B0221B222D2009950B121C9005A58C020800502435A50E3
:40134000002C01D1044800E0002070BD000026408C050000FFFFFFCF02004A0010B583089A00801AC000FF228240D44381400A40072B32D89B001949CB589F46184B196A77
:401380000C4022431A6228E0154B596A0C4022435A6222E0124B996A0C4022439A621CE00F4BD96A0C402243DA6216E00C4B196B0C4022431A6310E0094B596B0C4022431B
:4013C0005A630AE0064B996B0C4022439A6304E0034BD96B0C402243DA6310BDB42A00100000214083089A00801AC100FF228A40072B2BD89B001748C3589F46164B186A46
:401400001040C84023E0144B586A1040C8401EE0114B986A1040C84019E00F4BD86A1040C84014E00C4B186B1040C8400FE00A4B586B1040C8400AE0074B986B1040C8401B
:4014400005E0054BD86B1040C84000E00020C0B27047C046D42A00100000214070B504000D000B4B9A680B4B9A420BD1002903D1FC21094800F086F81034064BA400E05818
:40148000E55003E01034A400044BE05870BDC04600ED00E000000008F42A001000000010F0B583B0041E019150D04368032B03D93621294800F066F80023E05E002802DB82
:4014C000A178FFF74BFF0023E25E6368002A12DB9008224EC0308000875903210A40D200FF25290091408F4399012B000B4093403B43835117E092B20F2111400839890803
:40150000063189001648844661444E6803200240D200FF2738009040864398013B000340934033434B600E4B9A680E4B9A420FD1019B002B03D14521074800F023F8002341
:40154000E05E0199FFF78AFF002002E0064800E0002003B0F0BDC046F42A001000E100E000ED00E0000000080100560010B5034B1B78584300F094F810BDC046D4000008D7
:4015800001BEFEE770B50D00044C18220100200000F08FFBA5610020FFF7F2FF38040008054B802212069A649B6C002B01DB002000E002487047C046000027400300460012
:4015C000054B8022120198585B68FF221A4202D08023DB021843704700002640FEE7C04610B50A4B0268DA6142681A6282685A62C2689A620269DA6242691A6382695A63D9
:40160000C2699A63FFF7EAFF10BDC04638040008F0B5002801D0192200E064228A42924152421C4BE8256D005C590327BC433A4014435C515C59184E34405C51D03D5C59DF
:40164000BC4322435A515A5916405E51002805D010290DD921290DD8012014E01D290BD93A290BD957290BD978290BD803200AE0002008E0022006E0002004E0012002E0C6
:40168000022000E00420054A13680F218B4303431360F0BD00002140FFFCFFFF000025400230800803D001300238FCD1C046C0467047EFF3108072B6704780F3108870477C
:4016C0000D4BF222D2019A580260F022D2019A5842600A4A9A588260094A9A58C260094A9A580261084A9A584261084A9A588261074A9B58C361704700003440047800008A
:40170000087800000C7800001078000014780000187800000D4BF022D201416899500C4A816899500B4AC16899500B4A016999500A4A416999500A4A81699950094AC16970
:4017400099500168E83299507047C0460000344004780000087800000C78000010780000147800001878000010B5074A074813580F24A34302210B43135004381358A34375
:401780001943115010BDC0460000214004F0000010B5074A074813580F24A34303210B43135004381358A3431943115010BDC0460000214004F000000449054A8858054B48
:4017C0000340C020C00103438B5070470000214004F00000FF8FFFFF0449054A8858054B03408020C00103438B5070470000214004F00000FF8FFFFF10B50020FFF754FCF8
:40180000B0235B055B78002B04D0B0235B055B78DBB200E02123222B03D8002803D1013002E0012000E0002010BDC04610B504000020FFF739FC00280AD114498A69144BFB
:401840001A40240680235B041C4014438C611BE0002C01D00F4A00E00F4A01210F48FFF73BF900280DD10D4B1B69002BFBDB0B4BDB681B0E1B06A0221206934203D008487D
:4018800002E0074800E0002010BDC04600F02540FFFFFFFE01010030010000300000234004004200F8B50500012804D9EA21C9002948FFF767FEFFF79FFF002848D0FFF7A6
:4018C000F8FE0700002D17D1E823DB00B0225205D65CF6B20120FFF7A9FF041E1FD1FFF743FF1E481E4943581F229343143A13434350FFF761FF12E01A4BB0225205D65C26
:40190000F6B21648164943581F229343143A134343500920FFF72AFEFFF75EFF0024002C12D10E490E4A8B581F20834306401E438E50012D08D11638FFF718FEFFF728FFF2
:401940000020FFF773FF04003800FFF7B6FE00E0054C2000F8BDC046382B0010000026401CFF0000410700000300420070B584B005000E00042803D929492A48FFF702FE1E
:40198000731EDBB2012B07D9042E05D0082E03D025492448FFF7F6FD042E01D0012E1DD1224B5C68002013E023799D420FD1A368002B01D01E420AD1E36801A85A684260D1
:4019C0009B688360067023689847184B9C606469002C23D0164B9842E6D11FE0134B9C68022E02D1002C00D02469002011E023799D420DD1A368002B01D01E4208D1E36802
:401A000001A85A6842609B6883600670236898472469002C02D0064B9842E8D104B070BD95080000382B00109608000040060008FF00420070B50500012804D984218900E8
:401A40003848FFF79FFD384B1B68002B05D001210120FFF78BFF040000E00024002C59D1FFF727FE0600304B1B68002B03D004210120FFF77BFFE0232C4AD358DB0603D5FD
:401A800029480C30FFF71CFEB0235B055B78002B04D0B0235B055B78DBB200E02123212B03D1280000F024F91FE02149214BCB581F221340E822D200B0204005825CD31A10
:401AC0005A1E9341DBB20A68120207D4012B05D1194BC158194B164AD15003E00021174B134AD150280000F00BF9E0230F4AD358DB0603D50C480C30FFF70CFE3000FFF752
:401B0000DCFD094B1B68002B09D008210120FFF72DFF04E002210120FFF728FF084C200070BDC046382B00104006000800000140000026401CFF000010180000307F00003F
:401B4000FF004200042805D1094A116804230B4313600CE00006C0239B04184090239B00044AD050024A136804218B431360704710E000E000002140002243088B4274D350
:401B800003098B425FD3030A8B4244D3030B8B4228D3030C8B420DD3FF22090212BA030C8B4202D31212090265D0030B8B4219D300E0090AC30B8B4201D3CB03C01A524126
:401BC000830B8B4201D38B03C01A5241430B8B4201D34B03C01A5241030B8B4201D30B03C01A5241C30A8B4201D3CB02C01A5241830A8B4201D38B02C01A5241430A8B42FD
:401C000001D34B02C01A5241030A8B4201D30B02C01A5241CDD2C3098B4201D3CB01C01A524183098B4201D38B01C01A524143098B4201D34B01C01A524103098B4201D330
:401C40000B01C01A5241C3088B4201D3CB00C01A524183088B4201D38B00C01A524143088B4201D34B00C01A5241411A00D20146524110467047FFE701B5002000F006F8C1
:401C800002BDC0460029F7D076E770477047C046002310B59A4203D0CC5CC4540133F9E710BD03008218934202D019700133FAE77047030030B5002A0DD00C7801335D1E2B
:401CC000013A2C700131002CF5D19A189A4202D01C700133FAE730BDF8B5C046F8BC08BC9E467047F8B5C046F8BC08BC9E46704701B40248844601BC604700BF6502000814
:401D000001B40248844601BC604700BF3903000803000000010000000100000000000000050360000400000001000000000000000100000006046000080000000006000880
:401D4000A9040010F4010000140004010A000905080000006301000000203440740080203440740000223440740080223440740000243440740080243440740000263440BE
:401D80007400802634407400002834407400802834407400002A34407400802A34407400002134403C1F00109000000000233440CC1F001090000000002534405C20001006
:401DC0009000000000273440EC20001090000000002934407C21001090000000002B34400C22001090000000006034409C2200107C00000080603440182300107C0000008C
:401E000000613440942300107C00000080613440102400107C000000006234408C2400107C00000080623440082500107C00000000633440842500107C00000080633440F1
:401E4000002600107C000000006434407C2600107C00000080643440F82600107C00000000653440742700107C00000080653440F02700107C000000DF04E3016C51000028
:401E8000022034400170344010000000000000000000000000060A000000000000000000000000000000000000000000200000000000000000000000000060000000000007
:401EC00000000000000000000000000000030000000000000000000000000000000000BA0000000000000000000000000000000000001D1D070000000000000000000000E4
:401F00008666000000000000000000000000000014141400000000008000000000000000000000000000006000000000000000000000000000000000000000080000000091
:401F40000000000000000000FFFFFFFFFFFFFFFFFFFFFFFFFFFFFFFFFFFFFFFFFF000000FFFFFFFFFFFFFFFFFFFFFFFFFFFFFFF5FFFFFFFFFF000000000000000000000095
:401F8000000000000000000000000000000F0000FFFFFFFFFFFFFFFFFFFFFFFF111111111111111111111111111111111111111111111111111111111111111111111D11AE
:401FC000111111111111111111111111000000000000000000000000FFFFFFFFFFFFFFFFFFFFFFFFFFFFFFFFFFFFFFFFFF000000FFFFFFFFFFFFFFFFFFFFFFFFFFFFFFFF3A
:40200000FFFFFFFFFF000000000000000000000000000000000000000000000000000000FFFFFFFFFFFFFFFFFFFFFFFF11111111111111111111111111111111111111115D
:4020400011111111111111111111111111111111111111111111111111111111000000000000000000000000FFFFFFFFFFFFFFFFFFFFFFFFFFFFFFFFFFFFFFFFFF00000099
:40208000FFFFFFFFFFFFFFFFFFFFFFFFFFFFFFFFFFFFFFFFFF000000000000000000000000000000000000000000000000000000FFFFFFFFFFFFFFFFFFFFFFFF11111111FD
:4020C0001111111111111111111111111111111111111111111111111111111111111111111111111111111111111111000000000000000000000000FFFFFFFFFFFFFFFFFC
:40210000FFFFFFFFFFFFFFFFFFFFFFFFFF000000FFFFFFFFFFFFFFFFFFFFFFFFFFFFFFFFFFFFFFFFFF000000000000000000000000000000000000000000000000000000C1
:40214000FFFFFFFFFFFFFFFFFFFFFFFF111111111111111111111111111111111111111111111111111111111111111111111111111111111111111111111111000000003B
:402180000000000000000000FFFFFFFFFFFFFFFFFFFFFFFFFFFFFFFFFFFFFFFFFF000000FFFFFFFFFFFFFFFFFFFFFFFFFFFFFFFFFFFFFFFFFF000000000000000000000049
:4021C00000000000000000000000000000000000FFFFFFFFFFFFFFFFFFFFFFFF11111111111111111111111111111111111111111111111111111111111111111111111187
:40220000111111111111111111111111000000000000000000000000FFFFFFFFFFFFFFFFFFFFFFFFFFFFFFFFFFFFFFFFFF000000FFFFFFFFFFFFFFFFFFFFFFFFFFFFFFFFF7
:40224000FFFFFFFFFF000000000000000000000000000000000000000000000000000000FFFFFFFFFFFFFFFFFFFFFFFF11111111111111111111111111111111111111111B
:402280001111111111111111111111111111111111111111111111111111111100000000000000001F1F1F1F1F1F1F1F1F1F1F1F1F1F1F1F1F1F1F1F1F1F1F1F1F1F1F1FDE
:4022C0001F1F1F1F000000000000000000000000000000000000000000000000FFFFFFFFFFFFFFFFFFFFFFFF111111111111111111111111111111111111111111111111D6
:4023000011111111111111111111111111111111111111111111111100000000000000001F1F1F1F1F1F1F1F1F1F1F1F1F1F1F1F1F1F1F1F101F1F1F1F1F1F1F1F1F1F1F34
:40234000000000000000000000000000000000000000000000000000FFFFFFFFFFFFFFFFFFFFFFFF1F1111111111111111111111111111111111111111111111111111117F
:40238000111111111111111111111111111111111111111100000000000000001F1F1F1F1F1F1F1F1F1F1F1F1F1F1F1F1F1F1F1F1F1F1F1F1F1F1F1F1F1F1F1F00000000E9
:4023C0000000000000000000000000000000000000000000FFFFFFFFFFFFFFFFFFFFFFFF1311111111111111111111111111111111111111111111111111111111111111C7
:402400001111111111111111111111111111111100000000000000001F1F1F1F1F1F1F1F1F1F1F1F1F1F1F1F1F1F1F1F1F1F1F1F1F1F1F1F1F1F1F1F0000000000000000AC
:4024400000000000000000000000000000000000FFFFFFFFFFFFFFFFFFFFFFFF11111111111111111111111111111111111111111111111111111111111111111111111104
:4024800011111111111111111111111100000000000000001F1F1F1F1F1F1F1F1F1F1F1F1F1F1F1F1F1F1F1F1F1F1F1F1F1F1F1F1F1F1F1F00000000000000000000000070
:4024C000000000000000000000000000FFFFFFFFFFFFFFFFFFFFFFFF1111111111111111111111111111111111111111111111111111111111111111111111111111111140
:40250000111111111111111100000000000000001F1F1F1F1F1F1F1F1F1F1F1F1F1F1F1F1F1F1F1F1F1F1F1F1F1F1F1F1F1F1F1F0000000000000000000000000000000033
:402540000000000000000000FFFFFFFFFFFFFFFFFFFFFFFF11111111111111111111111111111111111111111111111111111111111111111111111111111111111111117B
:402580001111111100000000000000001F1F1F1F1F1F1F1F1F1F1F1F1F1F1F1F1F1F1F1F1F1F1F1F1F1F1F1F1F1F1F1F0000000000000000000000000000000000000000F7
:4025C00000000000FFFFFFFFFFFFFFFFFFFFFFFF111111111111111111111111111111111111111111111111111111111111111111111111111111111111111111111111B7
:4026000000000000000000001F1F1F1F1F1F1F1F1F1F1F1F1F1F1F1F1F1F1F1F1F1F1F1F1F1F1F1F1F1F1F1F000000000000000000000000000000000000000000000000BA
:40264000FFFFFFFFFFFFFFFFFFFFFFFF1111111111111111111111111111111111111111111111111111111111111111111111111111111111111111111111110000000036
:40268000000000001F1F1F1F1F1F1F1F1F1F1F1F1F1F1F1F1F1F1F1F1F1F1F1F1F1F1F1F1F1F1F1F000000000000000000000000000000000000000000000000FFFFFFFF3E
:4026C000FFFFFFFFFFFFFFFF1111111111111111111111111111111111111111111111111111111111111111111111111111111111111111111111110000000000000000B2
:402700001F1F1F1F1F1F1F1F1F1F1F1F1F1F1F1F1F1F1F1F1F1F1F1F1F1F1F1F1F1F1F1F000000000000000000000000000000000000000000000000FFFFFFFFFFFFFFFFC1
:40274000FFFFFFFF11111111111111111111111111111111111111111111111111111111111111111111111111111111111111111111111100000000000000001F1F1F1FB1
:402780001F1F1F1F1F1F1F1F1F1F1F1F1F1F1F1F1F1F1F1F1F1F1F1F1F1F1F1F000000000000000000000000000000000000000000000000FFFFFFFFFFFFFFFFFFFFFFFFC1
:4027C00011111111111111111111111111111111111111111111111111111111111111111111111111111111111111111111111100000000000000001F1F1F1F1F1F1F1FB1
:402800001F1F1F1F1F1F1F1F1F1F1F1F1F1F1F1F1F1F1F1F1F1F1F1F000000000000000000000000000000000000000000000000FFFFFFFFFFFFFFFFFFFFFFFF1111111178
:40284000111111111111111111111111111111111111111111111111111111111111111111111111111111111111111147656E6572617465645F536F757263655C50536F9F
:4028800043365C70646C5C647269766572735C7065726970686572616C5C6770696F5C63795F6770696F2E630000000047656E6572617465645F536F757263655C50536F71
:4028C00043365C70646C5C647269766572735C7065726970686572616C5C6770696F5C63795F6770696F2E680000000047656E6572617465645F536F757263655C50536F2C
:4029000043365C70646C5C647269766572735C7065726970686572616C5C6970635C63795F6970635F6472762E68000047656E6572617465645F536F757263655C50536F26
:4029400043365C70646C5C647269766572735C7065726970686572616C5C6970635C63795F6970635F6472762E63000047656E6572617465645F536F757263655C50536FEB
:4029800043365C70646C5C647269766572732F7065726970686572616C2F6970632F63795F6970635F6472762E68000047656E6572617465645F536F757263655C50536F2D
:4029C00043365C70646C5C647269766572735C7065726970686572616C5C6970635C63795F6970635F706970652E630047656E6572617465645F536F757263655C50536F09
:402A000043365C70646C5C647269766572735C7065726970686572616C5C70726F745C63795F70726F742E630000000047656E6572617465645F536F757263655C50536FC3
:402A400043365C70646C5C647269766572735C7065726970686572616C5C737973636C6B5C63795F737973636C6B2E630000000047656E6572617465645F536F7572636549
:402A80005C50536F43365C70646C5C647269766572735C7065726970686572616C5C737973636C6B5C63795F737973636C6B2E68000000007C1300108813001094130010F4
:402AC000A0130010AC130010B8130010C4130010D0130010FC13001006140010101400101A140010241400102E140010381400104214001047656E6572617465645F536FC8
:402B0000757263655C50536F43365C70646C5C647269766572735C7065726970686572616C5C737973696E745C63795F737973696E742E630000000047656E65726174657D
:402B4000645F536F757263655C50536F43365C70646C5C647269766572735C7065726970686572616C5C737973706D5C63795F737973706D2E6300000000000000000010AF
:402B800000000008C00000009C2B0010C00000087803000074040008F80100000048E80100127A0000093D0000093D0000093D0004000000A00F00000000D00702FF0000A0
:402BC000E9000010C1000010000000000004400B19D00D4B1B68002BFBDA3E220B4B1A600B4A0C4B1A600C4B0621A322D20099500A4A98509B580022034B5A60074B064AA9
:402C0000D358002BFADA7047E0002340040126401E1F000008012640000026401C05000010B54378FF2B0DD100F064F9064BDB685A68116801230B4313601368DB07FCD41C
:402C400000F050F910BDC04680002340F0B583B005000F0000F01EF90600032824D12E4B1B69002B22DB002000F034F92B4B98421ED000232A4A0021012000F013F90028AF
:402C800003D0284C17E0013400E00024002000F021F9224B984202D0234B9C42F3D9224B9C4207D91F4C06E0002404E01D4C02E01C4C00E00024002C2BD100F01BF901904A
:402CC0001A4B1B4AD358002B13DA1A4A01211A4800F0F0F800280ED13800FFF777FF002D0BD0154B1B69002BFBDB00F0EBF8040004E00C4C02E00B4C00E0104C032E05D1E0
:402D00000121002000F0FEF80028F9D1019800F0E9F8200003B0F0BDC000234001018800E000000805005200EF4902001C0500000000264020060008000023400100500000
:402D400070B5304B1B68002BFBDA2E4BD96802220A43DA60DB68DB071FD52A4EF2681204150C294B1A69120A1204FF2424042240110090241A59120A12060A432A43F2605B
:402D80001969224A114090252D012943196119590A402A431A511A691B591A4B00225A605B681B4A116904230B431361012801D030BF00E020BF134B1B68002BFBDA114BCF
:402DC000DB68DB0715D510480269104B1A4014000C4DEA68120C1202FF2109020A4022430261902142581340EA68120E120213434350044BDA6802218A43DA6000225A607A
:402E000070BDC046E000234000002140FF00FFFF00ED00E0164A116904230B431361012801D030BF00E020BF124B1B68002BFBDA86235B00104AD358002B14D10F4A104B59
:402E40001A6006220F4B1A6038320F4B1A6006320E4B1A600D4B1B68002BFBDA0C4986235B00054AD1500022024B5A607047C04600ED00E0E0002340000025401E1F000057
:402E80000801264018052640040126401C052640AAAAAAAA01B40248844601BC604700BF1904001001B40248844601BC604700BF750E001001B40248844601BC604700BF02
:402EC000D90A001001B40248844601BC604700BF9109001001B40248844601BC604700BF890C001001B40248844601BC604700BFBB16001001B40248844601BC604700BFFF
:402F0000B316001001B40248844601BC604700BFFD0B00100000000000000000000000000000000000000000000000000000000000000000000000000000000000000000B4
:402F40000000000000000000000000000000000000000000000000000000000000000000000000000000000000000000000000000000000000000000000000000000000051
:402F80000000000000000000000000000000000000000000000000000000000000000000000000000000000000000000000000000000000000000000000000000000000011
:402FC00000000000000000000000000000000000000000000000000000000000000000000000000000000000000000000000000000000000000000000000000000000000D1
:020000041008E2
:4000000000780408F90208100D00000061030810610308106103081061030810000000000000000000000000000000005D0308105D030810000000005D0308105D0308104C
:400040005D0308105D0308105D0308105D0308105D0308105D0308105D0308105D0308105D0308105D0308105D0308105D0308105D0308105D0308105D0308105D03081000
:400080005D0308105D0308105D0308105D0308105D0308105D0308105D0308105D0308105D0308105D0308105D0308105D0308105D0308105D0308105D0308105D030810C0
:4000C0005D0308105D0308105D0308105D0308105D0308105D0308105D0308105D0308105D0308105D0308105D0308105D0308105D0308105D0308105D0308105D03081080
:400100005D0308105D0308105D0308105D0308105D0308105D0308105D0308105D0308105D0308105D0308105D0308105D0308105D0308105D0308105D0308105D0308103F
:400140005D0308105D0308105D0308105D0308105D0308105D0308105D0308105D0308105D0308105D0308105D0308105D0308105D0308105D0308105D0308105D030810FF
:400180005D0308105D0308105D0308105D0308105D0308105D0308105D0308105D0308105D0308105D0308105D0308105D0308105D0308105D0308105D0308105D030810BF
:4001C0005D0308105D0308105D0308105D0308105D0308105D0308105D0308105D0308105D0308105D0308105D0308105D0308105D0308105D0308105D0308105D0308107F
:400200005D0308105D0308105D0308105D0308105D0308105D0308105D0308105D0308105D0308105D0308105D0308105D0308105D0308105D0308105D0308105D0308103E
:400240005D0308105D0308105D0308105D0308105D0308105D0308105D0308105D0308105D0308105D0308105D0308105D0308105D0308105D0308105D0308105D030810FE
:400280005D0308105D0308105D03081010B5054C237833B9044B13B10448AFF300800123237010BDD4B303080000000050E00810084B10B51BB108490848AFF30080084863
:4002C000036803B910BD074B002BFBD0BDE81040184700BF00000000D8B3030850E008109CAE0308000000007047EFF3108072B6704780F310887047FFF7F6FF72B6114C42
:40030000114DAC4209DA21686268A368043BA2BFC858D050FAE70C34F3E70C490C4A00209142BCBF41F8040BFAE70A480A490860BFF34F8F00F01EFB00F0F8FA00F00CFA95
:40034000FEE7000054E008106CE00810D4B30308DC5904080040020808ED00E0FEE7FEE700B504207146084202D0EFF3098001E0EFF30880043001F0B3FFFEE738B52DED07
:40038000048B08EE100A09EE101A08EE902ADFED177A68EEA77A17EE900A09F071F902460B460020124909F0E9FA04460D4638EE498A4FF08041C8EE287A17EE900A09F081
:4003C000DDFCFEEE007A07EE100A67EE277A17EE900A09F055FC09F053F922462B4609F0A3F909F0B3FBBDEC048B38BD996C20400000F03FF8B506460F4601F075F90546BD
:40040000064C3B4632460146204600F0D1FF41F2B0622946204609F0E9FBF8BDF0B3030830B589B0244802F0D1FD002002F0CAFD6FF07F4002F0C2FD02F056FE002513E05A
:4004400005EB4512930023441C4A52F823302BB905F1140104F1410003F0B8F9013400E00024832CECDD0135AF2DF9DD022002F0D1FD05228421124803F020F8114A06ABB7
:400480001068516803C3104A03AB07CA03C31A7006A802F0BFF803A809F0D6FB0B4B009303460E2206A903A803F03CF901210846FFF7A0FF09B030BD78C008108C42020899
:4004C00084AC08107CAC08109CAC0810F4AD03082DE9F0412DED028B694802F077FD002002F070FD6FF07F4002F068FD02F0FCFD022002F08FFD05228421624802F0DEFF9F
:4005000014228421604802F0D9FF032002F028FDA023C3221946372003F0B2FBA0237D222821104603F0ACFB012002F019FD574802F04CFD002002F045FDA5225D21544863
:4005400002F0BCFFA5227A21524802F0B7FFA5228F21514802F0B2FFF8EE088A4FF0FF373D467DE000244FF07E5221462046FFF705FFDFED4A7A07EE100A67EE277A9FED8F
:40058000487A87EE278A4FF07E52214618EE900AFFF7F4FEB0EE087A38EE877AF1EE086AC7EE267A9FED3F7A67EE877AFDEEE77A17EE906A373607EE900A28EE278ABDEE14
:4005C000C88A18EE103AC3F1A008B5F1FF3F15D0B7F1FF3F12D0362E10DDC22E0EDCB8F1270F0BDDB8F19F0F08DC022002F0B8FC434632463946284603F042FB022002F045
:40060000AFFCFFEE007AF4EEE78AF1EE10FA21DBF7EE007AF4EEE78AF1EE10FA1AD816E0BB1913F0030F0CD00FE03919A81903F0CDF8013401E04FF0FF34012CF5DD0135B1
:4006400001E04FF0FF35012DF5DD013700E047469F2FE5DDDFED147A78EEA78A47463546F0EE087AF4EEE78AF1EE10FA7FF67AAF01210846FFF7BEFEBDEC028BBDE8F08150
:4006800078C00810A8AC0810B4AC0810E8AF0810BCAC0810C0AC0810C4AC0810CDCC8C3F0000F04200000C43CDCCCC3D08B51F4802F08CFC6FF07F4002F080FC002002F008
:4006C00081FC002002F0B0FC02F00EFD022002F0A1FC0A228421164802F0F0FE022002F099FC1E228421134802F0E8FE022002F091FC32228421104802F0E0FE002002F06D
:4007000089FC462284210D4802F0D8FE002002F081FC5A2284210A4802F0D0FE002002F079FC01210846FFF765FE08BD78C00810C8AC0810E0AC0810F4AC0810FCAC08103B
:4007400008AD081008B501F00BF80028FBD101F007F80028FBD008BD10B562B602F0F4FC142000F011FE012000F016FEFFF79EFFFFF7E8FF002400E00024064B03EB8403EA
:40078000D3F8A8369847FFF7DDFF0134E4B2022CF2D8F2E7E4A60308704700BF5C4AD2F8803303F00F0303F1D00152F8212002F00702032A04D0042A05D092B9554914E0E4
:4007C000554A116811E003F1C002514951F8222002F01F02112A06D0132A04D04FF4FA4103E04E4901E04FF400418BBB484BD3F8902502F00100D3F88825C2F30172D3F8CC
:40080000883513F0405F07D0414BD3F88835C3F30173012B02D102E0012300E0002303B108B9032A46D13A48D0F88025C2F31103D0F88425C2F30C02D0F88005C0F3006037
:400840000130B1FBF2F202FB03F2B2FBF0F131E0012B2FD12E4BD3F8402602F00100D3F80026C2F30172D3F8003613F0405F07D0274BD3F80036C3F30173012B02D102E04C
:40088000012300E0002303B108B9032A12D12048D0F8002602F07F02D0F80036C3F30423D0F80006C0F3044002FB01F2B2FBF3F2B2FBF0F1164BD3F88033C3F3011321FA4F
:4008C00003F215494A601648D0F89030C3F3072301330069000E0130B2FBF0F08860B2FBF3F3CB600B6103F5742202F23F220D48A0FB0202C2F387420A7503F2E7330A4A83
:40090000A2FB03239B098B61DB03CB61704700BF0000264000127A0098AD030800366E010000214083DE1B43D34D621008B5104BD3F8802122F0404242F08042C3F88021E3
:40094000D3F8802142F00042C3F88021D3F8802122F00102C3F88021FFF71EFFFFF71EFF00F0CCFE00F0D2FE00F078FF08BD00BF0000264008B5FFF7B8FC074AD2F8883033
:4009800043F47003C2F88830BFF34F8FBFF36F8FFFF7AFFC08BD00BF00ED00E02DE9F04180460E4617460A4C08256560702000F06FFD404600F06CFDA5606560722000F0CC
:4009C00067FD3946304600F0C7FDA560BDE8F0810006324000B583B002AB03F8011D01221946FFF7DBFF03B05DF804FBF8B507460E46094C08256560702000F049FD384677
:400A000000F046FDA5606560732000F041FD304600F06EFDA560F8BD0006324038B50425084B5D60084C402363601023636000F0FFFC0822054B5A6065602023636000F085
:400A4000E1FC38BD00003240800232400006324010B5434C6F220021204609F0EDF8631C236704F14E03636704F12203A36700F0C9FC03E000F0D0FC032868D800F0AEFDE5
:400A80000028F7D100F0CEFC00217220FFF7AEFF00F00F0002285CD14021FFF79BFF00210F20FFF7A3FF10F0800F54D002210B20FFF790FF08222B490120FFF76FFFD1216C
:400AC0000720FFF787FF02210820FFF783FFC2210920FFF77FFF03210420FFF77BFF01210320FFF777FF00210320FFF773FF0A2001F0CCFB002400E01C4601210520FFF776
:400B000069FF642001F0C2FB03210520FFF762FF322001F0BBFB0F210520FFF75BFF322001F0B4FB00210F20FFF760FF10F0400F05D040210220FFF74DFF234603E0631C92
:400B40009BB2042CD8D1032B07D9052010BD012010BD022010BD032010BD002010BD00BF50E1030818AD081010F1090F0EDB10F1040F0EDB05280FDD0A2810DD0F2811DD61
:400B8000142811DD282811DC5A2210E04FF496620DE04FF461720AE04FF4167207E04FF4A57204E0DC2202E0B42200E03C22034BA3F87C20A3F87E20704700BF50E10308E6
:400BC0002DE9F84F06460D46047828B1CA4B984205D10127002403E00127FF2400E0002700F010FC4FF00008D0E1C8EBC80AC8EB0A1ADFF80C930AEB090B6F22002158463F
:400C000009F01AF80BF1010EBC4BC3F870E00AF148004844063058670AF1200AD14409F10209C3F878902022002397E10FB934780136032D00F29081DFE815F004006500D6
:400C4000C600270100EB030C14F0400F01D0C02100E080218CF8001049B214F0100F02D04FF0300A01E04FF0200A4AEA01018CF8001014F0040F02D04FF00C0A01E04FF097
:400C8000080A4AEA01018CF8001014F0010F02D04FF0030A01E04FF0020A4AEA01018CF800100EEB020C14F0800F01D0032100E002218CF8001049B214F0200F02D04FF0CB
:400CC0000C0A01E04FF0080A4AEA01018CF8001014F0080F02D04FF0300A01E04FF0200A4AEA01018CF80010013A92B214F0020F02D06FF03F0A01E06FF07F0A4AEA01015B
:400D00008CF8001028E100EB030C14F0400F01D0802100E040218CF8001049B214F0100F02D04FF0200A01E04FF0100A4AEA01018CF8001014F0040F02D04FF0080A01E00A
:400D40004FF0040A4AEA01018CF8001014F0010F02D04FF0020A01E04FF0010A4AEA01018CF800100EEB020C14F0800F01D0022100E001218CF8001049B214F0200F02D012
:400D80004FF0080A01E04FF0040A4AEA01018CF8001014F0080F02D04FF0200A01E04FF0100A4AEA01018CF80010013A92B214F0020F02D06FF07F0A01E04FF0400A4AEAA4
:400DC00001018CF80010C7E000EB030C14F0400F01D0C02100E040218CF8001049B214F0100F02D04FF0300A01E04FF0100A4AEA01018CF8001014F0040F02D04FF00C0A37
:400E000001E04FF0040A4AEA01018CF8001014F0010F02D04FF0030A01E04FF0010A4AEA01018CF800100EEB020C14F0800F01D0032100E001218CF8001049B214F0200F40
:400E400002D04FF00C0A01E04FF0040A4AEA01018CF8001014F0080F02D04FF0300A01E04FF0100A4AEA01018CF80010013A92B214F0020F02D06FF03F0A01E04FF0400A71
:400E80004AEA01018CF8001066E000EB030C14F0400F01D0802100E0C0218CF8001049B214F0100F02D04FF0200A01E04FF0300A4AEA01018CF8001014F0040F02D04FF069
:400EC000080A01E04FF00C0A4AEA01018CF8001014F0010F02D04FF0020A01E04FF0030A4AEA01018CF800100EEB020C14F0800F08D0022107E000BFFFFF0F1050E1030824
:400F0000EC0B040803218CF8001049B214F0200F02D04FF0080A01E04FF00C0A4AEA01018CF8001014F0080F02D04FF0200A01E04FF0300A4AEA01018CF80010013A92B2AC
:400F400014F0020F02D06FF07F0A01E06FF03F0A4AEA01018CF8001001339BB2202B7FF665AEC8F1AF031BB299101A4A134003D5013B63F003030133174A02FA83F31B7A5A
:400F800009F8013008F101081FFA88F8B8F1AF0F7FF62BAE00240FE0C4EBC403C4EB03136F220E4919440A20FFF7F8FC07210220FFF710FD0134A4B2AF2CEDD9084BB3F891
:400FC0007C4000F029FA8442E4D800F02BFABDE8F88F00BF0300008018AD0810EC0B040850E103082DE9F04706460D4600F00AFAD2210920FFF7EEFC0024C6E0C4EBC407E1
:40100000C4EB0717DFF8008207EB08096F220021484608F011FE09F1010C784BC3F870C007F1480EC6440EF1060EC3F874E02037B84408F10208C3F87880202000218EE039
:40104000771C32786E1C95F800900EEB010582EA090212F0400F04D019F0400F03D0802302E0402300E0C0232B705BB212F0100F05D019F0100F05D04FF0200A04E04FF0F4
:40108000100A01E04FF0300A4AEA03032B7012F0040F05D019F0040F05D04FF0080A04E04FF0040A01E04FF00C0A4AEA03032B7012F0010F05D019F0010F05D04FF0020A5F
:4010C00004E04FF0010A01E04FF0030A4AEA03032B700CEB000512F0800F04D019F0800F03D0022302E0012300E003232B705BB212F0200F05D019F0200F05D04FF0080AB7
:4011000004E04FF0040A01E04FF00C0A4AEA03032B7012F0080F05D019F0080F05D04FF0200A04E04FF0100A01E04FF0300A4AEA03032B70013880B212F0020F05D019F05F
:40114000020F04D06FF07F0203E0402201E06FF03F0213432B70013189B235463E4620297FF66EAFC4F1AF031BB29910244A134003D5013B63F003030133224A02FA83F38F
:401180001B7A08F801300134A4B2AF2C7FF636AF002421E0C4EBC405C4EB05151A4B1D446F2229460A20FFF7F9FB07210220FFF711FCC4F1AF0343F38D032B44002283F8E3
:4011C00022206F2229460A20FFF7E8FB07210220FFF700FC0134A4B2AF2CDBD9074BB3F87E4000F019F98442D2D800F01BF9C2210920FFF7EFFBBDE8F08700BF50E1030820
:401200000300008018AD0810EC0B0408002307E01349086F5522C254496FCA5401339BB2202BF5D970B5002416E0A6080C4DAA6F04F003030B490B441B7A93556F222946F8
:401240000A20FFF7ABFB07210220FFF7C3FBAB6F00229A550134A4B2AF2CE6D970BD00BF50E1030818AD081008B5002304E00021094AD1540133DBB2152BF8D900210420E1
:40128000FFF7A8FB6F2204490A20FFF787FB07210220FFF79FFB08BD50E1030838B50E4C1023A360142000F0F1FF00F0D9F808220A4B9A604023A3600425A5600A2000F0C1
:4012C000E5FF65600A2000F0E1FFA5600A2000F0DDFFFFF7BDFB38BD800232400006324038B5FFF793FFFFF7BFFF1E2000F0CEFF234C40256560322000F0C8FFA560002155
:401300000F20FFF773FB10F0400F36D000210B20FFF760FB01210320FFF75CFB03210520FFF758FB01210520FFF754FB322000F0ADFF80210420FFF74DFB00210520FFF74B
:4013400049FB01210720FFF745FB1E2000F09EFF00F094F8102363606560142000F096FF0822084B5A60042363602025A5601E2000F08CFF6560002038BD042038BD00BF19
:40138000800232400006324010B50446FFF746FB2046FFF7E9FB10BD08B510B1FFF77EFF01E0FFF79DFF08B9012008BD002008BDF8B507460E4614461D4613B10120FFF798
:4013C000EBFF24B931463846FFF70CFE15E0631EDBB2012B11D800213846FFF7F1FB012C07D101213846FFF7EBFB02213046FFF7E7FB03213046FFF7E3FB15B10020FFF75C
:40140000CBFFF8BD08B50022024BC3F8082100F08FF908BD00003840014BD3F808017047000038400122014B5A6070470000384010B5074C074A0849204600F06FFD2368BA
:4014400043F0004323600822044B9A6010BD00BF0000674040580408A0AD0810000632400822044B9A60044A136843F000431360704700BF000632400000674008B502498A
:40148000024800F091FE08BD405804080000674008B50146154800F0E3FC144BD3F8C03F13F0040FF9D0114BD3F8042242F48032C3F80422D3F8042222F48032C3F804226B
:4014C000D3F80422D3F8042342F48032C3F80423D3F8042322F48032C3F80423D3F804230422C3F8C02FD3F8C03F08BD0000674008B50146174800F0B3FC164BD3F8C03F7E
:4015000013F0040FF9D0134BD3F84003D3F8042242F48032C3F80422D3F8042222F48032C3F80422D3F80422D3F8042342F48032C3F80423D3F8042322F48032C3F80423C3
:40154000D3F804230422C3F8C02FD3F8C03FC0B208BD00BF0000674038B50C46054600B121B940F2AB511B4800F0AAFE22462946194800F0BBFC184AD2F80832C3F30803FE
:40158000D2F80822C2F3C032D342F4D1124BD3F8042242F48032C3F80422D3F8042222F48032C3F80422D3F80422D3F8042342F48032C3F80423D3F8042322F48032C3F8E3
:4015C0000423D3F804230422C3F8C02FD3F8C03F204638BD24AD081000006740044B1B6913F0080F01D0012070470020704700BF8002324008B54FF48051034801F024F903
:40160000024801F03DFD08BDD0E1030804D60810024A136801331360704700BF3C58040810B52021002000F0F9FE002409E0204600F024FF20B90849204600F011FF02E039
:401640000134042CF3D9042C03D9A421034800F037FE00F0BFFE10BD1116081064AD081008B5FFF7DDFF08BD10B582B002AC012344F8043D00231A461449154801F080FED0
:40168000214603F0EAFB04F067F860B14FF48472B021002004F0F5FB4FF48472B021002004F01BFC0BE0B0224FF48471002004F0E8FBB0224FF48471002004F00EFC0549E2
:4016C000002004F0F5FB02B010BD00BF8CDD0810C0DD0810B8AD0308012901D1002070474FF0FF30704700BF00487047D0F1030808B5012000F096FB08BD00BF08B50022BE
:401700001146042000F01CF908BD00BF10B5064800F0D2F900F041FE0446044800F038FA204600F03EFE10BD800804086CAD081008B5084B1B783BB9074A0021074800F084
:40174000A7FE0122034B1A70044B01229A609A6108BD00BF000A0408D4AD081000003840014B1878704700BF041634401F4B98422DD00CD840282ED003D8E8B1102828D0A8
:401780002FE0802829D0B0F5807F28D029E0184B984228D006D8B0F1204F0DD0154B984212D01EE0144B98420AD00133984209D0023B984215D101E0002070470F487047FD
:4017C0000F4870470F4870474FF4A0007047074870470D4870470D4870470D487047034870470C4870474FF4A400704706005200010000F0090000A0040000F00100520025
:401800000200520003005200010050000200500005005200FF00520008B50C4B1B69002B12DB0B4B1868FFF7A1FF0122094BC3F88C24084BD3F80C34002BFAD1054BD3F847
:401840008C34002BF5D108BD034808BD20002340040A0408000025400200500000B583B05523ADF80030002301930C49684600F0CFFCBDF90030002B08DB590903F01F0379
:40188000012202FA03F3064A42F8213002220549012000F03FFA03B05DF804FB1DAF030800E100E0F1AE030838B50369002B0DDA0D4604460B0C1B0423B140F2B3210448CF
:4018C00000F0FEFCA9B26160002038BD014838BD20AE081001008A0038B50368002B01DA002300E0094B73B90D460446C2600B0C1B0423B140F29A21054800F0E1FCA9B212
:40190000A160002038BD014838BD00BF01008A0020AE081038B504460D4619B99921064800F0CEFC2369002B03DAE3682B60002038BD024838BD00BF60AE081001008A00D7
:401940000F2840D8F8B515460E46044682B979B90F2804D940F2A911214800F0B1FC600100F1804000F50C101E4B18600020F8BD5DB366B316F01F0F2BD10F2C04D940F283
:40198000A911174800F09CFC640104F1804404F50C14144F3C607E60BD60F2080021284608F04AF900212046FFF77EFF3A4652F8040B0021FFF790FF68B900213868FFF740
:4019C00073FF50B9F8BD084870470748F8BD0648F8BD0548F8BD0548F8BD0448F8BD00BFA0AE0810140A040803018A0001018A002DE9F0411B4B1B68DC68236883422CD972
:401A00000D464609A0EB4610012303FA00F819B900F0C3FC074600E00027124B18680368002B01DA002300E00F4B83B9626852F8263018EA030F05D023EA080342F8263053
:401A4000002400E0094C0021FFF72EFF00E0084C25B9384600F0A5FC00E0064C2046BDE8F08100BF140A040801008A00020188000301880004018A000B4B1B68DB681A6842
:401A800082420CD94109A0EB4110012202FA00F05B6853F82130184203D004487047044870470448704700BF140A04080101880004018A0000018800024B1B680BB9014B48
:401AC00018607047200A04082DE9F8430446884691461E46089F2A4B1B681BB9B421294800F0EEFB072C03D9B521264800F0E8FB234B1B682C2000FB04F01C18F5B21D50B1
:401B0000C6F307236360360CA6600F2D04D940F2A9111D4800F0D4FB6D0105F1804505F50C15256165680F2D04D94FF4E271164800F0C6FB154B03EB45156561A668330C7E
:401B40001B0423B14FF4F1710F4800F0B9FB330C1B0423B140F2E3110B4800F0B1FBB3B243EA0646AE60C4F81C90C4F820800023A36117B1B7F90030A381BDE8F88300BF09
:401B8000200A0408E0AE0810A0AE081000102340F0B58FB0044618B950212C4800F090FBA369072B03D95421284800F089FBE36A1BB95621254800F083FBE368072B03D9D2
:401BC0005721224800F07CFB236A072B03D958211E4800F075FB236B1BB959211B4800F06FFB07AE04F114050FCD0FC62F6802AD26460FCE0FC533682B60079B1933ADF899
:401C00003030089B0D93A26AE16A0CAD00953B460A98FFF759FF00210091069B0A460598FFF752FF216B284600F0F2FABDF93030002B08DB590903F01F03012202FA03F3DE
:401C4000034A42F821300FB0F0BD00BFE0AE081000E100E0F8B506460F461D4614461AB9FD21264800F02CFB254B1B681BB9FE21224800F025FB072E03D9FF211F4800F091
:401C80001FFB072F04D94FF480711C4800F018FB1B4B1B682C2101FB063001FB07314B68012202FA03F31B04466802FA06F60269EAB18F69EFB91268002A01DA002200E00C
:401CC000104AC2B92288134323600369DC6001238B614D620469330C1B0423B140F29A21094800F0EDFAB2B2A2600020F8BD0748F8BD0748F8BD0648F8BD00BFE0AE0810C6
:401D0000200A040801008A00A0AE081004028A0007028A00F8B505460F461646124B1B6823B940F26111114800F0CAFA072D04D94FF4B1710D4800F0C3FA0B4B1B682C24A2
:401D400004FB0534236A23B94FF4B371074800F0B7FAE369B34204D9236A43F826700020F8BD0348F8BD00BF200A0408E0AE08100A028A0070B582B000230193044620B9B8
:401D80004FF4EA71264800F09BFA236923B940F2D511234800F094FA636923B94FF4EB711F4800F08DFA236A23B940F2D7111C4800F086FA6369DD682A0C1CD012041A60EA
:401DC0001B6820690369002B15DA01A9FFF7A2FD60B9019803681E0CDBB2E269934206D2226A52F8233013B1984700E0002631462069FFF759FDADB275B16369ADB21D60FB
:401E00001B68636A1BB198470023636202E0A36A03B198470023A36163691B6802B070BDE0AE081010B504460B4B1B6823B94FF4DA710A4800F044FA072C04D940F2B51168
:401E4000064800F03DFA044B1B682C2000FB0430FFF790FF10BD00BF200A0408E0AE0810036813F4006F01D0802200E04022D0F80832C3F30803934203D0C0F84012012087
:401E800070470020704700BF10B4D0F8003203F00F03072B06D900230DE0CC5CC0F84042013300E000239342F7D306E031F81340C0F8404201339342F8D35DF8044B7047EE
:401EC00010B51446036813F4006F01D0802200E04022D0F80832C3F30803D31AA34200D81C462246FFF7D0FF204610BDF8B507460D461446D0F8006206F00F060BE02246CF
:401F000029463846FFF7DCFF072E01D9430000E003461D44241A002CF1D1F8BD002800F03081F8B50546002900F02D810B78012B03D19948854200F02881087F18B19648AC
:401F4000854240F0248116460C46012B03D94C21924800F0B5F96378012B07D9052B05D0022B03D04D218D4800F0AAF9A378032B03D94E21894800F0A3F92378012B07D1D8
:401F80006368023B0E2B03D95021844800F098F9A36933F00F0303D05121804800F090F9A368043B0C2B03D952217C4800F088F9E368043B0C2B03D95321784800F080F940
:401FC0006378022B07D0A268E3689A4203D05421724800F075F9636A33F06D0303D056216E4800F06DF9E36A33F0730303D057216A4800F065F9236B33F4206303D0582106
:40200000664800F05DF96378A778052B07D8DFE803F0060305060603022700E00027A368082B04D8E368082B03D9002302E0002300E0012313B14FF4006200E00022217FF1
:4020400011B14FF4807300E000231A436368013B03F00F03134343F080732B60236A2A6812F4006F01D0802200E04022934203D365214A4800F024F9A36A2A6812F4006FC8
:4020800001D0802200E04022934203D36621434800F016F9237D0BB9012100E000216278052A01D1022300E000230B43E17C09B1102100E000210B43617C09B1202100E088
:4020C00000210B432178012902D14FF0004100E000210B43BF0007F00C073B43A169090201F470610B43120602F0407213432B62237C13B14FF4807200E00022A17C11B184
:402100004FF4007300E000231A43A368013B03F00F031343C5F8003394F82030C5F80433237C13B14FF4807200E00022E368013B03F00F031343C5F8003294F82830C5F81B
:402140000432636A03F06D03C5F8C83FE36A03F07303C5F8883F236B03F40073C5F8003F236B03F40063C5F8403F0023C5F8C83E7EB118463360B361F360F361084B33623A
:40218000F8BD084870470748F8BD0648F8BD0548F8BD0020F8BD00BF0000694064AF0810EFCDAB000140AA00036823F00043036019B100220A60CA608A61036A002B04DB9A
:4021C0000023C0F8C83FC0F8883F704738B50C4B9A680C4B9A420ED10D46044619B9FC21094800F06DF804F11003064A52F8230042F8235038BD1030044B53F8200038BDE7
:4022000000ED00E000400208A4AF08100000081070B338B504460D464368072B03D93621154800F04DF8B4F900306268002B08DB5201D2B203F1604303F5614383F8002358
:4022400005E003F00F035201D2B20C49CA540C4B9A680C4B9A420DD11DB94521064800F02FF82946B4F90000FFF7B0FF002038BD05487047002038BDA4AF081014ED00E0E4
:4022800000ED00E0004002080100560010B5044605E0084B186800F077F8A4F50044B4F5004FF6D8044B186800FB04F000F06CF810BD00BFB4AD0308B0AD030801BEFEE7D1
:4022C00038B50D46044C18220146204607F0C4FCA5610020FFF7F2FF40B30308FEE700BF08B50268254BDA6142681A6282685A62C2689A620269DA6242691A6382695A63C6
:40230000C2699A631E4A916AD963D16A1964516A5964516B9964926BDA64F1EE103A13F0900F27D0026A154B1A65426A5A65826A9A65C26ADA65026B1A66426B5A66826B9D
:402340009A66C26BDA66026C1A67426C5A67826C9A67C26CDA67026DC3F88020426DC3F88420826DC3F88820C26DC3F88C20026EC3F89020FFF7B2FF08BD00BF40B3030870
:4023800000ED00E0000000000230800803D001300238FCD100BF00BF7047EFF3108072B6704780F310887047084B1B6813F4803F07D17047064B53F8243003B19847013460
:4023C00001E010B50024042CF4D910BD10E000E0540A0408044B1A6842F002021A601A6842F001021A60704710E000E0042805D1084A136843F0040313607047000600F0AD
:402400004070054BC3F84002024A136823F004031360704710E000E00000214010B50C46002304E000210A4A42F823100133042BF8D9084A084BDA63FFF7D8FF24F07F44A9
:40244000064B5C6000229A60FFF7C4FF10BD00BF540A0408A92308100040020810E000E00346042805D8044A52F8200042F8231070470020704700BF540A0408042803D851
:40248000024B53F82000704700207047540A040800287DD00346002A7CD070B45068000280B29568AD0405F480252843D468240404F4403404431069000600F0E060204348
:4024C000147F0CB1012400E0002420430C1DA4011851D06828B903EB81100024C0F808410CE0012805D1146803EB8110C0F8084104E003EB81100124C0F80841106938B932
:40250000546903EB8110C0F80C419469C0F81041146803EB8110C0F81441906CB0F1FF3F17D0946A04F00F04166B360206F470663443956B2D0405F470252543146C2403B7
:40254000A4B22C430001C0B2204303EB8114C4F82001506A00F00300D66A360106F030063043556B2D0205F440752843D46BA401E4B20443506C800000F00C00204303EB4B
:402580008113C3F82401126AC3F83821002003E0024870470148704770BC70470100B600F0B51B4C85B02668F76C3D18306DBC1841180191C718337E02A9013B9BB2EA1ACE
:4025C0000A801A198A80019A0800D21ADB194A80CB8004F079F9002818D022000199280002F092FC22003900280002F08DFC019B7A1E5E1C3100280002F0ACFC7A1E31003A
:40260000200002F0A7FC04F0AFF8E4E705B0F0BDDCAD030810B50622835E0421425E0224015F0024005FFFF7BBFF10BD064B5A68596B01325A60C2008A18596A51600021B3
:40264000117058627047C046645804080F2330B542680E4CD90009190D6C2100AA4202D2013BF7D211E00F2B0FD82468A21A0A608268C068002A00D05060002801D002604A
:4026800003E00833DB00CB185A6030BD64580408F8B5284C0600E368A26B013B0818D3180D00984206D80368002B03D14368F618FFF7CCFFA36B9D420BD92B1F1F68EF1BB4
:4026C0003B68002B05D17B683800F6183D00FFF7BDFF0F23DA00A218126C964202D2013BF8D225E00F2B23D80833DA00A21850680022A91904392A606E60A8602D610E60EA
:4027000029000831904200D04160EA602200DB00E318A860596023682932F31823601278002A05D1E268D31AA268934200D9A3603000F8BD64580408F0B5234B87B09C6B03
:40274000DB680490013BE318039323686568002B30D1039B6719BB422CD93B680293002B28D0194EDB00726B9B5C012B22D17B6820000193F36A0593FFF768FF3B68726B18
:40278000DB00D3185C60019A3900200007F039FA029B059A934202D1736B5B1B7363019B2800E118FFF774FF049B002B01D0984206D2019D039B6419A342C6D8012000E0BB
:4027C000002007B0F0BDC04664580408002806D0034BDA6B0260002A00D05060D863704764580408034BC0005B6B1818406808307047C04664580408064A10B5D369013342
:40280000D361526BC300D3181A7801321A70FFF7E9FF10BD64580408036810B5083B094C1B68626BDB00D3181A78012A04D9E169002901D00139E161013A1A7000230360B4
:40284000180010BD645804080322024B9143186059607047680A040810B5041E0BD0064B5A6BC300D3185B6819005868FFF710FF2000FFF7DBFE10BD64580408F7B5224D39
:40288000EB6A002B07D1214B99685868083106F069FD841C03E02B691C1DDB08E418E00000F0CAF80126071E2CD06A6BC300D3185E68EB6A083601932B69696BDA00144BE4
:4028C00030001B68984729696E630B00CA000432EF62B218601E834203D2013313600832F9E7DB00F31800265E60074B5A685962511A091959601C61019BB34202D018000D
:40290000FFF7AAFF3000FEBD64580408680A040800AE030870B5184C230028331A78002A29D101321A70154B0F32DA609A68002A02D15A6892089A605A221025226200220D
:4029400028009040D100611801320864102AF7D15868196803000125143BCB180E3A22616363A163E0605D6065626560FFF790FEFFF784FF256370BD64580408680A0408C2
:40298000F0B5040085B0FFF7C5FF0323294E03349C43376C201DB84200D30700F26B1400002C06D0231F196823688F4232D01C00F6E7F268B36B944663440193043B02932A
:4029C0001B680393039A019B9D1A2B68002B06D02000FFF7B1FE029B1D68019B5D1B2B68002B23D16B689F4220DC28001C1DFFF72DFEF368E41BDB1BF36073692C19DB19A3
:402A000073616B68D81B02D02900FFF741FE231F1F600BE0002B01D0616859606168002900D00B60A24201D12368F363200005B0F0BDC04664580408F0B585B00400FFF7BA
:402A400069FF3C4D2E6CB44203D3032303349C4326002B680C360196B34241D32B6B6A689A420FD96B686F6A013B6B60FB0003936B6BFA009B185A686A6201221A70002FCB
:402A80000AD12DE0013B2B63FFF7F8FE2B6B01332B630028E6D023E00F23DA00AA18126C964201D2013BF8D21A00DB004433EB180F2A0DD81968002907D08C68002C04D040
:402AC00061688E420ED9A168F5E701320833EFE73000FFF731FE0028DED03800FFF7A6FD002723E0636802939E1B2B6C0C339E4201D2029B01932000FFF7A8FD6B6B039A06
:402B00009B185C60019B019A63600023A360019B2760E1180B1F24611A601300029A934204DA1300019A981AFFF7B2FD380005B0F0BDC04664580408002310B5984202D05E
:402B4000FFF77AFF0300180010BD000037B50500FFF7F2FF041E0AD0FFF74EFE054B01901B682A000021984701A8FFF755FE20003EBDC04604AE0308514BF0B51B688FB087
:402B8000DA69D469A589A84208DBE189814205D32168451B09910121494215E0A168002900D184E00D88A84200DA80E04E8886427DD3451B4968A8B26668800008180996EA
:402BC0000021455E0221415E0891691C6FD022215E5E2420195E0691127E0A92A27C0A9951430C91227C0B922A229B5E1800079302F054F9324F0D903A680699D369926B7A
:402C0000300005920C9A5543099A551904950125A27C02950392DA7E01929B7E0B9A00930A9B02F0CDFA089B01331BD00220079B184302F033F93B680899DA699B6B30001F
:402C400005930C9B4B430999CB180493A37C02950393D37E06990193937E0B9A00930A9B02F0AEFA164D2B68DB695A7E1B7E9A4217D9079B022B14D00420584002F00EF934
:402C80002B68069AD8690B99437E057E9B18827E51438A19C17E069869430918300002F07FF96B4634229B18187802F0F7F8044B617C1A68538CCB1853840FB0F0BDC046A6
:402CC000DCAD0308044B1B68DB69DB69002901D01A7C0A60587C7047DCAD030802230B80704710B5C3699A89914203DBDA8901208A4210D29B68181E0DD01A8800209142C4
:402D000009D35C888C4206D3891A5B688900C85AC04380B2C00B10BD002807D003888B4202D843888B4201D28068F5E770470000F0B5334F8BB03B6804002A215A5EDB69E7
:402D40000100D8690792FFF7E7FF002855D00388E41A4368E4001E190798B47802F09EF839680990CD6932782B7E08932423C85E84462223C85E896B089B05917168039410
:402D8000049101210291E97E0191A97E0091614602F016FA3B68DB695C7E1A7E089294421FD9079A022A1CD0DD7E00F088F8079000F07FF800F006F93A682423D15E2223E0
:402DC000D05E2300D2696B43D47E32785B186243089C12186543691802F0E2F8079800F0F1F8099802F05AF8054B71781B68DA69927E4A43598C52185A840BB0F0BDC0462E
:402E0000DCAD03080C4B70B51B680400DE690D000100F069FFF780FF00280CD002884368A41AE4001C196078B37E5843002D02D0227853432B6070BDDCAD030801230B80FA
:402E4000704710B5C069FFF767FF431E9841C0B210BDFF2230B5040014400A40A21A92B213B2002B01DA524213B25B431D00FF23020A1A4014000A0A1340E21A92B213B249
:402E8000002B01DA524213B2000C5B43090C411A89B208B25B19002801DA494208B280B24043C01830BD10B5002801D003F080FE10BD10B502F0ECFB02F0F2FA10BD10B564
:402EC00002F0EEFB02F0ECFA10BD70B500282CD0002926D0002A25D013880D881C1C2EB21BB2B34200DD2C1C048053884D881C1C2EB21BB2B34200DD2C1C448093888D8875
:402F00001C1C2EB21BB2B34200DA2C1C8480D388C9881A1C0CB21BB2A34200DA0A1CC28003E01100082206F061FE70BD00280DD0038889B2CB180380838892B2C918438831
:402F40008180D3184380C388D218C28070470000024B1B685884998400207047DCAD0308024B1B681A7E187610007047DCAD030830B503000222845E06200A5E002094427D
:402F800013DC02228C5E06255A5F94420DDC00229C5E04254A5F944207DC00228A5E0421595ED00FCB179142584130BD10B502F02FFF02F0A9FF03F007FD10BD10B502F0D0
:402FC000B3FA10BD10B502F0B7FA10BD034B021E1B68D86900D0DA617047C046DCAD0308084B10B51880084B0A001980074B08491B685B7C9B005B58D9680C6A01001800D3
:40300000A04710BD4C5904083C590408DCAD030874590408034B1B682C215A5E988510007047C046DCAD0308034B1B682A215A5E588510007047C046DCAD030870B500246E
:40304000094D0A4E10C53368210028007022984733680422210006489847064B1D60064B1C70064B1C6070BD780A040804AE030874590408DCAD03085C59040838590408AE
:40308000014BD8607047C046DCAD0308F0B50700160085B00C000420019301F0FFFE114B00901A68D36CDD199E19176D019B3C19FF1802AB18001D809E805C80DF8003F0FE
:4030C00003FC002804D1009801F0E8FE05B0F0BD3B0032002100280001F062FF03F044FBEFE7C046DCAD0308002110B50800FFF72FFF034A034813000100FFF7C7FF10BD12
:40310000FF3F000001C0FFFF024BDA6FD86742607047C046780A0408084B10B51A68002A0AD101321A60FEF765FAFEF79DFA0448044B0360FFF7E8FF10BDC046780A040868
:40314000F80A04083D30081070B5FFF7E5FF2E22314B1A70FEF784FA304C314D2100314B0C3123672B681A1DDA630432A2619B631B645B7C2C4A9B009858C3681B6B984771
:403180002A4B6366EB6823622B680833A36101232377E37703F01CFD2300032268331A70234BE064606F6363A36302F0BDF9A86802F0C2F91F4A204B1A6002F017F905008F
:4031C00002F014FB060002F017FB002E01D0002808D102F0FBFA060002F0FDFA0100300002F0FEFA00210800FFF7FAFE03F03AFCA36F002B0AD0A36F002B07D01B68002BBA
:4032000000D09847A36F5B68A367F4E701220B4B28001A7070BDC0462D590408780A0408DCAD030824DD0810745904081CDD0810785634FF7CDD08106C5904085459040814
:403240000300002083420ADC054A9B009858002805D0C3681B68002B01D00068F7E770477459040810B5FFF7B1FA10BDF8B506000D0017001C1E01DD00201BE01C20FFF7BA
:403280007FFB0028F8D0002D01D005610BE00A4BA200D358002B06D01A68002A01D01300FAE71B690361002384618782C660036043608360F8BDC0467459040883690C49E4
:4032C0009A0010B554580368A04204D15350002B01D000225A604268002A00D013600368002B00D05A6000230360436010BDC0467459040830B5002801D101203BE0826914
:40330000002AFADC1C4B19788A4201DB012119701A49920053580D00002B02D15050180029E05968002901D00B00FAE7C1680968DC6824688C4203DD1B68002BF8D1DCE7DD
:403340008C420AD1848A012C07D11C68002C04D02300E4682468A142F7DD5968002902D00860416000E0A85058600022984200D01A000260002030BD25590408745904084E
:4033800070B51C00FFF772FF051E0AD0FFF7B2FFEB681B68002B04D1034B16341B68A400E550280070BDC046DCAD0308F0B5040087B0002800D17BE003F082FD3D4D029046
:4033C0002B6822229B5E039303F064FD2A6883B20093938C00995B1A93842378002B5AD03549200003F0D8FD01000600200003F0FDFD304B1A680323918D19400300012944
:4034000005D00023022902D1C30F1B185B10518C04ADCB1A9BB219B25184298081B2019101395B18AB802423D35E6A4617896B80013BFB182A0020003100EB8003F004FEA3
:403440001C4D04AB5B882A6820009384310000F063FD241823780A2B01D00D2B12D103212B689A8D0A40013A012A02D86A46928900E01A8C5A8422780A2A09D19A8CBF18D3
:403480009F8405E004AA1088019A2B68101858842378002B0AD10321064B009A1B68988C10189A8D98848A439A8501E0013494E707B0F0BDDCAD0308FF7F000010B5034BC4
:4034C0001B6859849A84FFF771FF10BDDCAD0308F0B58BB0059004920C000822002106A8009306F0A9FB03F0EBFC059B0290039308AD002C05D008222100280006F076FB18
:4035000002E02800FFF7CFFC0C24049B1C4002D10223EC5E33E00025009E002E11D03100059803F039FD0100361A059800F0F4FC059B01351818059005A803F047FC002803
:40354000EBD0082C03D00C2C09D0042C16D108AB06229B5E029A55435C1B01340FE008AB02229C5E06229B5E029A1B1B554301335D1BEB0F5D196D102C1900E0002400265A
:40358000039B0593009B002B00D187E00099059803F002FD009B01901B1A01000598009303F024FD0322049B1340012B13D0022B05D0002B14D108AB00269E5F10E008AB58
:4035C00000215A5E04215B5E9B1A1B1AD90FCB185B109E1804E008AB04229B5E1B1A5E1C3D4F06AD396823B28B846B80029B013832B28019013B4A841B192A80A8802A009D
:4036000001990598EB8003F01FFD344B1B78002B34D002223B685B8D13422FD1039B059A93420DD108A80222AB5E0222815E8B4206DD0425425F013B0025405FFFF726FD31
:4036400006A90023CA5E08AB0020185E824206DD06254B5F013A0225495FFFF717FD06A90423C85E08AB04229A5E904206DA06254B5F01300225495FFFF708FD01990598F1
:4036800000F04AFC059B1818059003F019FC241805A803F09BFB002800D173E70F4B1B78002B17D00C4B1B685B8D9B0712D4039B059A93420ED006AB08A80621595E062202
:4036C000835E994206DA0424025F01310024005FFFF7DCFC0BB0F0BDDCAD0308080B0408F0B585B006000C0017000193002817D00D1E0CD0080003F0E3FA051E07D0020086
:40370000210002A803F091FB02A803F0D9FA3000019B3A002100FFF7DBFE280003F0D0FA05B0F0BDF0B589B003930E9B02900D001700002B03D1039BFFF7D2FF3DE0082214
:4037400006A8002903D106F077FA2C0013E006F04DFA082206A91A4806F048FA280003F0AFFA041E07D00200290004A803F05DFB04A803F0A5FA0022124E134D336806A820
:4037800001932B685A610E9B33605B689847039B3A0006A90298FFF79BFE200003F090FA019A3300002A02D02A68002102E02A68110008315161019A1A6009B0F0BDC0468E
:4037C0008059040830590408DCAD030873B50E4E3368DA6C1B6D84186A46CD1823B29380138068462BB2D380538003F06DF8002808D0336829001B6E20005B68984702F018
:40380000B3FFF4E773BDC046DCAD030810B5084B1B681A7E012A03D11B6E5B68984705E0013AD30F9A18521003F05CFC10BDC046DCAD030810B51F4A030012680020927E31
:40384000013A032A35D8100005F078FD020F1D25194A0633134004D51022013B524213430133D80F00210B220AE0144A134004D50422013B52421343013300210122D80F5E
:403880009A42484115E01421180005F08BFD01200B2909DC0DE01821180005F083FD01200B2906DD042399430023103988425B41180010BDDCAD03080F000080030000805F
:4038C0008023000530B5000D1B010021984202DD104A013180188022D200904200DD181A3F23402482111840201A0B4D83B25000405B5843A34207D0102A05D00132520071
:40390000525BE31A5343C01820308009002900D0404230BD00F8FFFF38DD0810802310B5DB00C018FFF7CCFF10BD0000F0B587B002910299141A5F1A210001900C9D3943DA
:4039400003D10299FFF762FFBFE0F917E61778184840A11971400026049688420BDD21003C000F0011001A000B00019902980291012101900491E0172118414001200390CA
:40398000A14208D00293019B01921A0001235B4264427F4203932E68002F3FD14C4B04991B6800291BD09B7E3700002B13D10199029801F0CFFA88E03800FFF73BFF0028CB
:4039C00008D1019B0298991B414BC9191B681B6E5B6898470137BB1BA342EDDD1BE0997E3700002914D11B6E02991B68019898476BE03800FFF71EFF002808D1019B0299E7
:403A0000981B334BC0191B681B6E5B6898470137BB1B9C42EDDA013F2F6056E0E30F1B195B10002F00DA5B42294A1268927E002A19D11D00019E019BF31A9C4245DB21004A
:403A4000280005F0A1FC029B049AC018204B31001B681B6E5B68002A01D10100300098470136ED19E7E7039A013201D1A6192E60019E0593019B2868F31A9C421CDB039B25
:403A800018182860FFF7D6FE002810D12100059805F07AFC029B049AC0180D4B31001B681B6E5B68002A01D1010030009847059B0136DB190593DDE7039B013301D10419F3
:403AC0002C602B68039A9B1A2B6007B0F0BDC046DCAD0308F0B58BB00593634B03901B6804921E7E0F00012E05D1109B0093059BFFF71CFFB5E0039B049A991A059BF81A25
:403B00000B00034300D1ACE00024013EA14201DA49420134002802DA022340421C43814204DA04231C430B00010018004B108002181805F029FC10254C4983119C468006B4
:403B400022315B00000F5B5E2D1A6B43102D05D0624601325200525E50431B180F220833DD171540ED182D11630702D58023DB005D1BE30702D580231B015D1BA30702D57D
:403B800080235B015D1B8023DB00ED182800FFF7C5FE704304002800FFF792FE4643002C05DA80208000041BA412644203E080239B00E418A412002E05DA80208000861BF5
:403BC000B612764203E080239B00F618B612002C02DD621C521005E0E20F1219013CE00F521004196410002E02DD731C5B1005E0F30F9B19013EF00F5B1086196946898998
:403C000092B206A894468A1802809DB2BAB2531943806B467610B6B2921BC2801A8A9B8AA4B29E1BEB18C3810023091B141B624481800481828146811A00042100F062F808
:403C4000094C23685B7E002B03D139000398FFF7DDFD23685B7E002B03D105990498FFF7D5FD0BB0F0BDC046DCAD030838DD08101FB50024039403AC0094FFF72BFF1FBD86
:403C8000F7B51F000B4B00901B68002001911600DD6C1C6D02F018FE00280AD001990098E319AA1961182818FFF7E2FF02F05CFDF2E7F7BDDCAD0308F7B511490A68019135
:403CC0000B2A1BDC002A01DC002311E0019B00251C1D5300E41813005E1EB446AE1EA75F874205DB634667533500002BF4D1EBE701995B00CB18013298800A60F7BDC0468F
:403D00000C0B0408F0B587B00292002204936E4B039001936D4B059105998A420DDA0398910041180220095E8B4200DD0B000198884200DA01910132EEE7654A126851693B
:403D400000290ED006200A5E0498121A0198904200DD019202228A5E0499521A934200DA1300049A9B180093009B049A9C1A019BA34200DAA6E00025564B039E1D60059BFC
:403D80009D425CDA059B00215F1EBD4200DA691C0223F25E039B8900591802200B5E94461800A24239D1A34203D000212A008C461EE00023F75E029BFF180023C85E029BF5
:403DC0003A00C018424B1B681B6E1B68874221DA0200009938001EE0002A0CD0013A0398910041180220095EA14206D101218C446745F1DC20E03A00F1E7091B1B1B0022FE
:403E0000B05E59404BD4029BC0180200304B1B681B6E1B68009998470EE0A3420CD002DBA2423FDD02E0A24206DB01E0A34203DC9A423DDCA2421FDD013504369FE70024FC
:403E400020002500234B1A68954212DA04336A00D65E002C08D0029B00999A1918181C4B1B681B6E1B689847012330005C40ED18E8E7009B013376E7A342DDDB0023F75E7E
:403E80000023C95E63466246C91BE31A4B43811A4810002B13DDC01805F076FAC019FFF70BFFC9E79A42E9DDA342C5DCA242C3DB0027CF5F9C460020315E1000E2E7013882
:403EC000181AE9E707B0F0BD01C0FFFFFF3F0000DCAD03080C0B0408044B10B51A68002A00D1186000F036F810BDC046280B0408F8B5084F06683B6804001B6830009847C4
:403F00003B6805005B6830009847301820602800F8BDC0466C59040870B506000D000024002D08D0054B30001B68013D5B68984736182418F4E7200070BDC0466C590408BE
:403F40000078704701207047012070470170012070470000034B10B51B68002B00D0984710BDC046880B04080200FF231100000A194010B51840120C40181340C018803031
:403F8000FF30024905F000FA10BDC046FD020000002800D000487047FFFFFF0001207047F7B58068C46A856B624307245218D2080192026A0C409200002D18D0802121413F
:403FC000CCB2A446C94301248218151F019E2D68AD192F783E000E40234201D066463E436400043A2E70E4B29042EED117E001210D00A540ECB2A446ED438218141F019E34
:404000002468A41927783E002E400B4201D066463E434900043A2670C9B29042EED1F7BD70B5072584680D40E36AA06B5A43236A5218D2089B00002810D0802129410020A6
:40404000CDB20121E318043B1E68B65C2E4200D008434900C9B29C42F5D10EE001210E00AE40E318F5B2043B1E68B65C2E4200D008434900C9B29C42F5D170BDF8B50D007B
:4040800016000400FFF7CCFF070023699B6898473B003200434029002000FFF781FFF8BDF0B580688BB00090066AC06A5B1A42435F1CA44B5218D2081B6801900392009871
:4040C0001A7C806BD20779D50722082311405B1A002839D0F8321000DD1B0841AA40C4B21040C2B238009F4200DD1800381A009D0190B00028189F4200DB221CD3B29C464F
:40410000FF25031F039A1B689B183A00002905D064461A7862401A70019A0133072A05DD1E78083AF6431E700133F7E7002A06D00824A21A2C0094401E7866401E70009BE6
:4041400004388342DDD1FAE0FF221000DD1B88402A41C4B21040C2B238009F4200DD1800381A009D0190B00028189F4200DB221CD3B29C46FF25031F039A1B689B183A00EE
:40418000002905D064461A7862401A70019A0133072A05DD1E78083AF6431E700133F7E7002A06D00824A21A2C0014411E7866401E70009B04388342DDD1C0E00722DB6B7A
:4041C00011401B68FF22019308230491591A130000285AD00498CC1B0341A2401A40D8B2D3B23A008F4200DD0A00BA1A09928F4200DB031CDAB2DB435BB208930123079251
