:400000000010002011000000490300004903000010B500F0A1F9C04670B51E4C23688022D20213432360182001F0F8FE22681A4B13402360194A1A4B1A602122194B1A60E2
:40004000013A194B1A60103A184B1A600132184B1A601F32174B1A6080221206164B1A6000252560154A164B1A60164A164B1A60164B174A1360174A1360174A174B1A6009
:400080001749092001F088FE092001F06FFE154B1D6070BD00010B40FFFFFBFF0600008004010B400C0202401402024018020240200202402402024008010B40FE000080F3
:4000C00000000240FE0000C04000024001000080800002400400024002000080440002402D2000000C020B4010B572B600240FE02B486200131959000B00411889881A5A04
:40010000C31858880004104300F0F2F80134E4B2012CEDD9224801000C314C3000F0CEF8CC2292011F4B1A601F4A204B1A6099231B041F4A1360D02149031E4A11601E4A53
:4001400013601E4A1360802292051D4B1A601D4803783C218B4314221343DBB203701A4A107816230343DBB213700C22174B1A60D8221201164B1A60164B19603E22164B77
:400180001A603B3A154B1A60154A164B1A600422154B1A60FFF740FF00F0D0F810BDC0465829000000000140EEEE00000C00014000500F4008500F4010500F4030500F40CD
:4001C00038500F4001700F4000700F400000044008000440000104401801044000030440A40D0000080304401804044010B5064C2378002B07D1054B002B02D0044800E0A2
:4002000000BF0123237010BD480100200000000054290000084B10B5002B03D00749084800E000BF07480368002B00D110BD064B002BFBD09847F9E7000000004C0100204A
:4002400054290000C00000200000000010B562B601F000FB174A7021702001F091FB00F0D3F802F009F801F095FF00F069FC00F029FC0028FBD100F0EBF800F0A1FA00F07A
:400280009FFA00F069FA002810D0002000F074FA040080B2084B984208D06423181A80B201F098FF2004000C01F022FF00F048FCDDE7C046F4010020FFFF0000F0B5002501
:4002C000002711E0BB00C658F3B2FF22964308E06A008A181478A419527822700135013BDBB2002BF4D10137062FEBD9F0BDC04610B50A00002102F024FB10BD0C4B1B685A
:40030000002803D080221206134301E05B005B08074A1360074B1B68002803D080229204134301E0044A1340024A13607047C04680031A4008010B40FFFFFFFD10B50120E2
:40034000FFF7DCFF10BDC04610B502F0C5FA03680C2B00D1FEE7FEE770B50F4E0F4D13E029686B68AC68002202E001C901C30432A242FAD1E868002202E0002102C30432F6
:400380008242FAD11035013E002EE9D102F0AAFAFFF75CFFFEE7C046010000001C2B000010B500230AE0032B03D89A000949505800E009489900094A885001332F2BF2D96B
:4003C000FFF792FE8022D205116801230B43136010BDC04600000000490300000000002010B5084B1B78002B06D100F07BF900F0DDF90122034B1A7000F04CF800F056FD18
:4004000010BDC0466401002070B5FFF7E9FF051E02D100F0F3FC0500002D02D100F090FB0500002D02D00BE0013C00E0074C00F049FB002801D0002CF6D1002C00D110255B
:4004400000F0C8FA00F08CFA280070BD404B4C0070B50E4E0025002413E0630904339B000B4A9B581F222240D340DB0707D5300000F06EF805003100200000F005F92C3645
:400480000134002CE9D0280070BDC046C8290000F401002030B5002309E018491A1D92008818002444600120404250500133002BF3D0134A01231DE05568937E0F484018DE
:4004C00000240476023BDBB2012B11D81369002B01D0E87918705468002307E0180008304000201801256D4285800133002BF5D02C320B00591E002BDED130BDF4010020D6
:40050000C829000010B582B0040008001300628869460A80628A01F0F5FF6B461B8863806B469B7823716B46DB7863716B461B79A37102B010BDC04630B50B884A889C1A7B
:400540000025CD800079844200DDCC8030BDC046F0B5574680B482B0824684684568837E0193476A00260023009316E0698A20883A0001F0F4FF320039002800FFF7C2FF8A
:400580000C37019A2100280000F032FA009021002800FFF7D1FF0A34013653461B8B9E42E4D3009802B004BC9246F0BDF0B5474680B482B084460F000B8B8A684D6809695F
:4005C0008846002803D16888A979401802E06988A879081A0024012109E0D388984201D3002300E00B001C430A32490033005E1E002BF2D1002C0CD043461B78002B02D0C9
:40060000013B4246137043461B78002B04D0644602E0EB7942461370002C0AD06B88AA799A1A3E8B3100B86801F04EF8002802D123E0002021E0BB7E022B1ED1396A002302
:40064000320001A801F0ACF800220BE0530002A98C466344043B1988130008335B00EB18998001329042F1D807E0030008335B00EB18012252429A8001300028F5D0200081
:4006800002B004BC9046F0BD70B504008B7E144A1218157E023BDBB2012B04D82800FFF785FF050002E0002001F074FB0C4B1B191D7663091F2214401E3AA240002D07D1BF
:4006C00004339B000649CB1859689143596006E004339B000249CB1859680A435A6070BDF401002070B5184C70220021200002F028F9164B23808023DB006380144BA38062
:4007000003226D23E2546B3B2377124D20001E3029003431133202F00BF92A002C00083401230CE0A168238B04E013784B7201320A310300581E002BF7D12C342B005D1E93
:40074000002BEFD170BDC046F401002084530000B80B0000C02900000123002006E0131D9B000449CB185B68184313005A1E002BF5D17047F401002000280FD12C2343435B
:40078000084AD31822331B78023BDBB2012B07D82C2358431018C368988A02E0024800E001487047C0290000FFFF00000023024AD380024A13607047F4010020A8010020D7
:4007C00070B5002500263E4B1B68032B06D101F06DFD01223B4BDA8001F06CFD394BDC88E4B2062C23D8A300374AD3589F460122334B1A6001261AE00022314B1A60012666
:4008000015E0FFF701FE00222D4B1A60012501260DE002222A4B1A60012608E00022284B1A60012603E00322254B1A600026002E0FD001F03BFD234BDB88DBB29C4205D1C8
:40084000204AD188214B0B439BB2D38001F032FD00261B4B1B68012BB5D0022B2DD1194A6433D35CDBB26721525CD2B2002B24D13B39594316484118098B8A421DD2114950
:40088000088980B26824095B89B2884215D02C214B430F49CB189C6893009A185300E41801F004FD074B1A8992B268215A52228892B202315A5201F0FDFC280070BDC0467B
:4008C000A8010020F4010020982A00000080FFFFC8290000FF231940062902D08318002119715300195AC31859808218002313727047C04670B506000D00012305E022004B
:4009000029003000FFF7E6FF23005C1E002BF6D170BDC04610B52C235843064B1B188A00511848009A6894466044997EFFF7E2FF10BDC046C829000070B505002C23434322
:40094000064AD3181B8B04E021002800FFF7E2FF23005C1E002BF7D170BDC046C829000010B5012303E02000FFF7E6FF23005C1E002BF8D110BDC046F8B505002C2343432C
:400980000D4AD3185E681B8B11E02C236B430A4AD3189F68A20012195000596A63001B199A008A18718A385A01F0CDFD23005C1E002BEAD1F8BDC046C829000010B5012342
:4009C00003E02000FFF7D8FF23005C1E002BF8D110BDC04610B5FFF7F1FF10BD9840504380235B009A1A51434018000A7047C046F0B5474680B482B007000E000192012317
:400A00003EE06300985BF3185988884205D3431A321900251572012201E00B1A0022002A11D17D79AB420ED933191B7A3A7A934205D3220001993000FFF74CFF1FE0321986
:400A4000013313721BE03D79AB4204D97D79AB4215D8002A13D1FF23019A1340062B0ED00902331998461B79194308230122FFF7B5FF020A6300F3185A804346187123009F
:400A80005C1E002BBDD1002002B004BC9046F0BD30B5084803680F24A3431900064D2B780F2213400B43E13293432A78A2431343036030BD00FF084062F1FF0F10B5FFF7DB
:400AC000E7FF10BD024BDB68802018407047C046F401002010B50E4BDB68DB030DD400280DD1430904339B00094A9B581F220240D340DB0705D4012404E0112402E00124C9
:400B000000E00024002C01D100F092FC200010BDF401002010B5084BDB68DB0307D4074B1B78012B05D100F0DBFB002003E0112001E00120404210BDF4010020AC0100200B
:400B400010B50C4BDB681B0612D40024012040420BE02000FFF7BEFF002805D10022064B5A70FFF7D7FF04E00134002CF1D000E0112010BDF4010020AC010020F8B54F467B
:400B80004646C0B401280BD0022804D0002399460633984607E0052399460023984602E0002399469846144C00251FE001F07EFB2268136821698B43136066683268A77E1E
:400BC0000721B9408A434146B9400A433260227E494691400B4322681360A268136861698B43136001F066FB1C340135042DDDD90CBC90469946F8BD0C2A00007047C046E9
:400C0000084B1A68520052081A601A68120C12040138104318601A68802109060A431A607047C04600000240084B1A68520052081A601A68120C12040138104318601A68D0
:400C4000802109060A431A607047C046400002402C235843024B1818436898897047C046C829000042004003801A01238B40013B984205D911028A1A934203D3402002E037
:400C8000C02000E00020C0B27047C04610B50C00FFF7DEFF40002188FFF7E4FFA07310BDF0B5474680B488B005002C2343434A4AD3185C689F68494B197F494801F096FCDD
:400CC00043089846FA26B60018007043454901F08DFCB04200D83000434B9C466044FA21890001F083FC0600C30700D5013601AB4246DA82FA2292001A82C8325A82228AC8
:400D00009A822200123204920C2323803749404601F06CFCA0810023A3735521280000F099FC002100239C46002207E07B7A994202D239888C4619000A3701322C236B43FD
:400D40002548C318DB7E9A42F0D3637A01AFBB76F976A37ADB00264AD3185B6802930C239846A04443460393FA239B0060465843204901F03BFC3883380001F055FB0190FC
:400D800001E05B00A381A3899E42FAD81A4B984201D8002600E006265521280000F05AFCA37ADB00124AD3185B6801A84360637A83764346836001F067FB208021002800FB
:400DC000FFF764FF5521280000F044FC304308B004BC9046F0BDC046C8290000F4010020C05D000038310000E7030000DC050000B42A0000FF0F0000880D010070B5002436
:400E0000002504E02000FFF74BFF05430134002CF8D0280070BDC04610B5002408E02C236343054AD31859682000FFF72FFF0134002CF4D010BDC046C829000070B5050065
:400E40000E00140001F032FA2B685C4034405C402C6001F02FFA70BD10B50022F02109010248FFF7EBFF00F0D1FA10BD1000014010B504000C4B1B78834214D0012B01D1C2
:400E8000FFF7EAFF012C05D100F03EF90122064B1A7008E0022C06D0042C04D0032C02D00022014B1A7010BDAC01002010B5FFF705FEFFF7B1FF0020FFF760FE00216D231F
:400EC000044AD1540020FFF7D3FF0120FFF7D0FF002010BDF4010020014A024B1A6070470002000108000840F0B5474680B482B005002C234343224AD3185A689C68138869
:400F000001279F40013F0A2902D908000A3800E000200A23984688444346642B01D9642398467843642101F061FB060040467843642101F05BFB020000270023019313E071
:400F40004B00185B864208D80B00824201D207E00123591E002BF3D104E00623019301E0062301930A3401372C236B430449CB181B8B9F42ECD3019802B004BC9046F0BD42
:400F8000C8290000F8B54F464646C0B4070046688468B57AA84601237F200022914608E0B3185B7A994500D29946984200D9180013005A1E002BF3D100210CE0A3185B7A8B
:400FC000984200D91800130000E001235A1E002BF4D10A3401313B8B9942F6D34346002B13D0132813D80D49EA008A1850686B1EDB00CB18596801F0F9FA4F4647437E2FBE
:4010000007D8013DB572012004E0002002E0002000E000200CBC90469946F8BDB42A0000F0B55F4656464D46E0B482B007008A4643689B461B8801229A401300013B019310
:4010400001234AE05B465B195B7A9946BB686A00D05A4C46002208E05919497A8C4202D96800C05A0C000A330132F97E8A42F3D364235843019901F0B9FA643060435146F3
:4010800001F0B4FA814500D381465B465B194A465A72BC6800261CE06B00185B64235843019901F0A3FA643063195B7A584353464A465343984203D2631900225A7206E014
:4010C000C01A3230642101F091FA631958720A340136FB7E9E42DFD32B005D1E002BB1D102B01CBC91469A46A346F0BD10B5054AC02314689C43204310600800FFF794FD0F
:4011000010BDC046C400002010B50F4B6D229A5C6C21585C824206D0FFF730FD0A4B6C22995C01329954FFF7D7FEC022D200F02109010648FFF782FE054B1B68054A134388
:40114000054A136010BDC046F401002010000140C40000202008E8810400084070B5837ADB000D4A9C580930050001F09FF80B4E32680B4B13400B4A11786D5C0A4A126894
:4011800051184A7A12042A431343234324042343336001F08FF870BDB42A00000800084000FB80FBC42A00006402002010B5064B1B782C225343054AD3185B689989987B26
:4011C000FFF794FF10BDC046AF010020C8290000028801239340013B1B04014A53607047C400002070B501F061F804001D4B1B681D4A13431D4A13601D4B187FFFF700FD76
:401200001C4A13685B005B0813601368802109060B431360184E3568272001F03DF8174B2B40174A13433360F02300E0013B154A1268120701D4002BF8D10F4B1D60094D12
:40124000114B2A681343094A13600F2000F08EFD6F2001F021F86A680C4B1A60200001F029F870BDC40000202008E88104000840F4010020400002400800084000E8FFBFD1
:40128000F0060040100008402018E8810C00084010B5044AD36804490B43D360FFF7A2FF10BDC046F40100208000010070B50400857E067E00F0FAFF23681B680F22B240C5
:4012C00093431A000423B3401343666832680721A9408A4332602268136000F0EBFF70BDF0B5474680B4204B1B782C2253431F4AD3185B6898461E4B6D229A5C6C21585C46
:40130000824206D0FFF73AFC194B6C22995C01329954184C00232370134F3B78134D2C267343EB1899682378DBB29A00D3185A008A18114B1A604046FFF710FF3B785E43E7
:4013400070592278D2B2D3009A1A9300C0180B4B1860FFF7ABFF0A4800F0FAFCFFF798FF04BC9046F0BDC046AF010020C8290000F4010020AE010020640200206802002063
:40138000CD23000010B52C235843054BC058CB00591A8B00C018034B1860FFF787FF10BDC829000068020020F8B50400067E857E00F07CFF636819680723AB40994327688C
:4013C0003B680F22B24093433B606D220E4FBA5C002A05D10623AB4019436368196008E0022A06D10332B24013436268116022681360A1680B68647E0122A24093430B60BC
:4014000000F058FFF8BDC046F401002010B5064B1B78012B06D1054B1868FFF7C5FF0022014B1A7010BDC046B001002068020020F8B5114E2C273B004343F3185D68C0B2D7
:401440000E4C20700120FFF713FDFFF7DFFF23787B439A590A4B1A600A4BDA687F218A43DA602178DA680A43DA602800FFF7B0FEFFF79CFEF8BDC046C8290000AF010020F4
:4014800068020020F401002070B52C234343134AD3185D68C9B2124C217099682378DBB29A00D3185A008A180E4B1A60FFF7C0FF2800FFF753FE2378DBB20B49DA00D31A38
:4014C00098000B689C4660440860FFF7EFFE0122064B1A70064800F03BFC70BDC8290000AE0100206402002068020020B001002089230000F0B5574680B484B001902C229A
:401500004243514B9A1853689A461D000935012303E0002003AB985413005A1E002BF8D153461A8801239340013B59430800642101F05CF80600002300936CE02C23019AD4
:401540005343414AD3189F68009A9300944663445A00BF18012304E04023AB54B9184B7213005A1E002BF7D1402400990198FFF78BFFFFF78DFE354B00E0013B344AD26818
:4015800012060DD5002BF8D101330AE05300DB5B9E4203D9A9180B78A3430B70130000E001235A1E002BF1D1640801330FE0A9180B782343DBB20B70B8184372002C05D1F1
:4015C0000B78002B02D101330B70437213005A1E002BECD1002CC8D1013307E003AB9B181878A95C884200D2197013005A1E002BF4D100990198FFF747FFFFF749FE134B14
:4016000000E0013B124AD268120601D5002BF8D1009B013300932C23019A53430A4AD3181B8B009A9A4289D3012305E003AB995C53469B18597213005A1E002BF6D104B089
:4016400004BC9246F0BDC046C829000000A60E00F401002070B504000D002C264643174BF618174BDB68DB0324D4736800229A7229002000FFF73EFF3000FFF783FC002817
:40168000F6D129003000FFF7CBFC2000FFF7D0FEFFF726FE0B4B00E0013B094AD268120601D5002BF8D1002B06D029002000FFF71BFC02E0112000E0102070BDC8290000D6
:4016C000F401002000366E01F0B50024334B1C700400002600230BE0E588954206D9AE4204D22E4E3371012737702E000A3401338B42F1D3294B1B78002B46D14AE0274F33
:40170000BB181B799E00F61874000519ED88AC465600B61875007D1966466E81002B12D18D006D186C000A3C0419E6885500AD186C003C19268101339D00EB185D00451965
:40174000EB88A3811FE04D1EEDB2AB420BD10A3C0419E5885400A4186300104CE3181D81C4889C810FE00A3C0419E6885500AD186C000A4D2C19268101339D00EB185D00A5
:401780004519EB88A381013200E00022034B1B789A42B4D3014B1878F0BDC046B4010020F0B557464646C0B483B082460F000192984600252DE01B4B5B191C79002C07D1F5
:4017C0006A0052195300174AD31800221A810AE0019B013B9C4206D16A0052195300114AD31800229A816E00721953000D4AD3189A891989501A5B89C9185118784300F000
:401800007FFF7C43444400197F30000A534698530135044B18788542CDD303B00CBC90469A46F0BDB401002010B50B2000F09EFA10BDC04610B500F03BF810BD10B5044A4B
:401840001368802109060B431360FFF7EDFF10BD0000074010B5064B1B78002B04D1FFF7E9FF0122024B1A70FFF7E8FF10BDC046C40100200A4B1B68DB050DD5094B1B68FF
:401880005B0409D4064B1968074A0A401A601A68802149000A431A600222044B1A6070470000074060000740FFFEFFFF6C00074010B500241C4B1C601C4A1D4B1A601D4A17
:4018C00011680C230B4313601B4B1C4A13601C4A14601C491C4A11601C4A13601C4B1C600B2000F04DFA03210B2000F067FA19490B2000F051FA184B1C60184B1C60522272
:40190000FF32174B1A60174B1C60174B1C60174B1C60503AFF3A164B1A70164B1C70164B1C80164B1C8010BD000007400008004060000740700007400701008000030740DF
:40194000040307401000FE00100307400002074004020740B1190000C80E0740880E0740480F0740080F0740C80F0740880F074070020020740200206E0200206C02002019
:4019800070B506000D00141E0BD00B2000F0F8F9044B1C60044B1E80044B1D800B2000F0E5F970BD780200207C0200207202002070B5B54B1B68002B00D09847B34B1C881C
:4019C000B34B1D68B34B1E680223FF331D4243D0B14A13685B005B081360B04B1B789B0620D5AE4A137820218B431370117810230B43DBB21370AA4B1B68DB060CD4A34BF6
:401A00001A88A84B1B889A420CD0A44A117808230B43DBB2137005E0A04A117802230B43DBB21370A04A1168A04B0B40136000239F4A13609A4A13609E4A9F4B1A609F4AC4
:401A4000934B1A6002229E4B1A70934A1368802109060B43136014E1F30602D50022994B1A600A23334200D1A1E0974B1B685B0767D5964B1A68924B1B78012B04D0002B74
:401A800021D0022B15D055E0914B1B88002B0DD00121904B1960904B1B681B19D2B21A7001348B4A1388013B138046E0FFF7E2FE43E00121874B1960D2B2854B1A80002241
:401AC0007F4B1A7039E0824B1B881B021A43834B1B889A422BD201217E4B1960804B1B889A4202D29B1A9BB200E0002378490B80072B03D80121724B197014E0082B09D1FC
:401B000069490B68A020000203430B600021684B196008E064490B688020800103430B600821634B19605F4B1A80140005E0FFF7A1FE02E0002000F02DF904225E4B1A6063
:401B400035E0594B1B689B0431D5B3070DD5654B1B680F211940544A1068544B03401360012014E00821012011E0594B1988083989B219800829F5D8002008E0564B1B68ED
:401B80001B19524A1268D2B21A70013401390029F4D1002808D1444A1368802109020B4313600022424B1A600C22434B1A60B30746D5EB0615D500233D4A1360384A1360D8
:401BC000384B1B889C4201D1022300E00A232B40324A11780B4320218B4313700222384B1A706B062AD52D4A117820230B43DBB213702C4B1B881C003B4A1268D20612D557
:401C0000364A1288D31A324A1380384B1A68802149020A431A601968354A0A401A6010221F4B1A6002E00422214B1A600123314A13602249164A1160264A1360144B1D6001
:401C4000144B1B685B071CD5214B1B88002B0CD0214B1B681B191B78DBB2274A136001341B4A1388013B138002E0FF22224B1A60224B1B680F221340082BE5D10132204B09
:401C80001A60024B1C8070BDC80100206E020020400F0740000E07400000074074020020880F07406C02002060000740FF5FFFFFC80F0740ED0F0000C00F0740FF0F0000A6
:401CC00070020020880E0740CC0F074040030740CC0100206C000740780200207C02002072020020080307406400074004020740FFFFFEFF800E0740400207400802074069
:401D0000800F0740014BD8677047C0460000002010B5040000F0CAFA044A13689B009B08A4071C43146000F0C5FA10BD0CE400E080221202014B1A607047C04600E100E01D
:401D400080221202014B1A607047C04680E100E010B50400FFF7F4FF2000FFF7D3FF0320FFF7D6FFFFF7E4FF10BDC0461F2318401E3B8340014A13607047C04600E100E0C3
:401D80001F2318401E3B8340014A13607047C04680E100E001BE704770B504000D001F2802D90020FFF7F6FF1034A40080239B059C4664442068256070BDC04670B50400BA
:401DC0000E00032902D90020FFF7E4FF1F2C02D90020FFF7DFFF03252540ED00063500F065FAA408A400074B9C46644421680323AB4099430B003100A9401943216000F023
:401E000059FA70BD00E400E010B5034B1B7B584300F042FA10BDC046CC000020F0B557464E46C0B483B0040000F040FA0190E71E2D2F74D83F4B1B78DBB29C4208D83E4B55
:401E40001B78DBB29A463D4B1B78DBB2994631E03B4B1B78DBB29C4208D83A4B1B78DBB29A46394B1B78DBB2994623E0374B1B78DBB29C4208D8364B1B78DBB29A46354BFA
:401E80001B78DBB2994615E0334B1B78DBB29C4208D8324B1B78DBB29A46314B1B78DBB2994607E02F4B1B78DBB29A462E4B1B78DBB299462D4BDE5D2F2E09D92A2C07D9D9
:401EC00019222B4B1A60052000F0E6F9192503E0274B1D683F231D40B54206D9234BDA5D234B1A60052000F0D7F91F4B9C4664442378DBB21F4A13601F4B52461A601F4BC6
:401F00004A461A600520FFF77FFFB5420AD2174BDA5D174B1A60052000F0BEF902E00020FFF738FF019800F0C5F903B00CBC91469A46F0BDC0F1FF0FC1F1FF0FC2F1FF0F55
:401F4000C3F1FF0FC4F1FF0FC5F1FF0FC6F1FF0FC7F1FF0FC8F1FF0FC9F1FF0FCAF1FF0FCBF1FF0FCCF1FF0FCDF1FF0FC82A00002CFF0B4028FF0B401CFF0B4020FF0B402A
:401F8000034B1868C0231B02184000D00120704700010B4010B500F089F9044A1368C02109020B43136000F085F910BD00010B4010B500F07BF908490A68084B1A40802496
:401FC000E40122430A600A6813408022120213430B6000F06FF910BD00010B40FF3FFFFF70B5050000F062F90400FFF7C9FF002803D0FFF7DDFF012100E000210848284065
:40200000084A1568084B2B40184310601368012901D1FFF7BFFF200000F04CF970BDC0460404040010020B40FBFBFBFF10B5244B1B685B0715D5234B1B685B070ED5224B96
:40204000D969042001401F4C22688A432260DA698243DA611B69002B00D098470420FFF7BFFF174B1B685B0518D5164B1B685B0510D5154BD9698022D20011401148026877
:402080008A430260D969114A0A40DA615B69002B00D098478020C000FFF7A2FF084B1B685B030CD5074B1B685B0304D5064B9B69002B00D098478020C002FFF791FF10BD35
:4020C00010020B40E0000020D0010020FFFBFFFF0004000C014B18607047C046480105400004000C014B18607047C046540105400004000C014B18607047C0464C0105402D
:4021000070B504000D0000F0D1F8AC40024B1C6000F0D0F870BDC0460800054010B500F0C5F8064A116802230B43136000F0C2F818210220FFF7E4FF10BDC04600000540AC
:40214000014B18607047C0467801054010B50D4C0D4B2360236823600020FFF7B9FF236823600C22094B1A600020FFF7E9FF3122074B1A606420FFF7B3FF0020FFF7B8FF2B
:4021800010BDC0464001054008000004640105406801054010B5064B1B78002B04D1FFF7D5FF0122024B1A70FFF7B8FF10BDC046F00100200004000C014B18607047C046D3
:4021C000080105400004000C014B18607047C046140105400004000C014B18607047C0460C01054070B504000D0000F05FF8AC40024B1C6000F05EF870BDC04608000540CB
:4022000010B500F053F8064A116801230B43136000F050F818210120FFF7E4FF10BDC04600000540014B18607047C0463801054010B50D4C0D4B2360236823600020FFF751
:40224000B9FF236823600C22094B1A600020FFF7E9FF3122074B1A606420FFF7B3FF0020FFF7B8FF10BDC0460001054008000004240105402801054010B5064B1B78002BB5
:4022800004D1FFF7D5FF0122024B1A70FFF7B8FF10BDC046F10100200230800804D0C0460138FDD1C046C046C0467047EFF3108072B6704780F310887047C046044B1A68A5
:4022C000044B1B78044909685B00D1527047C04664020020C42A00000C00084070B5234C227823492C235A438A18506822785343CB181A7E013A1F4B1B78DBB29A421DD919
:402300001C4C23780133DBB22370184D2B782C225343CB1899682378DBB29A00D3185A008A18154B1A60FEF719FF2878C0B22178C9B2FFF727F8FEF755FF16E000220D4BF2
:402340001A700E4AD1680E4B0B40D3600D4B1B78012B02D1FEF752FC07E0084BDA6880218A43DA601A8901321A8170BDAF010020C8290000AE01002064020020F401002051
:40238000FFFFFEFFAD01002010B50122094B1A60FFF794FF084B1B68084A1343084A1360084B1A8901321A81D968074A0A40DA6010BDC04614000840C40000202008E88154
:4023C00004000840F40100207FFFFEFF10B50F4B1B782C2253430E4A9C580E4B1A78D2B2D1008A1A9300E41801220B4B1A60FFF765FF0A4B1B680A4A13430A4A13602000F6
:40240000FEF7D2FFFFF76AFF10BDC046AF010020C8290000AE01002014000840C40000202008E88104000840F7B5FA278368C58A0193038B867EBF005E43C37E04007B4367
:40244000F618019B2800198800F0D0F881B2606800F0CCF8618A704300F0C8F80600208A3900704300F0C2F80649684300F0BEF80123002802D040085B00FAE7019A3000E1
:402480001380FEBD00E1F50570B50400FA21438A807E1D04ED1A63688900584300F0A6F80100280000F0A2F8A36805001988E08A00F09CF880B26843104900F097F8A38A0B
:4024C0000A21584300F092F800230D4A216810258A425B410222D31A62325343984203D9013D4008062DF9D14B236421584300F07DF8E4682080E8B270BDC046A0860100B5
:40250000A761000010B50024A34200D00C880388101C9B009BB29A4200D2181C83B2221C9C4200D2021C93B20A805A08FF2A01D9FF2200E0D2B28A70CA70DB08FF2B00D9CC
:40254000FF230B7110BD8B0813800F2393720023C90851809080D0801081D3727047937A30B594885B00041B9080DBB2002C01DB937202E00133937264420F23957A1D4050
:4025800053889572A34203D9012B03D9013B00E0013353800F2D05D0002D03D053889D00AC4204D90023D0801081D3721DE0D488844201D9D08003E01489844200D21081BE
:4025C000D07A092802D80130D0720EE01089D488001B80B2834204D989088B4203D9013B00E0013353805388138030BD002243088B4274D303098B425FD3030A8B4244D30C
:40260000030B8B4228D3030C8B420DD3FF22090212BA030C8B4202D31212090265D0030B8B4219D300E0090AC30B8B4201D3CB03C01A5241830B8B4201D38B03C01A52416D
:40264000430B8B4201D34B03C01A5241030B8B4201D30B03C01A5241C30A8B4201D3CB02C01A5241830A8B4201D38B02C01A5241430A8B4201D34B02C01A5241030A8B4234
:4026800001D30B02C01A5241CDD2C3098B4201D3CB01C01A524183098B4201D38B01C01A524143098B4201D34B01C01A524103098B4201D30B01C01A5241C3088B4201D329
:4026C000CB00C01A524183088B4201D38B00C01A524143088B4201D34B00C01A5241411A00D20146524110467047FFE701B5002000F0F0F802BDC0460029F7D076E7704769
:4027000003460B437FD4002243088B4274D303098B425FD3030A8B4244D3030B8B4228D3030C8B420DD3FF22090212BA030C8B4202D31212090265D0030B8B4219D300E0EC
:40274000090AC30B8B4201D3CB03C01A5241830B8B4201D38B03C01A5241430B8B4201D34B03C01A5241030B8B4201D30B03C01A5241C30A8B4201D3CB02C01A5241830A69
:402780008B4201D38B02C01A5241430A8B4201D34B02C01A5241030A8B4201D30B02C01A5241CDD2C3098B4201D3CB01C01A524183098B4201D38B01C01A524143098B422A
:4027C00001D34B01C01A524103098B4201D30B01C01A5241C3088B4201D3CB00C01A524183088B4201D38B00C01A524143088B4201D34B00C01A5241411A00D201465241B3
:40280000104670475DE0CA0F00D04942031000D34042534000229C4603098B422DD3030A8B4212D3FC22890112BA030A8B420CD3890192118B4208D3890192118B4204D3B0
:4028400089013AD0921100E08909C3098B4201D3CB01C01A524183098B4201D38B01C01A524143098B4201D34B01C01A524103098B4201D30B01C01A5241C3088B4201D3AB
:40288000CB00C01A524183088B4201D38B00C01A5241D9D243088B4201D34B00C01A5241411A00D20146634652415B10104601D34042002B00D54942704763465B1000D37D
:4028C000404201B5002000F005F802BD0029F8D016E770477047C046014B18687047C046440100200E4B70B500251E000D4CE41AA410A54204D0AB00F35898470135F8E713
:4029000000F0FAF8084B00251E00084CE41AA410A54204D0AB00F35898470135F8E770BD042B0000042B0000042B00000C2B0000002310B59A4203D0CC5CC4540133F9E798
:4029400010BD03008218934202D019700133FAE7704700000000000000300F40000400400F40000438803E4058045F011801B401E280E62053045680D4608A808B0497081A
:402980009E806C407008DC0319081C80610288408908A102B448B502C60CD802E201E604EC08000004300F4001310F4003330F4003400F4004410F4003420F400D430F40D8
:4029C00020202020200000000C2A0000120200202802002000000000A40100200128000005000205640000000019000068010020800000000C00640028280A031E200000F8
:402A000004000000E8030000FFFF000004000140080104400001044004010440F0000000020000000401030004000140080104400001044004010440000F0000040000005C
:402A4000080206000400014008010440000104400401044000F00000080000000C0309000400014008010440000104400401044000000F001000000010040C000400014072
:402A80000801044000010440040104400000F0002000000014050F002E080000EE070000F807000002080000120800001C0800002608000000000000804F1200000400007E
:402AC000009F240000000000030405060708090A0B0C0E0F101112131415161718191B1C1D1E1F2021222325262728292A2B2E2F3031323334354300F8B5C046F8BC08BCB5
:402B00009E46704715020000A1030000F8B5C046F8BC08BC9E467047ED010000302B0000C0000020880000003801000000000000000000000008C0010000FF0F01000000B7
:402B40000000E02EC05D00001800000000366E01040404000000000000000000000000000000000000000000000000000000000000000000F62A0000000000000000000041
:402B800000000000000000000000000000000000000000000000000000000000000000000000000000000000000000000000000000000000E4000020000000000000000011
:402BC00000000000000000000000000000000000000000000000000000000000000000000000000000000000000000000000000000000000000000000000000000000000D5
:402C00000000000000000000000000000000000000000000000000000000000000000000000000000000000000000000000000000000000000000000000000000000000094
:402C40000000000000000000000000000000000000000000000000000000000000000000000000000000000000000000000000000000000000000000000000000000000054
:402C80000000000000000000000000000000000000000000000000000000000000000000000000000000000000000000000000000000000000000000000000000000000014
:0200000490303A
:0200000053802B
:0200000490402A
:200000000000000000000000000000000000000000000000000000000000000000000000E0
:0200000490501A
:0C000000000204C81193110104D665131E
:0200000490600A
:0100000001FE
:00000001FF