:020000041008E2
:4000000000780408EB0208100D00000051030810510308105103081051030810000000000000000000000000000000004D0308104D030810000000004D0308104D030810DA
:400040004D0308104D0308104D0308104D0308104D0308104D0308104D0308104D0308104D0308104D0308104D0308104D0308104D0308104D0308104D0308104D03081000
:400080004D0308104D0308104D0308104D0308104D0308104D0308104D0308104D0308104D0308104D0308104D0308104D0308104D0308104D0308104D0308104D030810C0
:4000C0004D0308104D0308104D0308104D0308104D0308104D0308104D0308104D0308104D0308104D0308104D0308104D0308104D0308104D0308104D0308104D03081080
:400100004D0308104D0308104D0308104D0308104D0308104D0308104D0308104D0308104D0308104D0308104D0308104D0308104D0308104D0308104D0308104D0308103F
:400140004D0308104D0308104D0308104D0308104D0308104D0308104D0308104D0308104D0308104D0308104D0308104D0308104D0308104D0308104D0308104D030810FF
:400180004D0308104D0308104D0308104D0308104D0308104D0308104D0308104D0308104D0308104D0308104D0308104D0308104D0308104D0308104D0308104D030810BF
:4001C0004D0308104D0308104D0308104D0308104D0308104D0308104D0308104D0308104D0308104D0308104D0308104D0308104D0308104D0308104D0308104D0308107F
:400200004D0308104D0308104D0308104D0308104D0308104D0308104D0308104D0308104D0308104D0308104D0308104D0308104D0308104D0308104D0308104D0308103E
:400240004D0308104D0308104D0308104D0308104D0308104D0308104D0308104D0308104D0308104D0308104D0308104D0308104D0308104D0308104D0308104D030810FE
:400280004D0308104D0308104D03081010B5054C237833B9044B13B10448AFF300800123237010BD14750208000000001C330810084B10B51BB108490848AFF30080084873
:4002C000036803B910BD074B002BFBD0BDE81040184700BF00000000187502081C330810D0450208000000007047FFF7FDFF72B6104C114DAC4209DA21686268A368043B99
:40030000A2BFC858D050FAE70C34F3E70B490C4A00209142BCBF41F8040BFAE709480A490860BFF34F8F00F045FA00F01FFA00F01DF8FEE77C150910941509101475020823
:40034000007F02080040020808ED00E0FEE7FEE700B504207146084202D0EFF3098001E0EFF30880043000F00DFFFEE708B500F0BBF862B600F0DAF8FCE700BF00B583B0D0
:4003800044F20603984245D010D8B0F5005F34D003D8B0F5805F1CD087E043F20303984231D043F21203984231D07EE044F21003984268D004D844F20803984240D074E01E
:4003C00045F20103984269D045F20203984269D06BE00021084601F069FB10B100F0E0F808E00222324B5A600822803B9A600022304B1A7008F0BAFC57E000F0D1F854E0AD
:40040000013BDBB200E00623002BF9D14DE001F015F84AE0284B1B78022B06D10222244B5A600822803B9A603FE0002B3DD102221F4B9A600822803B5A6000F0EBF934E003
:400440001E4B1B88ADF804309DF8053013B91C4AD35C00E0002343BB0020164B18700222134B9A600822803B5A60014601F01EFB10B100F095F818E002220D4B5A60082260
:40048000803B9A6011E00F4B1B78022B0DD10222074B9A600822803B9A6006E00A88074B1A8002E00822084B5A6003B05DF804FB8000324030750208E57E0208D07E020865
:4004C000E47E0208DC7E02080000324008B5044B984204D1034A0121002002F01DF908BDBF0001003075020800B583B04FF0007000F0AAFE084800F071F908B100F050F86A
:40050000684603F041F808B100F04AF8034802F0F5F803B05DF804FB7D030810CD04081008B5002001F034F808BD00BF08B5FFF7F7FF03F039F8164B1B78012B0FD013B136
:40054000022B18D008BD0222124B5A60802203F580739A602022A3F5C0639A6008BD20220D4B5A60802203F5C0639A600222A3F580739A6008BD8022084B5A602022A3F521
:40058000C0639A60022203F5A0639A6008BD00BF3075020880053240800032408006324008B50222074B5A60802203F5C0635A600822A3F5D0635A607B21034800F0D2FD38
:4005C00008BD00BF800032400028081008B5012000F0ECFC08BD00BF704700BF5C4AD2F8803303F00F0303F1D00152F8212002F00702032A04D0042A05D092B9554914E041
:40060000554A116811E003F1C002514951F8222002F01F02112A06D0132A04D04FF4FA4103E04E4901E04FF400418BBB484BD3F8902502F00100D3F88825C2F30172D3F88D
:40064000883513F0405F07D0414BD3F88835C3F30173012B02D102E0012300E0002303B108B9032A46D13A48D0F88025C2F31103D0F88425C2F30C02D0F88005C0F30060F9
:400680000130B1FBF2F202FB03F2B2FBF0F131E0012B2FD12E4BD3F8402602F00100D3F80026C2F30172D3F8003613F0405F07D0274BD3F80036C3F30173012B02D102E00E
:4006C000012300E0002303B108B9032A12D12048D0F8002602F07F02D0F80036C3F30423D0F80006C0F3044002FB01F2B2FBF3F2B2FBF0F1164BD3F88033C3F3011321FA11
:4007000003F215494A601648D0F89030C3F3072301330069000E0130B2FBF0F08860B2FBF3F3CB600B6103F5742202F23F220D48A0FB0202C2F387420A7503F2E7330A4A44
:40074000A2FB03239B098B61DB03CB61704700BF0000264000127A008C42020800366E010000214083DE1B43D34D621008B50D4800F096FFFFF730FFFFF730FF002211462B
:40078000042000F0C5F9084800F058FA074B1B6893F8513013B1064800F0C0FA00F002F908BD00BF302C081034750208D47E02083828081008B500F040FD074AD2F8883011
:4007C00043F47003C2F88830BFF34F8FBFF36F8F00F037FD08BD00BF00ED00E008B518B1094AD062002000E0084858B9084B1B782BB9054800F0DCFF0122054B1A7008B91C
:4008000001F000F808BD00BFAC42020801001600B476020808B501F08FF808BD1F4B98422DD00CD840282ED003D8E8B1102828D02FE0802829D0B0F5807F28D029E0184B27
:40084000984228D006D8B0F1204F0DD0154B984212D01EE0144B98420AD00133984209D0023B984215D101E0002070470F4870470F4870470F4870474FF4A00070470748FF
:4008800070470D4870470D4870470D487047034870470C4870474FF4A400704706005200010000F0090000A0040000F001005200020052000300520001005000020050002D
:4008C00005005200FF00520038B5124B1B6893F83130012B04D840F2C3110F4800F042FC0C4B1D682A6AB5F8B03013442C46D5F8B420D358002B0BDB084B1868FFF78EFF0B
:400900006B6801229A6063689B68002BFBD138BD034838BDD47E0208F4290810BC760208020050001A4B186128B102230370FF23437000234380174B1B6893F850202AB3E7
:4009400000B583B0B3F93830ADF80030002301931149684600F0B2FBBDF90030002B08DB590903F01F03012202FA03F30B4A42F82130084B1B6893F8513023B102220849BF
:40098000012000F077FA03B05DF804FB704700BFBC760208D47E02084146020800E100E0F946020808B50248FFF7BCFF08BD00BFD076020838B50B4B1B68D3F8B4301B5891
:4009C000002B0DDA0D4604460B0C1B0423B140F2D521054800F0C6FBA9B26160002038BD024838BDD47E0208342A081001008A0038B50368002B01DA002300E0094B73B96A
:400A00000D460446C2600B0C1B0423B140F2BB21054800F0A7FBA9B2A160002038BD014838BD00BF01008A00342A081038B504460D4619B99921084800F094FB074B1B68D7
:400A4000D3F8B4301B59002B03DAE3682B60002038BD034838BD00BF742A0810D47E020801008A00254B1B6893F8313083423AD900293AD00B6813F01F0F38D170B50D46B5
:400A800004461E4B1B6893F83130984204D340F2C3111B4800F066FB184B1B68186AB3F8B03004FB0304174E34602A68D2080021686801F075FE00212046FFF77BFF346863
:400AC00025B940F293310E4800F04CFB2A4600212046FFF78DFF60B900210A4B1868FFF769FF40B970BD084870470748704706487047064870BD054870BD00BFD47E020867
:400B0000342A0810D476020803018A0001018A0010B504461346B2B9A9B9124B1B6893F83130984204D340F2C3110F4800F01AFB0C4B1B681A6AB3F8B03004FB03240B4B58
:400B40001C60002010BD43B149B1084A51609360111D2046FFF786FF10BD054810BD044810BD00BFD47E0208342A0810D476020803018A002DE9F0411B4B1B68DC682368A7
:400B800083422CD90D464609A0EB4610012303FA00F819B900F051FB074600E00027124B18680368002B01DA002300E00F4B83B9626852F8263018EA030F05D023EA08031B
:400BC00042F82630002400E0094C0021FFF7F2FE00E0084C25B9384600F033FB00E0064C2046BDE8F08100BFD476020801008A00020188000301880004018A000B4B1B688C
:400C0000DB681A6882420CD94109A0EB4110012202FA00F05B6853F82130184203D004487047044870470448704700BFD47602080101880004018A0000018800024B1B68F7
:400C40000BB9014B18607047E07602082DE9F8430446884691461D46089F2C4B1B681BB9B5212B4800F07EFA284B1B682C2000FB04F01C18EEB21E50C5F3072363602D0CBB
:400C8000A560244B1B6893F831309E4204D340F2C311214800F066FA1E4B1B68196AB3F8B02006FB02162661666893F832309E4204D340F2DF11184800F054FA154B1B683C
:400CC0001D6A803605EB46156561A668330C1B0423B14FF4FF71104800F044FA330C1B0423B140F2FF110C4800F03CFAB3B243EA0646AE60C4F81C90C4F820800023A36168
:400D000017B1B7F90030A381BDE8F883E0760208B42A0810D47E0208342A0810F0B58FB0044618B95221274800F01CFAA369072B03D95621234800F015FAE36A1BB9582123
:400D4000204800F00FFA236B1BB959211D4800F009FA07AD04F114060FCE0FC537682F6002AD26460FCE0FC533682B60164B1B68B3F93620079B1344ADF83030089B0D9323
:400D8000A26AE16A0CAD00953B460A98FFF75EFF00210091069B0A460598FFF757FF216B284600F08BF9BDF93030002B08DB590903F01F03012202FA03F3044A42F8213095
:400DC0000FB0F0BDB42A0810D47E020800E100E0F8B506460F461D4614461AB9FD211F4800F0C0F91E4B1B681BB9FE211B4800F0B9F91B4B1B682C2101FB063001FB0731E8
:400E00004B68012202FA03F31B04466802FA06F60269EAB18F69EFB91268002A01DA002200E0104AC2B92288134323600369DC6001238B614D620469330C1B0423B140F26E
:400E4000BB21094800F08EF9B2B2A2600020F8BD0648F8BD0648F8BD0548F8BDB42A0810E076020801008A00342A081004028A0007028A00F8B505460F4616460E4B1B688C
:400E800023B94FF4AF710D4800F06CF90A4B1B682C2404FB0534236A23B94FF4B171074800F060F9E369B34204D9236A43F826700020F8BD0248F8BDE0760208B42A0810DD
:400EC0000A028A0038B504460D46074B1B6823B94FF4C871054800F045F9034B1B682C2202FB0434A56238BDE0760208B42A081070B582B000230193044620B940F2D1113F
:400F0000284800F02FF9236923B94FF4E971254800F028F9636923B940F2D311214800F021F9236A23B94FF4EA711E4800F01AF96369DD682A0C20D012041A601B68206932
:400F4000194B1B68D3F8B430C358002B15DA01A9FFF76CFD60B9019803681E0CDBB2E269934206D2226A52F8233013B1984700E0002631462069FFF71DFDADB275B163699E
:400F8000ADB21D601B68636A1BB198470023636202E0A36A03B198470023A36163691B6802B070BDB42A0810D47E020810B50446074B1B6823B940F2B111064800F0D2F88D
:400FC000034B1B682C2000FB0430FFF791FF10BDE0760208B42A081010B50446104B1B6823B940F22B210F4800F0BCF80C4B1B682C2202FB0434B4F90C30002B0DDB5A09FE
:4010000003F01F03012101FA03F32032064941F82230BFF34F8FBFF36F8F002010BD00BFE0760208B42A081000E100E010B504460D4B1B6823B940F24B210C4800F092F827
:40104000094B1B682C2202FB0434B4F90C30002B08DB590903F01F03012202FA03F3044A42F82130002010BDE0760208B42A081000E100E038B50D4B9A680D4B9A420FD15B
:401080000D46044621B940F237110A4800F06AF804F11003064A52F8230042F8235038BD1030054B53F8200038BD00BF00ED00E000400208F42A08100000081048B338B538
:4010C00004460D464368072B03D93221134800F049F8B4F900306268002B08DB5201D2B203F1604303F5614383F8002305E003F00F035201D2B20A49CA540A4B9A680A4B80
:401100009A4208D12946B4F90000FFF7B3FF002038BD06487047002038BD00BFF42A081014ED00E000ED00E0004002080100560010B5044605E0084B186800F075F8A4F506
:401140000044B4F5004FF6D8044B186800FB04F000F06AF810BD00BFA8420208A442020801BEFEE738B50D46044C18220146204601F01EFBA5610020FFF7F2FF704B0208EE
:40118000FEE700BF08B50268254BDA6142681A6282685A62C2689A620269DA6242691A6382695A63C2699A631E4A916AD963D16A1964516A5964516B9964926BDA64F1EE86
:4011C000103A13F0900F27D0026A154B1A65426A5A65826A9A65C26ADA65026B1A66426B5A66826B9A66C26BDA66026C1A67426C5A67826C9A67C26CDA67026DC3F88020C6
:40120000426DC3F88420826DC3F88820C26DC3F88C20026EC3F89020FFF7B2FF08BD00BF704B020800ED00E00230800803D001300238FCD100BF00BF7047EFF3108072B68C
:40124000704780F31088704710B5044620F07F6323F4402323B140F2B3511348FFF782FF14F4700F16D014F0806F01D1002101E04FF4800114F0006F01D041F4000114F028
:40128000807F01D041F4801114F0007F03D041F4001100E00021054A536823EA01031C435460536810BD00BF382B08100000264010B30246C3680BB303680BB330B4057926
:4012C000114B03EB85035C682346002103E0934205D019465B69002BF9D1012000E0002080B124B9084B03EB85056A6000E04A6111610023536105E00020704700207047FE
:401300000020704730BC7047E476020850B310B402460479164B03EB840359680B4602E0934204D05B69002BFAD1002000E00120D0B18A420ED14B6933B10D4A02EB840465
:40134000636000221A610FE0094B03EB84040023636009E01A69596951615A6922B11B69136101E0002070475DF8044B704700BFE476020830B583B004460D46022808D90A
:40138000042806D0032804D040F6B2112848FFF7E9FE6B1EDBB2012B08D9042D06D0082D04D040F6B3112248FFF7DCFE214800EB84004468042D12D0012D1AD111E0A368D3
:4013C0001D420AD1E3681A6800925B6801932368294668469847174B9C61646902E0002000E0002014B3144B9842E8D1012DE6D11CE0022D01D104E01C466369002BFBD1A4
:4014000003E00C4B9C6904B1246900200CE0A3681D4208D1E3681A6800925B68019323682946684698472469002CF0D103B030BD382B0810E4760208FF00420010B5174B3E
:40144000DB682BB101210220FFF794FF044600E00024E4B9FFF7F1FE104BDB681BB104210220FFF787FF0E4B59680E4A0A4042F01B025A6059680C4A114359605968114385
:40148000596059680A435A605B6830BF04E002210846FFF76FFF054C204610BDE4760208000026400000FC0F003A0280FF00420010B5044620B940F6A1211748FFF752FE65
:4014C000164A1368DB6803F5F2431B6823601368DA6802F5F04212686260D96847F604028A58A260D96847F608028A58E260D96847F60C028A582261D96847F610028A5802
:401500006261D96847F614028A58A261DA6847F61803D358E36110BD382B0810D47E020810B5044620B940F6C9211748FFF71AFE164B1B68DA68616802F5F0421160D96883
:40154000A06847F604028850D968E06847F608028850D968206947F60C028850D968606947F610028850D968A06947F614028850D968E06947F618028850DB68226803F58F
:40158000F2431A6010BD00BF382B0810D47E020870B50446012804D94FF426713A48FFF7E1FD3A4B9B682BB101210846FFF7E2FE054600E00025002D5ED1FFF73EFE0646A0
:4015C000324B9B681BB104210120FFF7D3FE304B1B6893F8432042B19B68D3F8E03013F0100F02D02B48FFF763FF4FF0B0539B899BB223B14FF0B0539B899BB201E04FF4B8
:401600008073B3F5807F03D1204601F0F1F81AE0214A136943F004031361012C01D030BF07E020BF194B1B7803B120BF0122174B1A70174B1B681A68D3F89430D35803F00D
:401640000303022BE4D0124B1B6893F8432042B19B68D3F8E03013F0100F02D00D48FFF75FFF3046FFF7EDFD084B9B684BB108210120FFF77FFE04E002210120FFF77AFE4C
:40168000064D284670BD00BF382B0810E4760208D47E02080077020800ED00E0FF004200014B1860704700BFD47E020810B5012902D0082929D02EE01A4B1B78012B2CD004
:4016C0000320FFF79BFA184B984228D0FFF7B5FD164B1860022001F069FF044601F071FF022C05D1032805D0052805D1002404E00F4C02E0002400E00D4C0D4B9C420FD1A1
:401700000A4B1868FFF79DFD0AE0084B1868FFF798FD002404E0064C02E0054C00E0044C204610BDDC7E02080101880020770208FF00420008B502291CD0082914D0012929
:401740001ED1124B1B78012B1CD0FFF776FD104B5860022001F02AFF022815D00C4B5868FFF76FFD0B4808BD094B5868FFF769FD002008BD064B5868FFF763FD054808BD4C
:40178000044808BD034808BD002008BDDC7E020820770208FF00420010B5044C2046FFF7B5FD04F11800FFF7B1FD10BDCC430208B0B110B50B4A9060C36A03B1D360002480
:4017C000094B1C70094B1C70094B1C60094B1C7000F064F9084B1C70084B1C70204610BD0748704720770208EC7E0208F07E0208F47E0208F17E0208DB7E0208E07E0208E8
:401800000100160070B59AB0424D15AC28686968AA68EB680FC4286920604C22002102A800F0BEFF3C4B029315AB049342F61013ADF8143005238DF81630384B9B681B698E
:40184000069341F2960307931B23ADF82030ADF8223003238DF8243004238DF8253006238DF8263010238DF827308DF828308DF829307223ADF84C3001238DF85030284C1E
:401880002046FFF715FD04F11800FFF711FD01F079FE08A801F0E0FE0346002836D1214B03931E4B9B68996B89B10B460DF12A0220311E685D689C68D86816605560946024
:4018C000D060103310328B42F3D11B88138002A801F08AFE0346B0B90122134B1A700023124A1370124A13700C4B9B681A6A00929B6ADB88ADF804300823ADF80630684646
:401900000AF0D0FC034600210A4A116018461AB070BD00BFE82C0810BD1E081020770208CC430208044C0208DC7E0208E47E0208E57E0208F47E020808B502F0FDFF08BD42
:4019400008B5044B1B689847034B1B6803B1984708BD00BF447702083077020808B510B1034A52689047034B1B6803B1984708BD447702083077020870B5C0B006460C466D
:4019800015464FF480720849684600F0FEFE05E016F8012B6A401DF80250013C002CF7D1284640B070BD00BFFC2C081008B50022FFF7E2FF08BD00BF08B5FFF73EFC08BDD5
:4019C00008B5FFF73EFC08BD08B50120FFF72EFB08BD00BF08B50120FFF7FEFA08BD00BF08B5094B58601960012208491046FFF741FA034628B9002205490120FFF73AFA42
:401A00000346184608BD00BF447702085D1908104119081038B515460B46024601210020FFF7D6F9044618B129460120FFF74AFA204638BD704700BF704700BF00207047D3
:401A40000048704711001600004870471100160000487047110016000048704711001600004870471100160000487047110016000048704711001600004870471100160036
:401A8000004870471100160000487047110016000048704711001600704700BF08B5024800F016FE08BD00BFC4430208F8B5022872D8002972D10022134606E03B4CE45CE9
:401AC000012C01D90132D2B20133002BF6D0012A0CD1374B1B681C6801EB8102930023445B681B79023BDBB2012B59D8314B1B78002B57D1304B1970E0B92D4F3C682368E1
:401B000001EB8105AA009D186668C1EBC1014B001E44B18829822168114449686468E45A0C8039680C682244526849680B445B8853801EE001281CD11D4F3C68236801EB5C
:401B40008105AA009D186668C1EBC1014B001E44B1892982216811444D68616819440989298039680C682244526849680B445B895380124B18700E4B1B6818680E4B1B78A5
:401B800003EB83039A00104406F00CF9034650B90121084A117006E0094B04E0084B02E0084B00E0084B1846F8BD00BFE47E020828770208E57E0208DA7E0208F17E020879
:401BC0000100160002001600FF00160070B439B9144B1B681B689968CE7F00231D460EE0104B1B681B68D968CE7FF6E7CA5C52B10133CC5C1B2C01D0134400E00125B342A9
:401C000001D2002DF2D05DB101338279CA54002204E0D4180134855C0D550132052AF8D970BC70472877020870B504460AF086FB054620BB134B1968086A228902EB8202E1
:401C40009300143B03445A6812F0007F17D0E67B1B695A68CB69D21A06EB4606B318A28821680948184400F090FDE37B074AD35C012B04D1064A137843F002031370284682
:401C800070BD00BF28770208E87E0208E07E0208DB7E020830B587B002891A4B1B685B699B889A4229D1044601AB07C883E807000022ADF81020A289ADF8122040228DF8F1
:401CC00014201846FFF7B0FF054680B923681B7803F002039BB22BB10B4B1B6821460B48984704E0084B1B68214609489847094A137803F0FE03137000E00025284607B0A8
:401D000030BD00BF287702082C7702080500010006000100EC7E020838B50289531E9BB2112B1AD8C17BD1B90E4B1C68256A02EB82029300143B2B445A6812F0007F09D0AC
:401D40001B695A68E369D31A01EB41011944064B5B5A13800AF0C0FA38BD012038BD012038BD00BF28770208E87E02084288531E9BB2112B1AD84178D1B910B40F4B18687C
:401D8000046A02EB82029300143B23445A6812F0007F0FD01B695A68C369D31A01EB41011944074B5B5A1380002004E0012070470120704700205DF8044B7047287702087D
:401DC000E87E020800B583B00023ADF804308389ADF800300389ADF8023012238DF80430084B1B7813F0010F09D129B18DF80510684609F085FB02E0C06809F0A1FB03B09D
:401E00005DF804FBEC7E020810B4044688B10023194606E0104A52F82320944200D1012101330D4A1279934206D20029F2D0002003E00021094800E0002050B949B9064BFC
:401E40001B792BB9044A42F823400133137100E003485DF8044B7047F87E0208010016000300160070B506460D460020044606E0084B53F824302946304698470134054BC2
:401E80001B799C4204D2044B1B7813F0010FEFD170BD00BFF87E0208EC7E020883792BB100207047C25C32B9013300E00023052BF8D9002070470120704700BF70B58CB086
:401EC00004460D46BF4A137843F00103137044F20803984200F04C823CD842F20403984200F0F08019D841F20203984200F0178108D8B0F5805F76D041F20103984200F05F
:401F00000B8157E341F20303984200F0418141F20403984200F049834CE343F2190398425BD00AD843F20103984200F0B98043F21203984200F0B4803CE344F20603984223
:401F400000F01A8200F2CD8144F20403984200F032812FE345F20C03984200F0DD821BD845F20103984200F046820AD844F20A03984200F0B38144F21003984200F0B18132
:401F800018E345F20203984200F0808245F20303984200F0B7820DE345F21003984200F0F6820AD845F20E03984200F0EA8245F20F03984200F0E882FCE245F2170398427C
:401FC00000F0EB8246F20103984200F0118245F21403984240F0EE82DCE27A4A137803F0FE031370E6E2784B1E683046FFF756FF60B1304606F0CCFE734E00213068FFF716
:40200000E5FD01213068FFF7E1FD37E06F4B1A68936A1B791BB34FF0B05191F8043603F03F0391F8050600F03F0043EA801391F8030600F01F0043EA003391F8001601F032
:402040007F0143EA4143126B1370604A1168096BC3F3072048701268126B1B0C93705B4E3368186B06F094FE33680021186BFFF7ADFD33680121186BFFF7A8FD534B1B68B8
:40208000986A023007F09AFA514A05AB1068516803C305A806F0A0FE02224E4B1A7089E200234C4A13704C4A13704C4A13700A20FFF73EF843F212039C4240F07B82FFF71D
:4020C0006BFB77E2464B1B6813F0010F40F072820023ADF814308DF816303C4E33689B6A93F900308DF8143005A806F08FFE33689B6A93F901308DF8143001238DF815300C
:40210000FF238DF8163005A806F080FE344A136843F0010313604DE2FFF7A4FE4AE24978304B1B88ADF81430002319E02E4A32F81320ADF808209DF8092012B92B48825C9B
:4021400000E00022012A0AD9274A12F81320914205D1254A32F81330ADF8143002E00133002BE3D09DF81530FF2B05D104D140F2CA311F48FEF7F6FFBDF81430ADF8203024
:40218000ADF81C30C3F3072329781A4AD15411E20B78002B40F00E820B7A33B9164B0022DA809A80154A1A604B60064A137803F0FE031370FEE149790A4B1B88ADF8143003
:4021C000002337E0EC7E0208FC43020828770208FC2D0810DC7E0208E57E02085C770208F47E0208042E0810D87E0208E47E0208082E0810F07E0208647702081475020880
:40220000AF4A32F81320ADF80C209DF80D2012B9AC48825C00E00022012A0AD9A84A12F81320914205D1A64A32F81330ADF8143002E00133002BE3D09DF81530FF2B05D11C
:4022400004D140F2CA31A048FEF78CFFBDF81430ADF82430ADF81430C3F3072369789B4AD154EB78002B40F0A5816979984B1B88ADF81430002319E0914A32F81320ADF820
:4022800010209DF8112012B98E48825C00E00022012A0AD98A4A12F81320914205D1884A32F81330ADF8143002E00133002BE3D09DF81530FF2B05D104D140F2CA3182481D
:4022C000FEF750FFBDF81430ADF82830ADF81430C3F3072301217F4AD1546BE1FFF7C2FD68E1AB7E002B3FD12B7E012B02D10022794B1A70E97E764B1B88ADF81030002332
:4023000019E06F4A32F81320ADF814209DF8152012B96C48825C00E00022012A0AD9684A12F81320914205D1654A32F81330ADF8103002E00133002BE3D09DF81130FF2BF1
:4023400005D104D140F2CA315F48FEF70BFFBDF81030ADF82C30ADF81030C3F30723FF2B02D0297E5D4AD15402225D4B1A7021E102225B4B1A701DE1FFF774FD594B1B786D
:4023800013F0010F00F01681534B1B78012B03D10222514B1A700DE1032B03D100224E4B1A7007E1022B40F0058100224A4B1A704D4B1B685B684D4A1178C1EBC10203EB6C
:4023C00042039A79002A00F0F5809B88002B00F0F180474B1B78002B40F0EC800120FFF765FB002840F0E68001223B4B1A70E1E0FFF738FDDEE00B88ADF800309DF801301B
:402400001BB902212F4AD15405E023B940F286312D48FEF7A7FE6A782988294B23F812106B780021334AD15403EB4302324E91192D4B1B6818692B7803EB430303F58453E5
:402440001033034433F8060F9B7890538B70687800EB400002213044FFF7A8FA6B7803EB430333449B7898420BD0244B1B680021234898476B7803EB4303981900229A53DD
:40248000827029462046FFF7EDFC93E00B88ADF804309DF805301BB900210A4AD15405E023B940F286310848FEF75CFE6B780021084AD15429462046FFF7D4FC7AE000BFE7
:4024C000D87E0208E47E0208082E0810E07E0208042E08105C770208E57E020860770208DC7E0208EC7E020828770208DA7E0208F17E0208F07E0208E87E02082C770208F4
:40250000040001000B88ADF814301723ADF8163005A809F001F84DE00846FFF7BBFB014620B929462046FFF79DFC01462846FFF749FC294B1B7813F0110F04D0274B1B68C8
:402540002946204698472A89234B1B7813F0010F11D0531E9BB2112B0DD912238DF81830ADF81620AB89ADF8143001238DF8193005A808F0C5FF184A137803F0FE03137066
:4025800018E0FFF76FFC15E0FFF76CFC12E0FFF769FC0FE0FFF766FC0CE00846FFF7E6FB29462046FFF75EFC04E00D4A137843F001031370084B1B7813F0110F09D0064AF3
:4025C000137803F0FE031370044B1B682946204698470CB070BD00BFEC7E02082C770208DB7E02081C4B1B68002B34D01A4B5B681B685A8803899A422DD18388012B2AD1E9
:4026000003681B78022B26D810B588B0044603AB07C883E807000022ADF81820A289ADF81A2040228DF81C201846FFF7FDFA80B9A389ADF8043000238DF806300294064BC1
:402640001B6801A905489847054A137803F0FE03137008B010BD704770770208BF000100EC7E020800B587B000238DF81730009301930293039304930123ADF80430074B3C
:402680005B681B685B88ADF808300DF1170300936846FFF7C9FA07B05DF804FB70770208B0F5803F11D208B583B245F20202934207D045F20E02934205D10846FFF792FF1F
:4026C00001E0FFF7CFFF002008BD0020704700BF50B110B5064C60600648FFF795FB63685B681BB1236010BD0348704710BD00BF70770208A126081001001600044B186028
:402700005B6813B15860002070470248704700BF7077020802001600DAB11346D8B901291BD100B587B0002202920392049205920193ADF808100B4B5B681B685B88ADF856
:402740000C3001A8FFF7E8FA08B1074807E0002005E005487047044870470348704707B05DF804FB707702080100160010B501390244904207D010F8013B11F8014FA3421C
:40278000F7D0181B10BD002010BD10B5431E0A44914204D011F8014B03F8014FF8E710BD02440346934202D003F8011BFAE7704710B5034642B111F8014B03F8014B013A41
:4027C000002CF7D11A4400E010BD934202D003F8014BFAE710BD0000F8B500BFF8BC08BC9E467047F8B500BFF8BC08BC9E46704701B40248844601BC604700BFD54802082D
:402800002E2E5C2E2E5C2E2E5C66696E645C43453231323733365F50536F4336424C455F46696E644D6530312E637964736E5C64656275672E6300000300000001000000BF
:4028400001000000000000000503600004000000010000000000000001000000060460000800000094760208CD050810000003000000120001000028010000000B0000002F
:402880000018000000000000020003280100020003000000002A0000000000000300002A010002010300000004000000F8420208040003280100020005000000012A0000C5
:4028C000000000000500012A01000201050000000200000000430208060003280100020007000000042A0000000000000700042A010002010700000008000000084302084A
:40290000080003280100020009000000A62A0000000000000900A62A010002010900000001000000104302080A000328010002000B000000C92A0000000000000B00C92A10
:40294000010002010B00000001000000184302080C000028010000000F00000001180000000000000D000328010020000F000000052A0000000000000E00052A0000200190
:402980000F00000004000000204302080F00022901010A030F0000000200000028430208100000280100000012000000021800000000000011000328010004001200000010
:4029C000062A0000000000001200062A00010401120000000100000030430208010003000500070009000B000C000E000F0000001000120047656E6572617465645F536FB0
:402A0000757263655C50536F43365C70646C5C647269766572732F7065726970686572616C2F6970632F63795F6970635F6472762E68000047656E6572617465645F536FAC
:402A4000757263655C50536F43365C70646C5C647269766572735C7065726970686572616C5C6970635C63795F6970635F6472762E68000047656E6572617465645F536FE5
:402A8000757263655C50536F43365C70646C5C647269766572735C7065726970686572616C5C6970635C63795F6970635F6472762E63000047656E6572617465645F536FAA
:402AC000757263655C50536F43365C70646C5C647269766572735C7065726970686572616C5C6970635C63795F6970635F706970652E630047656E6572617465645F536F08
:402B0000757263655C50536F43365C70646C5C647269766572735C7065726970686572616C5C737973696E745C63795F737973696E742E630000000047656E65726174657D
:402B4000645F536F757263655C50536F43365C70646C5C647269766572735C7065726970686572616C5C737973706D5C63795F737973706D2E6300000000204000002440FB
:402B8000000000400000000000002340000030400000314000009F40000022400000104002020202020202020210101D800017007500FF030602063604102000000000002B
:402BC0007FC0000000040000000000000019324B647D00804000080B100000000000FF012002001F00800004FF081018001000140018001C4044484C50000000081000006C
:402C00000800000004000000041000000012000004210000002100000016000040114002C41300138013A013200000001C000000000021400000254000000140000034408C
:402C400000002440000031400000324000001F410000234000001140010101010101010101101010800019005500F0000501053B04101C01010000000FC000000004000097
:402C800001010101011D3A57789600082000101208000000001F00000010000F002000023F06080E00080009000A000B24282C30340000001000000090000000880000001C
:402CC000080000008000000004F0000000F00000400200002005A000D00100018001A0012000000010000000240003003000010028000200240002000C00010000316253A2
:402D0000C4F5A697B988DBEA7D4C1F2E4372211087B6E5D4FACB98A93E0F5C6D86B7E4D5427320113F0E5D6CFBCA99A8C5F4A796013063527C4D1E2FB889DAEB3D0C5F6E83
:402D4000F9C89BAA84B5E6D7407122137E4F1C2DBA8BD8E9C7F6A59403326150BB8AD9E87F4E1D2C02336051C6F7A495F8C99AAB3C0D5E6F4170231285B4E7D67A4B182983
:402D8000BE8FDCEDC3F2A1900736655439085B6AFDCC9FAE80B1E2D344752617FCCD9EAF38095A6B4574271681B0E3D2BF8EDDEC7B4A192806376455C2F3A0914776251443
:402DC00083B2E1D0FECF9CAD3A0B586904356657C0F1A293BD8CDFEE79481B2AC1F0A3920534675678491A2BBC8DDEEF82B3E0D1467724153B0A5968FFCE9DAC3F060000A4
:402E000000000000FFFF000047656E6572617465645F536F757263655C50536F43365C70646C5C6D6964646C65776172655C626C655C63795F626C655F6761702E680000B2
:402E4000000404000104080002041400030C200004042C0005064800B1770810457C0810457C0810457C0810457C0810BD61081091620810457C0810457C0810457C0810FD
:402E8000457C0810457C0810457C0810457C0810457C0810457C0810457C0810D9790810257A08105D700810617208103D7608104D50081000000000C432081064320810F6
:402EC00008000000A9EB08100000000034310810803008100F000000000000000000000000000000000000000000000001200000D9870810062000001D8908100720000026
:402F0000ED87081008200000DD88081009200000DD8908100A200000D98608100B200000A18908100C20000069890810102000003587081011200000B586081012200000BB
:402F4000B98808101420000055890810152000004D87081017200000098708100E20000039870810ACFD0000AF8B0810ADFD0000A38A0810A0FD0000198C0810A1FD0000E6
:402F8000038B0810A2FD00003F8B0810A5FD00000F8D0810A6FD0000738C0810A8FD0000758A0810A9FD00004B8A0810AAFD0000678B0810ABFD0000D58C0810AFFD00000D
:402FC000658B0810C3FD0000C18C0810B0FD0000398C0810B2FD0000878C081005140000938708102D0C00006D8808107B0C00001B8808107C0C0000118A081027200F20BC
:4030000028201020292010202B200A202C200B202D200D202E200C204E201720000001000100000100010202030002000000000002020100020000010001000501000502F7
:4030400002030002000000000002050100050000B5E308101DE5081025E4081001010B0102028102820503040403840906090709080909090A09050A0C0B0D0D0E0E0000E9
:40308000010000000100000000000000020000000400000002000000030000000700000005000000040000000A00000008000000050000000C0000000B00000006000000BF
:4030C0000E0000000D00000007000000100000000F0000000800000013000000110000000900000016000000140000000A0000001700000017000000FF00000018000000E1
:40310000180000000B0000001B000000190000000C0000001D0000001C0000000D0000001F0000001E0000000E000000210000002000000001000000C1080910FEFFFFFF7C
:403140008D07091001000000C108091006000000850A0910F8FFFFFF8D07091018001200A9070910A000000C0105091047FFEDFB8D070910E8000C00F906091000012000A9
:40318000090609101FFED3FF8D070910A000000C210F09105FFFFFFB8D07091000020000790D0910FFFDFFFF8D070910000C000009040910FFF3FFFF8D070910000A000030
:4031C000AD06091001000000CD060910FEF7FFFF8D070910002000004D05091000400000290E0910FF9FFFFF8D070910FFFFFFFF93070910FFFFFFFF0304091000800000C7
:40320000E503091000000100C7030910FF7FFEFF8D070910008001008B030910FF7FFEFF8D070910000080036D030910FFFF7FFC8D07091000801F0AA9030910FF7FE0F53E
:403240008D07091000000000000000000000000000000000870000000000000000000000000000008100000000000000000000008200000001000000010000000100000014
:403280000200000002000000020000000400000003000000030000000600000005000000F10000000700000007000000F20000000900000008000000FF0000000A000000E8
:4032C0000A00000002000000B113091001000000B11309100E000000A512091002000000E91209100C0000008D12091002000000291309100C0000008D1209100E00000026
:40330000B11309100C000000ED130910020000008D1209100E00000031140910000000002DE9F05F00250746041D00F1180840682E4E4FF6FF7A88B1616879B180070DD1E9
:40334000207A80070AD198F8300038B12849084600F0B4FB10EA0A0002D044E0354642E02289A37ADFF88C90206858B1C9F800000025A9F80420A9F80650A9F8083029467D
:40338000FFF70EFAA07A801D00F0FF0B5946606800F072F8050021D1404601F099F905001CD1E06820B1384600F0DCFA050015D1B9F80400B9F80610884206D3401A80B2B8
:4033C000594600F0BBFE20B100E05046354628B109E0A07A801DC0B200F0D6F900F0EAF90549012008702846BDE8F09F01001600AD360810787702080044020803480078A1
:40340000012801D100F02ABD704700000044020810B500F085FB0449002008608880C88008810249087010BD787702080044020870B5044600208A0703D001F00302891A6F
:40344000091D084B89B2DA889E885518B54206D81D682A442260DA881144D98070BD024870BD000078770208030016000148008970470000787702082DE9F84705460C461F
:403480000020890000908A466846FFF7D1FF07004BD12748009B0022036017E003F82220062A08D2234803EB820100EB820046784E70408807E005EB8200183803EB8201F8
:4034C00086784E700088521C4880D2B2A242E5D300251EE005F1010909F0FF0015E003EB850203EB8001B2F802C04E88B4450AD991F80180A1F802C092F801C081F801C036
:40350000568082F80180401CC0B2A042E7D309F0FF05A542DED347B951466846FFF788FF070002D10449009808603846BDE8F88704440208402E081008440208F0B500233A
:4035400019E05A1C00EB830612E030F8235030F82240A5420BD2778820F8234000EB8204B4F802C0A6F802C020F822506780521C8A42EAD35B1C8B42E3D3F0BD00487047C6
:403580008477020805F080BD064940B1EA218180052101700021417009218170002108467047000001001600FFF728BF10B5022401F032F810B100F03FFF00B901242046B1
:4035C00010BD05207047000010B5002428B132220349FFF7DAF8204610BD024810BD00008477020801001600F8B506004FF000008DF8000006F1040407D020892081304685
:4036000001F0E2F8050002D012E01248F8BDA17A6A46606801F0B2F8050009D1E06838B1B6F84400000903D0304600F0FBF905462089208165B93046FFF772FE050007D115
:40364000304600F0B5FF0546A17A6068FFF776FF2846F8BD0100160038B504004FF00000ADF8000008D0A18D090A05D1617A102902D8E179102901D90A4838BDE0856946E3
:40368000204600F0D5FF0500E08DBDF800100844E08504D1322221460348FFF776F8284638BD0000010016008477020870470000002809D005494A68002A05D0011F0878E3
:4036C00052F8200000F0E4BC704700000444020810B50446FFF7CAFEC0B2801DA0420BD30648406840B150F8240000F03DFC002801D000F8044B10BD002010BD0444020863
:40370000F8B516460D460446FFF7B0FEC0B2801DA04203D24FF0FF300090F8BDB2B2E9B2684600F04BFC0099481C03D00248406840F824100098F8BD044402082DE9F041CE
:403740000746FFF793FE801D0B49C6B2002005460C680CE0617839B16188B94202D32078FFF7B6FF002804D1241D6D1CEDB2B542F0D3BDE8F081000004440208002801D001
:40378000FFF796BF7047000070B506460848002504680AE0617829B162882078121D0023FFF7AEFF241D6D1CEDB2B542F2D370BD044402081CB50024142001908DF800407E
:4037C0002346064A694606480BF080FF04480068401C01D14FF6FF7420461CBD1D3808100C4402080EB50C4A0146002312684FF6FF7004290DD009290AD109200093ADF8D0
:403800000800ADF80A30694610460BF05CFF80B20EBD04200093F2E70C44020870B5D0E90054468900890C282DD2DFE800F02C2C0606112C2C152C191C27E0B23246294608
:4038400009F01CF9E0B23246294600F037FD1AE000200BF043FC16E02878FEF71DF912E000F00AFE0FE0E8B2022C02D008F042FE09E0FF2807D002F073FF04E02846022C32
:4038800003D008F00FFF002070BD03F07BFAFAE70148006800F0CABA0C4402082DE9F0411F4F0026386D60B1796D51B14218891E12F8024C0022FEF75FF8844201D0194EDC
:4038C0002BE0002505EB850307EB8304606800B357F82310E9B16289D7F854C0624518D294F80CC01CF0090F02D0FEF74EFF0AE009780170606831B1628957F82310083AEC
:4039000008310830F1E723691BB10122207B114698476D1CADB2042DD4D33046BDE8F081B8770208FFFF1600F0B5C10701D040F008000B4CFF2184F85D10002101250E46E8
:4039400001EB810204EB820205FA01F3177B03409F4200D11681491CC9B20429F0D3F0BDB877020870B5134908B3B0F84410124CC1F30711002584F85C1001692165406996
:40398000C4E91505FF2684F85D6028464FF6FF7300EB800204EB8201401C4B8144F822500D610E73C0B20D810428F1D30021084670BD000001001600B877020810B5174B16
:4039C00048B3417839B3002202E04908521CD2B20029FAD102EB8201114A02EB810111F8084CFF2C17D103787BB1438821F80A3C946D136D234441F8143C4488936D2344CD
:403A0000936582680AB141F8042C103942780A72406800230860184610BD000001001600B8770208F0B5B0F84420234C46690021C2F30712D2B3D3070BD090F8203003EB95
:403A4000C30505EB431501EB850101EB031101F14001530715D5C37F2C2513FB05F55FEA857C4FF00C0723D003EB430505EBC30307EB830505F00305C5EB830505F110057D
:403A8000294492070ED590F821004FF00803C20095070FD003EBC00202F00302C2EBC0020C321144891C8E4200D300242046F0BD0C35E5E70832F4E7010016000F4A10B56E
:403AC000002313600E4A13600E4B18600E4801600E49012008600E49086000020E4990600C4808600D4914300860A0F58A70506000F0D0F800F008FA002010BD28440208EB
:403B0000104402083C440208404402082C4402081C4402081879020820440208344402080020704710B501004FF0000010D0094B1A689C681144A14209D25868196010446A
:403B40008A0704D001F00302891A091D196010BD002010BD104402082DE9F04102461A4F002010253B1F4FF0FF38444639681B6807E000EB800605EB86068E59761C1ED08A
:403B8000401C9842F5D3601C16D004EB84060C2000EB86000A5002EB42008000FFF7C2FF396841F8260060B1396805EB8602002088507868401C78602046BDE8F0810446D3
:403BC000E1E74046F9E70000204402082DE9F0410F464FF0FF36002821DB2249096888421DD8E7B1DFF87C8000EB800508F104081020D8F8001000EB85040859401C0ED05B
:403C0000FDF7E8FED8F800000C2202EB8502015950F802C04346614504DBFDF7D5FE3046BDE8F081082101EB8506815950F8250001EB410500EB85003D6805607D68456056
:403C4000BD6885601868491C82588A4200D10021815118680159491C0151FDF7B5FE0020DEE700001C440208002803DB08490968884202D94FF0FF307047054900EB800019
:403C8000091D1022096802EB80000858704700001C4402082DE9F0430020134A0427441E03464FF0080C1025A2F10409506014E000EB8001166807EB8108401C46F80830AE
:403CC00016680CEB810846F80830166805EB810846F80840166846F82130D9F800108842E6D30020BDE8F083204402082DE9F0410E464FF0FF3700284CDB294909688842B0
:403D000048D8EEB3DFF8988000EB800408F104081020D8F8001000EB84054859401C39D0FDF758FED8F800004346415949B3042101EB8407C25950F8240002EB420100EB5E
:403D40008100521CD0F800C0C6F800C0D0F804C0C6F804C08068B060186850F8240000EB810000210160416081600C21186801EB84014158914200D10022C251186801E0FB
:403D800008E009E04159491E4151FDF71DFE0020BDE8F0813846FBE7FDF716FEFAE700001C4402082DE9F0470D4601001E4C4FF00000089E80464FF0FF37206010D0606854
:403DC00085420DD262B15EB1642E09D804F10C09C5EBC501D9F8000000EB8104207A10B13846BDE8F0870120226020721846FFF7B3FE6060401C13D06681A681276167613B
:403E000099F80410A94201D289F8045041460B4661F30F030A46284600F052F82846E0E784F80880DCE700002844020810B5002810DB0949496888420CD80749C0EBC0005E
:403E40000C31096801EB80004068FFF70DFF08B1002010BD012010BD28440208FEB5174E4FF0FF373D4600240DE03068C4EBC40100EB8100017A29B14068FFF7F5FE08B13C
:403E8000254603E0641C3079A042EEDA681C13D03068C5EBC50100EB8104FDF79BFD69466068FFF723FF0546FDF78EFD002DD9D1216868468847D5E7FEBD00003444020841
:403EC00038B50024009400F001F838BD1FB500220C49541E00280A6012DB496888420FD80849C0EBC0000C31096801EB800001A94068FFF76BFE401C02D0002004B010BD4B
:403F00002046FBE728440208F0B50021154A4E1EA2F10C0711710B46BE601EE0C1EBC1000425146805EB800566511468082505EB800544F820301468635514680C2505EBE4
:403F40008005635314680A2505EB800563531825146805EB8000491C265078688142DDD30020F0BD3444020838B5041E4FF00000009012DB1048007884420EDA0E4D0C35A5
:403F8000286800EB0411096839B1042101EB04110844694600F047F908B1002038BDFDF719FD0F21286801EB0411425C521E4254FDF70AFD009838BD444402082DE9F74F12
:403FC0008A46002500996C1ED21C0C604FF6FC71DFF8B88002EA0107A8F10C0128460A78D8F8001005E001EB00131B687BB1401CC0B29042F7D3601C2CD0042000EB041B81
:4040000001EB0B00514600F0FDF818BB01E00446F1E7D8F800000C2101EB041147520E22D8F8001002EB041207FB0AF001F802A00F22D8F8001002EB041201F802A000F057
:40404000ABF8D8F8001001EB0411086010B1814600260EE0012516E0D8F8001001EB0B00494600F0FAF808B1012500E0B944761CF6B25645F0D335B90098046098F8041072
:40408000491C88F804102846BDE8FE8F50440208F8B54FF000070D46041EADF800703ADB25480078844236DADFF88CC00CF10C0CDCF8001001EB0410006860B30C2202EBCA
:4040C00004128E5A0E2202EB041285428B5C06FB030220D395421ED2002205E002FB060EAE4504D0521CD2B29A42F7D39FB1042000EB0417C81966466A46294600F0C7F8D5
:4041000048B9BDF80000012807D030682946384400F0A3F818B10120F8BD0020F8BDFDF759FC0F21306801EB0411425C521C4254FDF74AFCF1E70000444402082DE9F041A8
:404140000D46002400F03CF8002821D11149002201F10C034A600C210E264FF00F0E14E01F6801EB041C07EB04173A601F6827F80C201F6806EB041C07F80C200EEB041CCA
:404180001F68641CE4B207F80C20AC42E8D31A71BDE8F0814444020800280BD0074AC01C20F00301506853880144994203D893685160184470470020704700004444020861
:4041C000F8B5064600200E4D00900C01297021466846FFF72DF958B905F10C0100980860301B001F84B221466846FFF721F910B14FF6FF70F8BD6C800098A8600020F8BD80
:404200004444020830B50D4604000AD0A800FFF7C3FF606028B125704FF0FF306080002030BD012030BD70B50D46040004D01DB1B4F90200002801DA012070BDFDF7CAFB08
:40424000B4F90210606850F8210028606088401E6080FDF7B9FB002070BD70B50D46040006D02DB12078B4F90210401E814201DB012070BDFDF7AEFB6088401C00B2608066
:40428000616841F82050FDF79FFB002070BD70B500231D4610B1B0F902400AE0012070BD466856F823608E4201D1012503E05B1CDBB29C42F4DA1570002070BD70B586B01B
:4042C00015460E460446182200216846FEF768FA00238DF800308DF80140ADF804506846029600F023F906B070BD00000EB501890091407801900A20ADF808000020ADF8D6
:404300000A000348694600680BF0DDF90EBD00000C4402080EB541680091417801910221ADF808100089ADF80A000348694600680BF0C9F90EBD00000C44020800F0DEB8F1
:4043400002490020488000F071B80000584402082DE9F041074621480125002405704FF6FF75012F02D0022F2FD10DE0477082801B4A128842F4807282818160174800F0A3
:40438000D5F810BB2C4620E0164E012B20D0B6F800C0022B624492B2328010D081607188091D8A4211D1104947708280098841F400718181094800F0B9F818B103E0096854
:4043C0004161ECE72C46002030802046BDE8F0814A887280096801610420F5E7487902084445020858440208C044020870B504460D4600EB4400C20000212846FEF7D0F9E1
:40440000074A0020074914711560907150710648FDF7E6FA08B1002070BD012070BD00005C440208ED4208101543081001491420FFF7DCBF6079020810B5FDF7BDFA064977
:404440004A7989798A4201D1012400E00024FDF7B7FA204610BD00005C44020805494879401CC0B248710A79904201D100204871704700005C44020810B5FDF7ABFA0B4985
:4044800048798A7990420DD0096800EB400001EBC000AFF21B020649FDF7BCFA10B10920FFF7A0F9BDE81040FDF78EBA5C4402085D44081070B5104C0146A2796379501C52
:4044C000C0B2834216D02579854200D193B1206802EB420200EBC2001822FEF756F9A079401CC0B2A0712179884201D10020A071012070BD002070BD5C44020870B5FDF784
:404500005BFA094C0546217901EB4100C20000212068FEF745F90021A17161712846BDE87040FDF74DBA00005C44020810B5FFF7C1FF0446FFF7A0FF204610BD10B5124808
:4045400002F03AFC68B9114802F01EF848B911490F480860084600F04FFA10B90E4809F075F904000ED1FFF799F90404240C04D0002141F2050000F089F900214FF48050F4
:4045800000F084F9204610BD415D0810EF600810459708106C4402081D93081010B504F0DDFB03F00DFDBDE8104004F061BD000070B50546041D00F1180600F0ADF91448A1
:4045C00029680160616809888180A17A03290FD361688979017261684989C1F34701417261688989C180B179817296F83010C1726168098A818100F091F8002806D100F0BD
:40460000A5F8002802D1034A0121117070BD0000407B02086444020810B502F097F9012803D1FFF735F9012800D0002010BD00002DE9F0411C4D0C46060005D0DFF86C8060
:4046400098F8000018B16D1C2846BDE8F081B08D08F08EFB308808F091FB0500F4D1304609F0C4FF0746304603F074FB0744304600F0F2FF384400F634102080304605F056
:40468000C4FC21880844208096F83010C1EBC10100EBC1002080304601F00CFC218808442080A8F80400CFE7010016006444020810B505F045FC03F05BFB00F09DFF09F02D
:4046C000C2FF01F0B3FBBDE8104008F023BB000010B5040010481DD0204608F023FB002818D1204601F0B0FB002813D1204609F0B5FF00280ED1204600F086FF002809D1EF
:40470000204603F03BFB002804D12046BDE8104005F022BC10BD000001001600094810B50949C07A887000F04BFF064801F0CCFB002806D103F034FBBDE81040014805F0AD
:4047400045BC10BD407B02086444020810B500220849094800F0FCFE10F0FF0008D000220449054800F0F4FEBDE8104004F04CBF10BD00003D45081079840810F0B50026D1
:4047800035461670334616E030F82340082C0AD900EB83077F8837B1083C20F823401478641C147005E053B100EB830420F8235065805B1CDBB28B42E6D33046F0BD014E6D
:4047C000FBE7000001001600F0B52E4C031D0020A188247802460CB12B48F0BD2A4D1C68083D4CB11F898F4206D3596821B100244FF0020C9E7A39E02846F0BD0CEB82031C
:40480000CB5A03B331F822E0BEF1000F2AD00EFB03439CB2052A32D2DFE802F0030C11161E00B1F800E08B78BEF1230FE4D3032BE2D317E08B8833B1302BDDD312E00B8957
:404840000BB1282BD8D30DE08B895BB1233B4FF6BA7E7345D0D205E00B8A002BCCD04B8A012BC9D10028C8D1521CD2B29642C5D8C6EBC60104EB81018F42BDD3F0BD002021
:40488000F2E700006444020809001600034A1268002A02D0002800D010477047407B020870B5044605F0AFFB01F01AFC00F030FE174D012C16D0022C29D11648046800F034
:4048C0002BF8FEF7A5FDFFF7F3FEFFF767FE00202870002C1BD0A446BDE87040002143F212006047FEF74AFE848DFFF717FF38B9FFF72CFF20B901202870204608F038FA11
:40490000BDE87040002143F20100FFF7BFBF70BD64440208407B020803480021016041608160C16070470000407B020801464FF6C05007F057BD0000064910B5097804483F
:40494000002903D00220FFF7F1FF002010BD0000020016006444020830B50C46054600F00DF8002806D1044A6978126802EB0111C988218030BD0000704402080B4B024623
:4049800042F6137051781B7899420DD2084B1B6803EB01110B7A6FEA03039B0704D4127809788A4200D1002070470000664402087044020810B50A490A4B027809781B6816
:4049C000491EC9B203EB01142478A24202D14170002010BD0029F3D14FF6FF7010BD000066440208704402080249096801EB0010807B70477044020842F6117138B10068CE
:404A000028B105490A6822B142F61470704708467047086000207047744402082DE9F74F84B0154604980E4660B1152E05D01E2E0BD9D22E09D0522E07D042F6127007B0BC
:404A4000BDE8F08F42F61170F9E700200390049890F80180FF208DF808000498FFF78EFF07002ED1DFF854A542F6147B1B2E0CD01D2E0AD0F0070BD0012E06D0DAF80010B6
:404A800001EB0810007BB0421AD1F00703D00FE01E2EF3D0F9E71E2E14D0DAF8001001EB0810407B20B1522E0CD0D22E08D109E01D2E07D1DAF8001001EB0810407B08B1B5
:404AC0005F46D6E0012E20D0DAF8001001EB0810C088001DFEF732FE040018D002214FF0010942F616700F2E75D013DC4FF005024FF0030729D2DFE806F0282BFB48FA541A
:404B0000F971F880F78FF685F5000920E2E742F60577AEE0182E6FD009DCA6F11002082A13D2DFE802F0E7B5FDE81212EBEB1E2E7ED006DC192E7BD01B2E01D01D2E04D1C3
:404B4000EEE0522E75D0D22E74D042F612778DE0E878042809D0DAF80030A97803EB0810007B401E81420ED105E0DAF8001001EB0810007B38B1A87860712888A071000A3C
:404B8000E071E878F7E05F4670E02988172901D207466BE0ADF8067028886071000AA07144E02879012817D01027ADF8061028796071EA88BDF80630BF1C201D7A4318449E
:404BC0002968FDF7E2FDBDF80600E98807FB0100ADF806002AE050E00227E6E7ADF80690A88829688200601DFDF7CFFDBDF80600A98800EB8100EBE7D0E1ADF80610A888C6
:404C0000801C5CE0286808B1A88828B9012003900020ADF806900090434601222146284600F0EEFB070026D00398F8B1267102E061E075E076E100208DF80A008DF8096005
:404C4000304600F09FFA04998DF808006A460988ADF80410BDF806100094091DADF806100146002003F008F8070002D02046FEF785FD3846E3E6E8889DE1ADF80690AA881F
:404C8000601D2968FDF781FDBDF80600A988AFE0EA88002A3FF47CAFAA88002AFAD0DAF8007007EB0813DB885B1E9A42BFF670AF2A68002AEED0ADF80610A888001DA88054
:404CC0006071AA88E888BDF806304243201D18442968FDF75AFDBDF80600A988EA8801FB020075E7DBE0BFE0B5E083E047E033E021E003E0DEE0ADF8069097E729890029E2
:404D0000C8D0ADF80690221D288909F80200BDF80670631D010AF954BDF80600801C4EE0434601222146284600F046FB07009DD1E888C01C4CE729881729FFF429AFADF81E
:404D4000067028886071000AA071DAF80020298802EB0810418069E7298800299AD06B88002B97D099423FF613AF6171080AA0716888E071000A2072ADF8062056E72A8940
:404D8000002A87D06989002984D08A42EBD8ADF80690221D288909F80200BDF80670631D010AF954BDF80670A11D68897854010ABDF80670E01D3954BDF80600001D81B2D2
:404DC000ADF80610A8898854BDF80610000AC854BDF806004346801C82B2ADF806202146284600F00DFB0700A1D1BDF80600E9880844EDE629880029B0D06A88002AADD097
:404E00009142B0D8ADF80690211D288809F80100BDF80670631D020AFA54BDF80670A21D6888B854020ABDF80670E01D3A54BDF80600001D82B2ADF80620287D012801D0C9
:404E400050185EE0A8885054000A67E0022000E010200844BCE62988002992D06171080AA071ADF80670E1E62988002989D0ADF8069028886071000AA071BDF80600221D30
:404E8000801C81B2ADF8061068888854010ABDF80620601D1154BDF80600801C98E642462146284600F062FA07009DD1E98809EB41008DE6298800299ED06A88002A9BD0F9
:404EC00091429ED8ADF80690201D298809F80010BDF80670631D0A0AFA54BDF80670A21D6988B9540A0ABDF80670E11D7A54BDF80610091D8AB2ADF80620297D01290AD08D
:404F000010441022291DFDF740FC287DBDF8061001289DD19AE7A9881154080ABDF80610C854F2E7288900283FF411AEADF806902889271D010A09F80700BDF80620601D1F
:404F40001154BDF80600801CADF80600DAF8001001EB0810C0880F3880B2E880A988884200D9E980BDF80600EA8838442968FDF70CFC2868FEF702FCBDF80600E98808444D
:404F800080B2ADF806003844E96801602969416069698160BDF806000C3019E6297811B101297FF4F5ADADF80690221D287809F80200BDF80600401C0AE600007044020886
:404FC00030B50C460546FFF7D9FC002805D1034A6978126802EB01118C7330BD70440208F0B40E480023122603600D48012401780A48001F17220568491E05EB0110467035
:405000008460C28042808280037343738473F3D1F0BC1721034A042001F00EBF7444020866440208A551081070470001704700000149002008607047704402080101014807
:40504000FEF7F6B97044020870470000044A4079126802EB001080680860002070470000704402082DE9F843324E0746457930684FF0000800EB05104FF01209846811F1B1
:40508000090F2DD011F1050F05D00C22042914D0082949D136E04078122806D008F0EEF9316801EB051181F80190316824F0040401EB051181F80D8036E04178122906D166
:4050C0000092401C3B461C4A1E2108F073F93168787A01EB0511401C487344F0040423E04078122806D008F0C9F9316801EB051181F80190316824F0080401EB051181F8FA
:405100000C8011E04178122906D10092401C3B46094A1E2108F04EF93168787A01EB0511401C087344F00804306800EB05108460BDE8F883704402084554081070B5104DB6
:4051400004460129286800EB0410816016D140781226122805D008F091F9286800EB041046702868012200EB041017218260C18041808180002101734173827370BD000064
:4051800070440208032809D9C10704D01B2804D01D2802D003E01E2801D0F1207047F220704700002DE9F04F85B00646032956D803D1002A53D0002B51D04E484FF0FF0A54
:4051C00042F6137904784FF001008DF80A008DF804A049488DF805A096F800C0006825460DF10C0BA4F1010400EB041797F80080C44508D1BF68012F05D08DF80540307857
:405200008DF8040007E0002CECD1B9F1000F02D0012924D126E0012921D002294CD01078142801D9162805D31E2858D9D22856D0522854D08DF808A08DF809A00092ADF888
:4052400006309DF808106A46002002F015FDA0F53C51123903D1012106200AF01BFA05B0BDE8F08F6D1E00EB05118968012906D0002DF7D19DF80500FF28F0D0E1E7EAB2AF
:405280008DF8052031788DF8041000EB05103178017002211046FFF751FF81208DF808008DF8090003A9304600F028FC0720CDF800B0ADF80600DDE7E0B20121FFF73EFF45
:4052C00082208DF808008DF8090003A9304600F015FC0720CDF800B0ADF80600B1E78DF80900FFF74FFF521C8DF808005B1E0092A5E700006644020870440208F8B5054621
:40530000447A807A0E46012822D1287A81281FD082281DD076B91E2C0CD0E10702D01D2C0DD005E0522C03D0D22C01D01B2C06D1FF2804D0E00704D01B2C04D108E0082139
:4053400003E01E2C04D16FF004012846FFF78AFE05480768002F06D0E888009032462146281D2B68B847F8BD74440208F0B58788012405683B0019D0DFF838E004F1020C91
:40538000DEF8006006EB0216F68866450AD30C4435F8026B26714FEA162666715B1E1FFA8CF4EBD1F91AC1800020F0BD42F61670F0BD0000704402082DE9F0410489CCB172
:4053C000DFF838C08788961CDCF800C037440CEB031C42F62075BCF806C0674507D80A441471240A5471B2B200F00AF805462846BDE8F08142F61670FAE7000070440208DE
:405400002DE9F0410D468488016804B151B10C4EA718366806EB0313DB889F4206D99B1AC38004E042F61170BDE8F081C480C388A818001D1A46FDF7A8F90020F4E70000BE
:40544000704402082DE9F041184E0446407931684FF0000501EB001042F6177780686FEA0000410701D4691F03E000070DD46FF008012046FFF7F6FD607A3946401C607230
:405480002560E5802046FFF739FF6079316801EB00104078122807D007F0F0FF61793268122002EB01114870BDE8F0817044020870B50446C38804C8042101F087FC0500FC
:4054C0000FD1617AC8070ED01D2912D0522908D0D22906D01B2904D06FF008012046FFF7C1FD284670BD5229FBD0D229F9D01E29F2D00421F2E7000020B1044909780170A2
:405500000020704741F21300704700007844020810B50E4C2078032804D0022802D041F2120010BD0AF0E9F800F0FEFF07F084FC0AF0E2F8FEF702FF08F036F800F042F9B3
:4055400009F038FD0020207010BD00007844020870B5134D04462878012802D041F2110070BD0220287069600AF0A6F809F014FD00F00AF907F0E6FF0AF0C6F8204606F0D7
:4055800025FF040003D107F009FC040002D00120287003E000F05AFF0AF0B7F8204670BD78440208054810B50178022904D103210170406800B18047002010BD7844020843
:4055C00010B50C4C2078002812D160600AF07AF809F05EFD00F006FBFEF7B2FE0AF09CF807F0C0FC00F0BAFF0AF097F80120207010BD000078440208024800218160416031
:40560000704700008044020838B5044600200090204600F021F801466846FDF709FF002813D10C4B009A5A6094F83010CC070DD001EB810404EBC101032404EA4104C4EB40
:405640004101091D11440091996038BD1A246143F8E700008044020890F83010007A4FF003030844C207C0EBC00013D003EA4002C2EB4000001D82B2C8070DD001EB8100EF
:4056800000EBC10003EA4001C1EB4001091D881880B270474000EEE71A204143F7E700002DE9FE4306460D0041F2114066D0002E64D0304600F0C0FA040023D041F2134753
:4056C00041F21448BC4220D0A879022801D003281BD128680090A888ADF80400A8796946801E8DF80600304600F0A6FA040009D0BC420AD002A9684608F0EAF838B99DF894
:405700000800307041F2124437E0444530D130781B49C0EBC003AA798868002400EB43039A7132782B68C2EBC20200EB42021360AB88938001F10C0293793278C2EBC202ED
:4057400000EB420253733278C2EBC20200EB4200CA6840F8072F0A8A82800878401CC0B2087008490988814207D109F0DFFF04E0BC4202D1284609F0D7FF2046BDE8FE831E
:40578000804402087C45020830B40C480C4C00220088A368401EC0EBC00103EB410100280A608A808A71C1F80720A1F80B204A73F0DC227030BC09F0BABF00007C45020892
:4057C0008044020809F0B4BF18B5002401468DF800406A46204600F029F8002822D19DF8000000EB800101EBC0020F48416801EB4200427E012A15D144769DF8000000EB48
:40580000800202EBC00001EB4000C0F8064044819DF8000000EB800202EBC00001EB40000460848018BD000080440208F0B5144C144D06464FF6FF70002364682D7811E079
:4058400003EB830707EBC307012E04EB470705D03F7E8F4204D113700020F0BD7F7E27B15B1CDBB2AB42EBD3F0BD03EB830000EBC30004EB4000012545760176EBE7000057
:4058800080440208664402081A2100FB01F2024800214068FCF784BF8044020838B50D4600218DF80010144601466A460020FFF7BDFF00281AD19DF8001001EB810202EBF9
:4058C000C1030B494A6802EB43012B68CB60AB880B829DF8001001EB810303EBC10102EB41012268C1F81220A288CA8238BD00008044020838B50D4600218DF8001014463D
:4059000001466A460120FFF791FF002825D19DF8001001EB810202EBC10310494A6802EB43012B68C1F80630AB884B815CB19DF8001001EB810303EBC10102EB410123689D
:405940000B60A3888B809DF80010012301EB810404EBC10102EB41014B7638BD8044020810B538B1174A01781288914205D341F2154010BD41F2114010BD134CC1EBC102A7
:40598000A16801EB420300221A609A800378C3EBC30301EB43039A710378C3EBC30301EB430343F8072F9A800378C3EBC30301EB43014A732178491E217009F0B6FE0020E5
:4059C00010BD00007C4502088044020841F2114241B138B10E4B02781B889A4204D341F21540704710467047C2EBC203094A926802EB43035B7B8B710078C0EBC00002EBD7
:405A0000400050F8072F0A6080888880002070477C450208804402082DE9FE434FF0000807460C008DF80080CDF8048041F21140CDF8088008D0002F06D02E48397800881C
:405A4000814203D341F21540BDE8FE836A460020FFF7ECFE284D06004FF001091CD19DF80000062200EB800101EBC000696801EB4001891D01A8FCF779FE68B19DF8000044
:405A800000EB800101EBC000696801EB4000D0F806102160408927E021463846FFF796FF0646A079022822D30FD19DF8000000EB800101EBC000696801EB4000C16821607A
:405AC000008AA08084F8068011E003280FD19DF8000000EB800101EBC000696801EB4000D0F812102160C08AA08084F806903046AAE700007C4502088044020810B50246C0
:405B000041F2114000291DD0002A1BD010481378048841F21540A34214D2C3EBC3040D4B9B6803EB4404A4798C711278C2EBC20203EB420213680B6092888A8000228B5C94
:405B40000BB1002010BD521CD2B2062AF7D310BD7C45020880440208FEB506464FF000008DF80000019002900C0041F2114008D0002E06D0194831780088814202D341F27B
:405B80001540FEBD6A460020FFF750FE05001ED19DF80020124F02EB820000EBC2007968062201EB400101A8FCF7E0FD78B19DF8000000EB800101EBC000796801EB400009
:405BC000016821608088A0800120A07104E021463046FFF793FF05462846FEBD7C4502088044020800B591B06846FDF7EDFCBDF82C00C00617D508208DF8350001208DF86F
:405C000034009DF830009DF808100844C0EBC0004000ADF8360000200F90064880680E900DA8FDF7CBFE9DF83000FFF72DFE11B000BD0000804402082DE9FC475FEA010909
:405C4000054641F2114134D095B3DFF880A08E1C0020BAF800402C70ADF80400DFF8708000908DF80600641ED8F80800C4EBC40700EB470199F806208879824204D10622AE
:405C80004846FCF773FDB8B12978BAF80000814218D1D8F808009DF8062000EB4701887982420FD106226846FCF760FD38B109E0FFE70846BDE8FC8700262C7004E02C708A
:405CC00041F21446002CCEDC3046F3E77C4502088044020848B1064A0368D3608088108202F10C0081710020704741F2114070478044020810B541F2114241B138B10E4B87
:405D000002781B889A4204D341F2154010BD104610BDC2EBC204094A8B79926802EB4404A3710078C0EBC00002EB40000A68026089888180002010BD7C4502088044020892
:405D400038B54FF6FF73012915D0022939D0032910D100788DF80100507803EA0020ADF8000011780843ADF80000694646F20200FEF78CFD38BD01781A480172D17803EA5E
:405D800001210180947821430180517903EA01214180147921434180D17903EA01218180947921438180517A03EA0121C180127A1143C180BDE8384001464FF4C040FEF75F
:405DC00065BD00788DF80200D07803EA0020ADF8000091780843ADF80000694646F20100C6E70000507B02080C4810B5006808B1FDF7C4FC0A48006808B1FDF7BFFC0948C4
:405E0000006808B1FDF7BAFC07480068002803D0BDE81040FDF7B2BC10BD0000BC440208A4440208A0440208A844020803490020086003490860034908607047B4440208EC
:405E4000AC440208A844020838B504460020009094F83000A17910FB01F000EB80008004010C6846FDF7E4FA00281CD10E490098086094F8300000EBC000C1006846FDF7C7
:405E8000D7FA00280FD109490098086094F8300000EB001081006846FDF7CAFA002802D1034A0099116038BDA8440208AC440208B444020890F8300000EBC001C90000EBC8
:405EC000001001EB800070472DE9F843644F1E21624C7971017A01B901217970427A02B901223A70817A19B10B46C57A15B102E00123FAE701256B43BB7001B90121F970CA
:405F0000491E3971C0880025042802D9001FF88000E0FD80C2EBC2008000FDF70FFCDFF844810028C8F800007ED0387800EB80008000FDF703FC4C490028086074D0787841
:405F400000EBC0008000FDF7F9FB484E002830607DD0002400F08CF82846009537E000EBC001306840F82150009901EBC10100EB81014D60009901EBC10100EB81018D60D2
:405F8000009901EBC10100EB8101CD60009901EBC10100EB81010D61009901EBC10100EB81014D61009901EBC10100EB81018D61009901EBC10100EB81018D83009901EB91
:405FC000C10100EB8100C5830098401C009079788842C4D341462846009528E0C0EBC002086800EB82029560009AC2EBC20200EB82029581009AC2EBC20200EB8202D58122
:40600000009AC2EBC20200EB82021561009AC2EBC20200EB82029582009AC2EBC20200EB8200C582009800E011E0401C00903A789042D3D32846009505E0684600F05CFFC0
:406040000098401C009039788842F6D31CB100F00FF8FFF7C9FE2046BDE8F8830300160094440208BC440208A4440208A044020810B51648164C006830B12178C1EBC10197
:406080008A000021FCF78CFB1248006830B1217801EB81018A000021FCF782FB0E48006830B1617801EBC1018A000021FCF778FB0A480068002808D0A178BDE8104001EB0B
:4060C00081018A000021FCF76BBB10BDBC44020894440208A4440208A0440208A844020810B5FFF7C5FFBDE81040FFF77DBE08B569468DF800008DF8012041F20200FEF765
:40610000C5FB002008BD00002DE9F347284A9DF800000E46126800EB800100F1400912F8218002EB8101002488784D89022806D0032806D0052804D0062805D103E00124CD
:4061400002E0082400E00424684600F0D5FE194FE00711D0184908EBC8003A68096801EBC00005EBC50102EB81012E30D1F804C0002332464946E04760070DD5A6F50C50EC
:40618000383800D100263A6805EBC50002EB80003146C26848469047200707D5396805EBC50001EB8000816848468847BDE8FC87A4440208A0440208AC4402082DE9FE434A
:4061C0000E468046082B05D00021304601F0C0FCBDE8FE8350794FF6FF71147901EA00200443D079957901EA002005432548264F402C00780ED300F140018C420AD23A68E7
:4062000004EB840102EB8101A1F2FE41097809B1A4F140008DF8080008F0FF02214602A800F0F4FE48B99DF80800396800EB800001EB80008088A84208D000230222314682
:406240004046CDE9004501F0CBFCC1E7082307222146304601F0FEFC0C4906EB0610096801EB8001200A8C75C8750D76280A4876304601F069FB42F238319DF80800FFF711
:4062800043FFA5E794440208A4440208B444020870B50D46082B42D150794FF6FF71167901EA00200643D07901EA0021907908431B4940280A781B490B682ED302F1400118
:4062C00088422AD200EB800103EB8101A1F2FE41097811B3A0F14004E4B2A2421FD004EB840103EB81018A88B24218D18978062915D10D4A05EB0511126802EB81014989A6
:4063000081420CD10121284601F022FC2046BDE8704042F23831FFF7F7BE1446DCE770BD94440208A4440208B4440208F8B50746694600F0E9FA00287BD101220721009828
:4063400000F074F901220821009800F06FF9394E002456F8345025B104236A4602213846A847641C032CF4D30024334D42F23737324E0CE0296804EB840011F820000099DC
:40638000884203D1E0B23946FFF7BEFE641C30788442EFD300242A4D2A4E0FE0296804EB041001EB8000817B39B140680099884203D10121204601F0CBFB641C30788442D8
:4063C000ECD3214C0098216800EBC00001EBC000018D19B1818DC28C1144818506F094FC009901EBC102216801EBC2025085009800EBC00001EBC000343009F08BFE0098A1
:406400004FF6FF7100EBC002206800EBC20291840099FF2201EBC10100EBC10181F82E200099172201EBC10100EBC100A0F844200020F8BD5C7B0208A44402089444020820
:40644000B444020866440208AC440208F0B50021FF270C462E4E2F4D28E001EBC10233694FF6FF7C03EBC200491CA0F824C080F82E704FF0170CA0F844C04FF0030CC0F878
:4064800004C0DFF894C09CF800C0C0F808C0DFF88CC09CF800C043F832C04FF0FF32C260C0E90424C477048380F8464028788142D3D300201A4AF16805E000EB800301EB2D
:4064C0008303401C1F7413789842F6D37461747014493470002041F83040401C0328FAD300201227B3690DE000EB001203EB8201401C8C7395F800C0C1F804C00C8103F8A5
:4065000022704C7429788842EED3F461F0BD00009C440208664402089844020897440208964402085C7B020870B50024094D0A4E0BE0E96804EB840001EB8000007CFF28F8
:4065400002D0204600F00CF9641C30788442F0D370BD00009C4402089644020808480949002200780B69401E10F0FF0000EBC00103EBC1010A854A858A85F4D170470000F0
:40658000664402089C44020818B1034948610020704742F2163070479C4402082DE9F04102461E484FF0FF360078814202D93046BDE8F0811A481B4C0378246801FB03F5BE
:4065C00005EB850004EB8000002407E004EB840700EB87073F7CFF2F07D0641C9C42F5D30121084609F056F8E1E704EB8403002740F8237000EB83008781C7814660027412
:40660000094A01EBC100126852F830305B1E42F83030084600F0B8F92819C9E76644020897440208A8440208AC4402082DE9F04791460D46072908D0082D06D02E4900EBCE
:406640000010096801EB800080882C4980B200EBC0080A6802EBC800C468621C4AD00069274F8A46844225D0396804EB840001EB800017E03A6800EB800602EB86010B7CF1
:40668000AB420BD104EB840302EB830249685160B9F1000F03D000F063F800E00446386800EB86004068411CE4D1DAF8001001EBC8000461DAF800003B6800EBC801C868A7
:4066C00000EB800203EB82031B7CAB4212D10023CB770B833B6803EB82025268CA600B69834200D10A61B9F1000F03D0BDE8F04700F036B8BDE8F087B4440208AC44020894
:40670000A8440208F0B4144C024601EBC1032068124D00EBC300C668761C1AD000692E6800EB800006EB80004260206800EBC300026120684FF0FF3200EBC3002B68006970
:4067400000EB800003EB80004260F0BC084600F019BB0261C260ECE7AC440208A84402082DE9F05F494A01460025106800287DD0474B1F68002F79D0DFF818C1DCF8003002
:40678000002B73D0444B1C68002C7CD0434C2468002C78D0424C2468002C74D001EB810400EB840192460A7C0026012A04D0072A0AD0082A4DD113E0886800EB001007EB38
:4067C0008000808885B244E050F82400554608B1FCF7D4FF286800EB84008068050C38E050F824200AB140F824608F68DCF8002007EB8709C7EBC70812F829501A68898918
:4068000002EB8800E346028B114489B20183828A91421ED10069FCF7B1FF1F4940371FFA87FC0968002301EB88001A4606618682C6820683DBF8001001EB8900408900EB10
:40684000C0011648006800EB81001946076A6046B847DAF80000FF2140F8246000EB84008681C681017405EBC50000E00BE00C49096851F83020521C41F830202846BDE8E7
:40688000F05F00F081B8BDE8F09F0000A8440208B4440208A4440208BC440208A0440208AC44020811B581B0FF24694601A800F02BF840B905490098096800EBC00001EBE4
:4068C000C00090F8464020461CBD0000AC44020830B50B4B0B4C00221B6824780AE002EBC20503EBC505AD8C854202D100200A6030BD521CA242F2D342F2113030BD0000A5
:40690000AC44020866440208F0B50E4B00224FF6FF761D680C4B1C780FE002EBC20305EBC3039F8CB74207D0077893F82E309F4202D100200A60F0BD521CA242EDD342F274
:406940001130F0BDAC440208664402080C4810B504689CB10B4900200B780DE000EBC00104EBC101CA68521C02D10969491C01D0002010BD401C80B29842EFD3012010BD48
:40698000AC44020866440208154B30B4196809B1012400E00024134900EBC0000A6852F8301002EBC0004268914202D890F8462092B18268914211D390F84620012A0DD1B1
:4069C000002280F84620012C08D110F82E2F1B68007E30BC89B218470122F2E730BC7047B0440208AC4402082DE9F05F3149DFF8C89080464FF0000A81F800A000EBC8061F
:406A0000D9F8000000EBC600C568681C46D0DFF8ACB005EB85014F46DBF8000000EB8104D9F8000000EBC600C17F008B08440004000C03D14146284600F044F838681FFA35
:406A400088F200EBC601B9461431284600F088F820BB277C012F0ED11949A068096800EB001301EB830181F811A0097C012902D1002101F06DF8D9F8000000EBC600C16824
:406A8000A94201D16168C160D4E90150691C05D0082FBED1C0B200F06DFDBAE7D9F8000000EBC600C168491C01D1491E0161BDE8F09F00009C440208AC440208A8440208DB
:406AC000B4440208224A10B5126800EB800002EB80000022C4890368234401EBC1041D49096801EBC4014B618389C4891B1B9CB20C83037C012B04D0072B10D0082B18D1D2
:406B00000FE0154A8068126800EB001002EB8000807B08B105220CE00020088310BD027A07E00E4A8068126800EB800002EB8000828811F81F0F001DC0B208702044001F3E
:406B40004870000A8870CA70100A087110BD0000A8440208AC440208B4440208A44402082DE9F74F0C46C87A898882B0084486B2002001900498464900EBC0074FF0000B4E
:406B8000086800EBC700B0F82480A8F57F43FF3B04D184F80BB0A4F804B077E0808D8A4660B371E0DAF8000000EBC700028D0AB1828D1AB3458DB54200D33546721BC07F4D
:406BC00096B2F8B1002081464FEA182141EA091001998DF8008040EA81108DF801008DF80250280A8DF803000123042269460220FDF7AEFBB9F1000F06D011E0012005B088
:406C0000BDE8F08F0120DEE70223E27A04F10C011846FDF79DFBE07A84F80BB0281A85B2A08828B3A84200D80546A84213D3401B0004000CA08010D01648FF210180002366
:406C40002A4602202168FDF783FB70B10220049906F09EFBD2E7A4F804B0DAF800000D4900EBC70080890880E9E7206828442060DAF8000000EBC700C18C491CC184018D57
:406C800011B1818D491E8185002E8BD10020B6E7AC440208C04402081A4A10B51268002A22D0194A1268002A1ED0184A1268002A1AD0174A1268002A16D0164A1268002AB5
:406CC00012D0154A1468002C0ED0144A127860B159B1521E12F0FF0202EBC20304EBC303198558859985F4D110BD0021521E12F0FF0202EBC20004EBC00001854185818581
:406D0000F4D110BDA8440208B4440208A4440208BC440208A0440208AC4402086644020838B50C466946FFF7D3FD002826D1009800EBC0011248006800EBC101CA8CA24271
:406D400001D2002200E0121BCA84009901EBC10100EBC1010A8D62B18A8D224492B28A85009901EBC10100EBC100018D8A4200D98185002C02D0009800F004F838BD0000B2
:406D8000AC4402080A4A1178002910D1094900EBC003096801EBC3018B8D002B07D0C968491C04D0012111700021FFF71DBE70479C440208AC44020818B103490860002080
:406DC000704742F212307047B8440208F8B51C0015460E4604D01DB110B1311F032902D342F21230F8BD6946FFF78EFD10B142F25430F8BD009881B20720FFF7CFFB411CE5
:406E000014D0009900EB800246EA014609490B6803EB82018E6043F822508C810422CA81009989B2FFF76EFC0020F8BD42F21330F8BD0000A844020812B1031F032B02D38F
:406E400042F212307047044B03EBC0002038818002600020704700005C7B020838B5144608B1042902D042F2123038BD6946FFF74BFD10B142F2543038BD05490098096859
:406E800000EBC00001EBC000A0F84440002038BDAC44020830B505460C480D4C0178226842F22B30491E01EB810302EB83039B7813B10029F6D130BD2970236801EB810151
:406EC000002003EB810101228A7030BD94440208A444020830B4074C0D4604EBC00050F8204C002C04D02846A44630BC0321604730BC70475C7B02082DE9F041404E044685
:406F00003268002A79D03F4F3968002975D02078002500EB800302EB83029288402A1DD3C0EBC00001EB80008168B9B18089A8B10846FCF723FC2078C0EBC001386800EB1B
:406F400081018D602178C1EBC10100EB81018D812178C1EBC10100EB8100C58120783968C0EBC00001EB80000069D0B1FCF706FC2078C0EBC001386800EB81010D61217860
:406F8000C1EBC10100EB81018D822178C1EBC10100EB8101CD822178C1EBC10100EB8100058319480178207800EB8002306800F82210217801EB810100EB81018D8021786E
:406FC00001EB810100EB8101CD80217801EB810100EB81010D81217801EB810100EB81010D61217801EB810100EB8101CD60217801EB810100EB810085700020BDE8F08146
:40700000A4440208BC4402086644020870B505461048114C40290378246842F2703017D303F14006B14213D201EB810604EB8606A6F2FE4636785EB140398B4206D001EBAC
:40704000810314F82330934200D10020297070BD1946F2E794440208A44402082DE9F04786B04FF0000AADF80AA014460E460546ADF808A0ADF80CA002AF0E2B03D0022301
:407080000022009743E060794FF6FF71227901EA00200243E079A37901EA002043EA0008501EFF2802D3022300972EE0607A237A01EA00201843ADF80800E37A894601EAF1
:4070C0000321ADF80A10A37A1943ADF80A10172803D3172901D3814202D90B23009714E004A9104600F01CFB0028DCD1607B09EA0020ADF80C00217B0843ADF80C0001A836
:40710000FFF7C8FE48B10423009700223146284600F020FB06B0BDE8F0879DF804004A4C00EB80010E23206800F821509DF80410BDF8102001EB810100EB81014A819DF872
:40714000041001EB810100EB8101A1F804809DF80410BDF8082001EB810100EB81010A819DF80410394A01EB810100EB81010A619DF80410364A01EB810100EB8100C26080
:407180009DF80400BDF80C10C0EBC0023148006800EB820291809DF80410BDF80A20C1EBC10100EB81014A809DF80410BDF80C20C1EBC10100EB81018A809DF8041015221B
:4071C000C1EBC10100EB8101C1F808A09DF80410C1EBC10100EB8101A1F80CA09DF80410C1EBC10100EB8100A0F80EA09DF8047030464037394600F02DFD9DF80400032274
:4072000000EB80012068154C00EB81014E709DF8041001EB810100EB81008270BDF81000246800EBC0010C48036803EB8100828B05EBC50004EBC00053F821402E3002AB06
