:020000041000EA
:4000000000400208230100100D00000085010010000000000000000000000000000000000000000000000000000000008101001000000000000000008101001081010010E9
:400040008101001081010010810100108101001081010010810100108101001081010010810100108101001081010010810100108101001081010010810100108101001060
:400080008101001081010010810100108101001081010010810100108101001081010010810100108101001081010010810100108101001081010010810100108101001020
:4000C00010B5064C2378002B07D1054B002B02D0044800E000BF0123237010BD3C0600080000000030310010084B10B5002B03D00749084800E000BF07480368002B00D1C9
:4001000010BD064B002BFBD09847F9E7000000004006000830310010E8000008000000007047FFF7FDFF72B60F4C104DAC4209DA21686268A368043B02DBC858D050FAE748
:400140000C34F3E70A490B4A0020521A02DD043A8850FCDC084809490860BFF34F8F00F007F900F01DF8FEE7343100104C3100103C0600084C0800080000000808ED00E06B
:40018000FEE7FEE700B504207146084202D0EFF3098001E0EFF30880043001F0BFFAFEE710B5034800F06AF9002001F073FEFBE70000081010B5002001F02CF810BDC046A4
:4001C00070B56249E0239B00CB580F2213401A00D0329200525807210A40032A05D0042A06D0002A12D15A4814E05A4A106811E01A00C0329200554952581F210A40112ABF
:4002000006D0132A04D0FA20C00103E0524801E080200002002B36D14C4BB222D2009A5801211140B125ED005A59120F032422405B591B0F1C4207D0444C63591B0F032458
:400240002340012B02D102E0012300E00023002B01D0002901D1032A4BD13C4BB022D2009D58AD03AD0B3D495958C904C90C9C58240E01231C40013401F0BEFE684321001E
:4002800001F0BAFE35E0012B33D1304BC822D2009A5801251540C024E4001A59120F03210A401B591B0F194207D028490B591B0F03210B40012B02D102E0012300E000239C
:4002C000002B01D0002D01D1032A12D11F4DC022D200AB587F210B40A958090A1F263140AC58240C3440584301F086FE210001F083FEE0239B00154AD3581B09032213400C
:40030000D840144C6060164B1D692D0AFC32154001351969090E013101F06EFEA060290001F06AFE0500E06020610E4BC0180E4901F062FE20750D4BE818FA21890001F0E3
:400340005BFEA061C003E06170BDC0460000264000127A00C000000800366E0184050000000021403F420F0040420F00E703000010B5284801F03AFE274CB022D200A35828
:400380005B005B08A350E0218900635830208343635080235B04A350204A214BE250A02292010433E250FF221E4BE25001F00CFEC0225200A35801218B43A35000F01CFAF4
:4003C000FFF7FEFEB0235B055B78002B04D0B0235B055B78DBB200E02123212B03D1124B0022DA605A60114C22008021042000F0B7FC2000103000F04BFD0D4B1A685123EF
:40040000D35C002B02D00B4800F0B8FD00F080FB10BDC046783000100000264001000200840500008C050000E00023405806000848080008802100108023024AD358032030
:40044000184070470000214010B501F0FAF9084980228C58074B2340074C23438B508823034AD358DB06FAD501F0EFF910BDC04600002140FCFF00000100FA0570B505003E
:40048000830504D0E821FF310F4801F019F901F0D8F90400FFF7D0FF032801D1FFF7D4FF0A4AB0239B00D55080215058084B03400848034353508823044AD358DB06FAD529
:4004C000200001F0C2F970BDB421001000002140FCFF00000300FA05FEE7C046F0B50025002711E0BB00C658F3B2FF22964308E06A008A181478A419527822700135013B70
:40050000DBB2002BF4D10137012FEBD9F0BDC04610B50A00002101F004FE10BD10B501F0F7FD10BD30B587B0A049A022D2008B58032083438B509E490B681A6885301B58F4
:40054000D21810689B4B184010600A68106884241259801802681202120A0260086805680259AA181068034080204000034313600B683E229A5C002A06D08C48E021890065
:400580004258753CA24342503E229A5C002A06D08648E021890042583024A24342503E229B5C002B07D08149E02292008B588020000603438B500021012000F05DFE002157
:4005C000022000F059FE0021032000F055FE0021042000F051FE0021002000F04DFE01A8754903000A0032CA32C312CA12C300F071FE002802D00420FFF76EFF6B496F4AA8
:400600008B588020000603438B506D4800F01EFF002802D00420FFF75FFF644C694BE158694A0A40E250E158684A0A40E250E25880252D062A43E250043BE158644A0A4088
:40064000E250E158634A0A40802189010A43E250E258802109020A43E2505F4A11685F4B0B40802149000B431360002001F08EFC5B4BE2581543E550E158012291430A43C2
:40068000E2506421002001F061F8494B1A683F23D35C062B03D90021524B9068C15091687423D35ACB181968424A0A401A60404B1B687322995C703A8A40110070229A5C88
:4006C0007220185C82400A43802109060A438021C900986842509A6852583F229A5C132A0AD97122985C703A82401100032282400A403D49986842509A6876215B5AD21844
:4007000011683A4B0B403A490B431360284B1B6873229A5C0324210091400A007021585C0231595C8840104371229A5C01219140944022000A400243802109060A438021A1
:40074000C900986842509A6852583F229A5C162A06D970229A5C01210A402649986842509A6874215B5AD2185168124B0B40C42189010B4353600E4B1A687323D35C03213C
:4007800099407023D35C7220105C1C0084402143012003400B43802109060B438021C9009068435093685B5807B030BD0000264048080008FF00FFFFCC210010087F000026
:4007C000400D030004050000FEFCFFFFFFFF00FFFFF0FFFFFF8FFFFF00002740FFFCFFFF0C050000180C00004C0C0000FF0000FF004FC300580C000070B58AB0962100209B
:4008000000F0A4FF00F07AFF002814D100F066FFC0235B00554AD358DB0705D41100544A8B585B005B088B505049514A8B588020000603438B50012001F046FA4D4A516CE8
:400840004D4B0B40E82189010B435364536C1B0AFF2213403A2B07D1464A516C474B0B40E82189010B435364FFF75CFE444A454B1A6000240CE0620012195300424AD31857
:40088000198B9A8AD88A00041043FFF741FE01340B2CF0D900240AE06200121993003A4AD3185A6E196ED86DFFF738FE0134112CF2D9364D2900343128003C30FFF70EFE0C
:4008C000334A1368832149000B43136001AC22002B00443343CB43C243CB43C243CB43C221002C4800F01CF922002B00683323CB23C223CB23C223CB23C22100264800F02E
:400900000FF924220021200001F00BFC234BE3602100234800F004F9224D22002B000C3343CB43C243CB43C243CB43C221001E4800F0F6F822002B00303343CB43C243CB9C
:4009400043C243CB43C22100184800F0E9F822002B00543323CB23C223CB23C223CB23C22100134800F0DCF80AB070BD000026400C05000000002740FF00FFFFFFC5FFDF1C
:400980000300FA05F0012140CC210010CC22001000793440000032408000324000866606800232404C230010000332400006324080063240214B984230D00ED8402831D0B8
:4009C00004D800281FD010282AD031E080282BD080235B00984229D02AE0194B984229D007D8A0231B0698420DD0164B984212D01EE0154B98420AD0144B984209D0144BF2
:400A0000984215D101E0002016E0124814E0124812E0124810E0A020C0030DE007480BE00F4809E00F4807E00F4805E0034803E00E4801E0A420C0037047C04606005200B6
:400A4000010000F0090000A0040000F0050000F0030000F0010052000200520003005200010050000200500005005200FF00520070B5124B1A683123D35C002B04D1C4214D
:400A8000FF310F4800F01CFE0C4B1D682C00B423EB582A6A944663441B68002B0BDB094B1868FFF787FF6B6801229A6063689B68002BFBD100E0044870BDC046480800081E
:400AC000F42C0010E80700080200500010B50D4B1861002805D002230370FD33437000234380094B1B6850229A5C002A08D051229B5C002B04D04F3A0449002000F0F8FA07
:400B000010BDC046E8070008480800086101000810B502481430FFF7D9FF10BDE807000870B505000C0000285DD000295DD0FF230A689A4303D099212D4800F0C1FDFF2320
:400B400022699A4303D09A21294800F0B9FDA3685B0D03D09B21264800F0B2FD63685B0A03D09C21224800F0ABFDE3695B0F03D09D211F4800F0A4FD236A5B0F03D09E21CF
:400B80001B4800F09DFD1B4A11688B69EB1ADB0949691B01CB18216829607D211068415C6918E06808607E211068415C6918206908607F211068415C6918606908607C21BC
:400BC0001068415C6918A06808606168A961116880228A5CAD18A2692A60E2691A60226A5A60002002E0044800E0034870BDC046342D00104808000801005A0070B50400BD
:400C00000D000A4B1A68B423D3581B181B68002B0ADA0B0C03D00649064800F051FD2D042D0C6560002000E0034870BD48080008D5020000B42D001001008A0070B50500C8
:400C40000C000368002B01DA002300E0084B002B0BD1EA60230C03D00649074800F030FD2404240CAC60002000E0014870BDC04601008A00BB020000B42D001070B5050050
:400C80000C1E03D19921084800F01AFD074B1A68B423D3585B191B68002B03DAEB682360002000E0024870BDF42D00104808000801008A0070B504000D00234B1A68312375
:400CC000D35C834236D9002936D00B68DB0635D13123D35C984204D3C421FF311B4800F0EFFC194B1B681A6AB0215B5A5C431419174E34602B68DA080021686801F011FAC9
:400D000000212000FFF77AFF3468002D03D111490E4800F0D5FC2A0000212000FFF78EFF00280DD10A4B18680021FFF767FF002808D108E0084806E0074804E0064802E02D
:400D4000064800E0054870BD48080008B42D0010000800089303000003018A0001018A0010B50400002A17D1002915D1124B1A683123D35C984204D3C421FF310F4800F069
:400D80009FFC0D4B1B681A6AB0215B5A5C4314190B4B1C6000200EE0002A09D0002909D0074B59609A60191D2000FFF783FF02E0044800E0034810BD48080008B42D0010C0
:400DC0000008000803018A00F0B583B00D001C4B1B68DC68236883422DD947097B01C01A012383401E00002903D100F02AFD019001E000230193124B18680368002B01DAB6
:400E0000002300E00F4B002B0ED16368BF00DF193B68334203D0B3433B60002400E00A4C0021FFF7EBFE00E0084C002D04D1019800F00BFD00E0064C200003B0F0BDC04674
:400E40000008000801008A00020188000301880004018A000A4B1B68DA68136883420BD943095901401A0121814052689B009B580B4203D0034802E0034800E0034870474E
:400E8000000800080101880004018A0000018800034B1B68002B01D1014B18607047C0460C080008F0B5474680B404000F0090461E002D4B1B68002B03D1B5212B4800F075
:400EC000FFFB294B1B682C2060431C18FF22150035402560330A13406360360CA660244B1A683123D35C9D4204D3C421FF31214800F0E6FB1E4B1A68B023D35A6B43116A86
:400F00008C466344236166683223D35C9E4204D3E021FF31174800F0D3FB154B1B681D6A80367601AD196561A668330C04D0FF214900104800F0C4FB330C03D00E490D48EB
:400F400000F0BEFB3604330C1E43AE604346E36127620023A361069B002B02D000229B5EA38104BC9046F0BD0C080008342E001048080008B42D0010FF010000F0B58FB088
:400F8000041E03D15221294800F09AFB6368032B03D95421254800F093FBE36A002B03D15821224800F08CFB236B002B03D159211E4800F085FB07AA1300210061C961C3E7
:400FC00021C921C302AD290023001433C1CBC1C141CB41C10821535E0CAE3380144B1B6836215B5E07998C466344B370089B0D930B9B0A980096A26AE16AFFF753FF2B69FC
:40100000E868002200920021FFF74CFF216B300000F0E8FA0023F25E002A05DB1F231A401E3B9340034A13600FB0F0BD342E00104808000800E100E0F8B505000F001600E9
:401040001C00002A03D1FD21224800F039FB224B1B68002B03D1FE211E4800F031FB1E4B1B682C2128004843181879435918012213004D68AB401B044568AA4015000269C5
:40108000002A20D08F69002F1FD11268002A01DA002200E0114A002A19D132681204120C134333600369DE6001238B614C6204692B0C03D00A490B4800F002FB2A04120C9A
:4010C000A260002004E0084802E0084800E00748F8BDC046342E00100C08000801008A00BB020000B42D001004028A0007028A0070B504000D0016000F4B1B68002B04D16B
:40110000AF2149000D4800F0DBFA0B4B1B682C2060431C18236A002B04D1B1214900074800F0CEFAE369B34204D9236AB6009D51002000E0024870BD0C080008342E00107D
:401140000A028A0070B582B0040000230193002804D1D221FF312D4800F0B2FA2369002B04D1E9214900294800F0AAFA6369002B04D1D421FF31254800F0A2FA236A002B10
:4011800004D1EA214900214800F09AFA6269D5682B0C24D01B041360136820691C4B1A68B423D358C3181B68002B18DA01A9FFF765FD00280ED1019803681E0CFF2213403F
:4011C000E269934207D29B00226AD358002B02D0984700E0002631002069FFF70FFD2D042D0C0FD063691D601B68636A002B03D098470023636203E0A36A002B00D0984795
:401200000023A36163691B6802B070BD342E00104808000810B50400084B1B68002B04D1B221FF31064800F04BFA044B1B682C2060431818FFF786FF10BDC0460C0800080F
:40124000342E001010B50400094B1B689B6CC340DB0703D4BE21074800F032FA044B1B681B691034A402E3580F20184010BDC04648080008742E0010134B1A683C23D35C02
:4012800083421DD9042904D94B1EFF3B9BB2132B18D8FF290CD91F2319400C4A0300C0339B009950D03080000423835000200AE007231940D0308000044BC150002002E0EA
:4012C000034800E002487047480800080000264001004A0070B5041E03D14A494A4800F0EFF9B023DB00494AD358002B00DA87E0474B22689A4203D94649434800F0E0F912
:4013000023689B039B0BE279002A02D08022520400E000221343B022D2003C498B50A2883D4B9A4204D98C218900374800F0C8F922893A4B9A4203D93949334800F0C0F9D4
:40134000A388DB04D90C23891B04364A13400B43354A2E498B50A37A0F2B04D98E218900294800F0ADF9E37A0F2B03D92F49264800F0A6F9A289284B9A4203D92C49224831
:4013800000F09EF9A37A0F211940E27A1201FF2313400B43A289120226490A401343A27B1207C02189050A401343B122D20017498B50A379042B03D91F49134800F080F908
:4013C000228A164B9A4204D9912189000E4800F077F90E4819494558194B1D40A3791B02E022D20013402B4343504558154B1D40238A1B040B4A13402B434350002000E0F0
:40140000114870BD1F020000B42E001000002640FFFF030029020000FF1F0000FF010000310200000000FF0184050000390200003A02000000FF1F00430200008C0500003C
:40144000FFF8FFFFFFFF00FE03004A0070B505003149324A8B588020000603438B502C0003E0012000F020F9013CB223DB002A4AD3585B0701D4002CF3D12749B122D20063
:401480008858274B03408020800503438B50002D01D0002C0CD02049B022D2008B588020000603438B5003E0012000F0FDF8013CB223DB00184AD358DB0701D4002CF3D18A
:4014C000002D01D0002C08D01349B122D2008B58C020800503438B5013E00F4BB121C90058580F4A02408020800502435A5008395A58520052085A5008495A585200520841
:401500005A50002D03D0002C03D0002002E0002000E0044870BDC046000026408C050000FFFFFFCF02004A0070B505000C001A4B1B6828229A5C012A15D182080721100041
:40154000884327D19200AD1AED00FF20A8401B6820339A181168AC4023004B40184004004C40146016E03A229B5EDBB2994203D176210A4800F0A4F8074B1B681B680722E7
:4015800015408022120615438022920194466444A400E55070BDC046480800083C2F001070B504000D000B4B9A680B4B9A420CD1002904D13821FF31084800F081F810340D
:4015C000054BA400E058E55003E01034A400044BE05870BD00ED00E0000000083C2F001000000010F0B5474680B482B0061E01914AD04368032B03D93221264800F060F885
:401600000023F05E002804DBB178FFF78DFF002400E0214C0023F15E7368002912DB88081E4FC0308000C55903221140C900FC3290468A4095439A01434613408B402B4393
:40164000C35116E089B20F220A40083A92080632920013481018476803221140C900FF252A008A4097439A012B0013408B403B4343600B4B9A680B4B9A4206D10023F05ECA
:401680000199FFF78DFF00E0034C200002B004BC9046F0BD3C2F00100100560000E100E000ED00E00000000810B5034B1B78584300F0BEF810BDC046D400000801BEFEE728
:4016C00070B50D00044C18220100200000F031FDA5610020FFF7F2FF00060008054B802212069A649B6C002B01DB002000E002487047C0460000274003004600054B802215
:40170000120198585B68FF221A4202D08023DB021843704700002640FEE7C04610B50A4B0268DA6142681A6282685A62C2689A620269DA6242691A6382695A63C2699A6361
:40174000FFF7EAFF10BDC04600060008F0B5474680B4002801D0192300E064238B429B415B42304D2C682268A826A45BA41822680327BA433B401A4322602C682268A45B15
:40178000A2181668284CA046264016602C682668AA229446A25A96193268BA43134333602A6813686546525BD3181A68444614401C60002805D010291BD921291BD8012014
:4017C00024E0184B1B6855229A5C914215D956229A5C914213D957229A5C914211D958229A5C91420FD959229B5C99420DD804200CE000200AE0022008E0002006E00120D0
:4018000004E0022002E0032000E00520054A1268526813680F218B430343136004BC9046F0BDC04648080008FFFCFFFF000000000230800803D001300238FCD1C046C04678
:401840007047EFF3108072B6704780F31088704710B5B0235B059B899BB2002B04D0B0235B059B899BB201E080235B0080225200934215D1184C23681968683A9B58C9181E
:401880000B680F208343963A13430B6021680C689C23CB58E318196881430A431A6019E00D4C2368196898229B58C918B02040050A4BC2580A4B13400A681343C0229200F5
:4018C00013430B60226811689C23D358CB18054A82581A6010BDC0464808000848180000FFFCFFFF4418000030B5B0235B059B899BB2002B04D0B0235B059B899BB201E0C7
:4019000080235B0080225200934215D1184C23681968683A9B58C9180B680F208343953A13430B6021680C689C23CB58E318196881430A431A6019E00D4D2B681968982215
:401940009B58C918B0246405C12040012258094B13400A681343C022920013430B602A6811689C23D358CB1822581A6030BDC04648080008FFFCFFFFB0235B059B899BB262
:40198000002B04D0B0235B059B899BB201E080235B008022520093420DD1104B1B681A6898215B58D21811680D4B0B40C021C9010B43136011E0094B1B68196898229B58CA
:4019C000C918084BB0225205D258074B13400A681343C022920013430B60704748080008FF8FFFFF18180000FFFCFFFF30B5B0235B059B899BB2002B04D0B0235B059B891B
:401A00009BB201E080235B008022520093420DD1134B1B681A6898215B58D2181168114B0B408021C9010B43136018E00C4D2B68196898229B58C918B02464050A482258D2
:401A40000A4B13400A681343C022920013430B602A6811689C23D358CB1822581A6030BD48080008FF8FFFFF4C180000FFFCFFFF10B5B0235B059B899BB2002B04D0B0238C
:401A80005B059B899BB201E080235B0080225200934217D10020FFF7D5FBB0235B055B78002B04D0B0235B055B78DBB200E02123222B03D8002803D1013004E0012002E0E7
:401AC000002000E0012010BD30B585B004000D00022807D9042805D0032803D02A492B48FFF7EEFD6B1EDBB2012B07D9042D05D0082D03D026492548FFF7E2FDA400254B08
:401B0000E458042D13D0012D1CD112E0A3682B420BD1E3681A6802925B6801930393290002A8236898471B4B5C61646902E0002000E00020002C24D0174B9842E6D1012D36
:401B4000E4D11EE0022D01D104E01C006369002BFBD104E00F4B5C69002C00D0246900200DE0A3682B4209D1E3681A6802925B6801930393290002A8236898472469002CBF
:401B8000EFD105B030BDC046B2090000802F0010B309000010080008FF004200F8B50700012803D93D493E48FFF78AFDB0235B055B78002B04D0B0235B055B78DBB200E06C
:401BC00021239DB2B0235B059B899BB2002B04D0B0235B059E89B6B201E0802676000020FFF730FB002814D180235B009E4212D1222D12D82B4B1B685C682B4821582B4B89
:401C000019403B068022520413400B432350002404E0274C02E0264C00E0254C80235B009E4201D1222D03D880235B009E4232D01C4B1A683123D35C002B04D1C421FF31A3
:401C40001C48FFF73DFD174B1B681D6A80235B009E4203D1002F05D0174A06E0002F03D0164A02E0164A00E0164A01212800FEF7E5FF00280FD10B4B1A68B423D3585B190A
:401C80001B68002BF7DBEB681B0E1B06A0221206934200D100242000F8BDC0464C0A0000802F00104808000818F00000FFFFFFFE04004200F42C0010010100300300000C61
:401CC000010000300100000CF8B50500012804D9822109012948FFF7F3FCFFF7C9FE002849D0FFF7AEFD0700002D11D10021244B244AD150E823DB00B0225205D65CF6B22E
:401D00000120FFF74BFF041E19D1FFF7A1FD16E0B02252051C4BD0581A4B194958501B49565CF6B21A481A581F218A4314390A431A500320FFF7B8FCFFF758FE0024002C79
:401D400015D11049124A8B581F20834306401E438E50002D02D1FFF70FFE08E00720FFF7A3FCFFF7C1FD0020FFF718FF04003800FFF76BFD00E0074C2000F8BD802F001072
:401D8000307F00000000264010180000410700001CFF00000300420010B5041E03D115491548FFF78DFC154B1A68D168F222D2018A5822601B68F022D201D9688A58626096
:401DC0000F4AD9688A58A2600E4AD9688A58E2600D4AD9688A5822610C4AD9688A5862610B4AD9688A58A261DA680A4BD358E36110BDC046A10A0000802F00104808000859
:401E000004780000087800000C78000010780000147800001878000010B5041E03D114491448FFF74DFC144B1B68F022D201D96860688850114AD968A0688850104AD9680C
:401E4000E06888500F4AD968206988500E4AD968606988500D4AD968A06988500C4AD968E0698850DA682168F223DB01D15010BDC90A0000802F00104808000804780000CC
:401E8000087800000C78000010780000147800001878000070B50500012804D9A62189003548FFF70DFC354B5B68002B05D001210120FFF709FE040000E00024002C53D1A3
:401EC000FFF7BFFC06002D4B5B68002B03D004210120FFF7F9FD2A4B1B6843229A5C002A08D09A68E023D358DB0603D523481830FFF752FFB0235B059B899BB2002B04D0E5
:401F0000B0235B059B899BB201E080235B0080225200934203D1280000F02AF909E0194A116904230B431361012D01D030BF00E020BF134B1B6843229A5C002A08D09A68AA
:401F4000E023D358DB0603D50C481830FFF764FF3000FFF77AFC094B5B68002B09D008210120FFF7B1FD04E002210120FFF7ACFD054C200070BDC046802F00101008000896
:401F80004808000800ED00E0FF004200042805D10B4A116804230B4313600FE0094B1A681168A023D358CB180006C022920410401860034A136804218B4313607047C046C3
:401FC00010E000E0480800080749C02252008B589B009B088020C00503438B508B588020000603438B50704700002640014B18607047C04648080008002243088B4274D36D
:4020000003098B425FD3030A8B4244D3030B8B4228D3030C8B420DD3FF22090212BA030C8B4202D31212090265D0030B8B4219D300E0090AC30B8B4201D3CB03C01A5241A1
:40204000830B8B4201D38B03C01A5241430B8B4201D34B03C01A5241030B8B4201D30B03C01A5241C30A8B4201D3CB02C01A5241830A8B4201D38B02C01A5241430A8B4278
:4020800001D34B02C01A5241030A8B4201D30B02C01A5241CDD2C3098B4201D3CB01C01A524183098B4201D38B01C01A524143098B4201D34B01C01A524103098B4201D3AC
:4020C0000B01C01A5241C3088B4201D3CB00C01A524183088B4201D38B00C01A524143088B4201D34B00C01A5241411A00D20146524110467047FFE701B5002000F006F83D
:4021000002BDC0460029F7D076E770477047C046002310B59A4203D0CC5CC4540133F9E710BD03008218934202D019700133FAE77047030030B5002A0DD00C7801335D1EA6
:40214000013A2C700131002CF5D19A189A4202D01C700133FAE730BDF8B5C046F8BC08BC9E467047F8B5C046F8BC08BC9E46704701B40248844601BC604700BF35030008BE
:402180000300000001000000010000000000000005036000040000000100000000000000010000000604600008000000C8070008B501001073797374656D5F70736F6336AE
:4021C0005F636D30706C75732E630000F4010000140004010A00090508000000630100000020344074008020344074000022344074008022344074000024344074008024C5
:4022000034407400002634407400802634407400002834407400802834407400002A34407400802A3440740000213440C4230010900000000023344054240010900000000B
:4022400000253440E424001090000000002734407425001090000000002934400426001090000000002B3440942600109000000000603440242700107C00000080603440EA
:40228000A02700107C000000006134401C2800107C00000080613440982800107C00000000623440142900107C00000080623440902900107C000000006334400C2A00102E
:4022C0007C00000080633440882A00107C00000000643440042B00107C00000080643440802B00107C00000000653440FC2B00107C00000080653440782C00107C00000096
:40230000DF04E3016C510000022034400170344010000000000000000000000000060A0000000000000000000000000000000000000000002000000000000000000000005E
:40234000000060000000000000000000000000000000000000030000000000000000000000000000000000BA0000000000000000000000000000000000001D1D07000000FF
:402380000000000000000000866600000000000000000000000000001414140000000000800000000000000000000000000000600000000000000000000000000000000015
:4023C00000000008000000000000000000000000FFFFFFFFFFFFFFFFFFFFFFFFFFFFFFFFFFFFFFFFFF000000FFFFFFFFFFFFFFFFFFFFFFFFFFFFFFF5FFFFFFFFFF00000009
:402400000000000000000000000000000000000000000000000F0000FFFFFFFFFFFFFFFFFFFFFFFF11111111111111111111111111111111111111111111111111111111BD
:402440001111111111111D11111111111111111111111111000000000000000000000000FFFFFFFFFFFFFFFFFFFFFFFFFFFFFFFFFFFFFFFFFF000000FFFFFFFFFFFFFFFF19
:40248000FFFFFFFFFFFFFFFFFFFFFFFFFF000000000000000000000000000000000000000000000000000000FFFFFFFFFFFFFFFFFFFFFFFF11111111111111111111111169
:4024C000111111111111111111111111111111111111111111111111111111111111111111111111000000000000000000000000FFFFFFFFFFFFFFFFFFFFFFFFFFFFFFFF88
:40250000FFFFFFFFFF000000FFFFFFFFFFFFFFFFFFFFFFFFFFFFFFFFFFFFFFFFFF000000000000000000000000000000000000000000000000000000FFFFFFFFFFFFFFFFBD
:40254000FFFFFFFF1111111111111111111111111111111111111111111111111111111111111111111111111111111111111111111111110000000000000000000000002F
:40258000FFFFFFFFFFFFFFFFFFFFFFFFFFFFFFFFFFFFFFFFFF000000FFFFFFFFFFFFFFFFFFFFFFFFFFFFFFFFFFFFFFFFFF0000000000000000000000000000000000000045
:4025C0000000000000000000FFFFFFFFFFFFFFFFFFFFFFFF1111111111111111111111111111111111111111111111111111111111111111111111111111111111111111FB
:4026000011111111000000000000000000000000FFFFFFFFFFFFFFFFFFFFFFFFFFFFFFFFFFFFFFFFFF000000FFFFFFFFFFFFFFFFFFFFFFFFFFFFFFFFFFFFFFFFFF00000080
:40264000000000000000000000000000000000000000000000000000FFFFFFFFFFFFFFFFFFFFFFFF111111111111111111111111111111111111111111111111111111118A
:402680001111111111111111111111111111111111111111000000000000000000000000FFFFFFFFFFFFFFFFFFFFFFFFFFFFFFFFFFFFFFFFFF000000FFFFFFFFFFFFFFFFE3
:4026C000FFFFFFFFFFFFFFFFFFFFFFFFFF000000000000000000000000000000000000000000000000000000FFFFFFFFFFFFFFFFFFFFFFFF11111111111111111111111127
:4027000011111111111111111111111111111111111111111111111111111111111111111111111100000000000000001F1F1F1F1F1F1F1F1F1F1F1F1F1F1F1F1F1F1F1FC9
:402740001F1F1F1F1F1F1F1F1F1F1F1F000000000000000000000000000000000000000000000000FFFFFFFFFFFFFFFFFFFFFFFF11111111111111111111111111111111E1
:40278000111111111111111111111111111111111111111111111111111111111111111100000000000000001F1F1F1F1F1F1F1F1F1F1F1F1F1F1F1F1F1F1F1F101F1F1F20
:4027C0001F1F1F1F1F1F1F1F000000000000000000000000000000000000000000000000FFFFFFFFFFFFFFFFFFFFFFFF1F111111111111111111111111111111111111118B
:402800001111111111111111111111111111111111111111111111111111111100000000000000001F1F1F1F1F1F1F1F1F1F1F1F1F1F1F1F1F1F1F1F1F1F1F1F1F1F1F1F58
:402840001F1F1F1F000000000000000000000000000000000000000000000000FFFFFFFFFFFFFFFFFFFFFFFF1311111111111111111111111111111111111111111111114E
:4028800011111111111111111111111111111111111111111111111100000000000000001F1F1F1F1F1F1F1F1F1F1F1F1F1F1F1F1F1F1F1F1F1F1F1F1F1F1F1F1F1F1F1FA0
:4028C000000000000000000000000000000000000000000000000000FFFFFFFFFFFFFFFFFFFFFFFF1111111111111111111111111111111111111111111111111111111108
:40290000111111111111111111111111111111111111111100000000000000001F1F1F1F1F1F1F1F1F1F1F1F1F1F1F1F1F1F1F1F1F1F1F1F1F1F1F1F1F1F1F1F0000000063
:402940000000000000000000000000000000000000000000FFFFFFFFFFFFFFFFFFFFFFFF111111111111111111111111111111111111111111111111111111111111111143
:402980001111111111111111111111111111111100000000000000001F1F1F1F1F1F1F1F1F1F1F1F1F1F1F1F1F1F1F1F1F1F1F1F1F1F1F1F1F1F1F1F000000000000000027
:4029C00000000000000000000000000000000000FFFFFFFFFFFFFFFFFFFFFFFF1111111111111111111111111111111111111111111111111111111111111111111111117F
:402A000011111111111111111111111100000000000000001F1F1F1F1F1F1F1F1F1F1F1F1F1F1F1F1F1F1F1F1F1F1F1F1F1F1F1F1F1F1F1F000000000000000000000000EA
:402A4000000000000000000000000000FFFFFFFFFFFFFFFFFFFFFFFF11111111111111111111111111111111111111111111111111111111111111111111111111111111BA
:402A8000111111111111111100000000000000001F1F1F1F1F1F1F1F1F1F1F1F1F1F1F1F1F1F1F1F1F1F1F1F1F1F1F1F1F1F1F1F00000000000000000000000000000000AE
:402AC0000000000000000000FFFFFFFFFFFFFFFFFFFFFFFF1111111111111111111111111111111111111111111111111111111111111111111111111111111111111111F6
:402B00001111111100000000000000001F1F1F1F1F1F1F1F1F1F1F1F1F1F1F1F1F1F1F1F1F1F1F1F1F1F1F1F1F1F1F1F000000000000000000000000000000000000000071
:402B400000000000FFFFFFFFFFFFFFFFFFFFFFFF11111111111111111111111111111111111111111111111111111111111111111111111111111111111111111111111131
:402B800000000000000000001F1F1F1F1F1F1F1F1F1F1F1F1F1F1F1F1F1F1F1F1F1F1F1F1F1F1F1F1F1F1F1F00000000000000000000000000000000000000000000000035
:402BC000FFFFFFFFFFFFFFFFFFFFFFFF11111111111111111111111111111111111111111111111111111111111111111111111111111111111111111111111100000000B1
:402C0000000000001F1F1F1F1F1F1F1F1F1F1F1F1F1F1F1F1F1F1F1F1F1F1F1F1F1F1F1F1F1F1F1F000000000000000000000000000000000000000000000000FFFFFFFFB8
:402C4000FFFFFFFFFFFFFFFF11111111111111111111111111111111111111111111111111111111111111111111111111111111111111111111111100000000000000002C
:402C80001F1F1F1F1F1F1F1F1F1F1F1F1F1F1F1F1F1F1F1F1F1F1F1F1F1F1F1F1F1F1F1F000000000000000000000000000000000000000000000000FFFFFFFFFFFFFFFF3C
:402CC000FFFFFFFF11111111111111111111111111111111111111111111111111111111111111111111111111111111111111111111111147656E6572617465645F536FF8
:402D0000757263655C50536F43365C70646C5C647269766572732F7065726970686572616C2F6970632F63795F6970635F6472762E68000047656E6572617465645F536FA9
:402D4000757263655C50536F43365C70646C5C647269766572735C7065726970686572616C5C6770696F5C63795F6770696F2E630000000047656E6572617465645F536FAC
:402D8000757263655C50536F43365C70646C5C647269766572735C7065726970686572616C5C6770696F5C63795F6770696F2E680000000047656E6572617465645F536F67
:402DC000757263655C50536F43365C70646C5C647269766572735C7065726970686572616C5C6970635C63795F6970635F6472762E68000047656E6572617465645F536F62
:402E0000757263655C50536F43365C70646C5C647269766572735C7065726970686572616C5C6970635C63795F6970635F6472762E63000047656E6572617465645F536F26
:402E4000757263655C50536F43365C70646C5C647269766572735C7065726970686572616C5C6970635C63795F6970635F706970652E630047656E6572617465645F536F84
:402E8000757263655C50536F43365C70646C5C647269766572735C7065726970686572616C5C70726F745C63795F70726F742E630000000047656E6572617465645F536F3F
:402EC000757263655C50536F43365C70646C5C647269766572735C7065726970686572616C5C737973636C6B5C63795F737973636C6B2E630000000047656E6572617465DC
:402F0000645F536F757263655C50536F43365C70646C5C647269766572735C7065726970686572616C5C737973636C6B5C63795F737973636C6B2E680000000047656E65BD
:402F400072617465645F536F757263655C50536F43365C70646C5C647269766572735C7065726970686572616C5C737973696E745C63795F737973696E742E630000000033
:402F800047656E6572617465645F536F757263655C50536F43365C70646C5C647269766572735C7065726970686572616C5C737973706D5C63795F737973706D2E63000050
:402FC0000000204000002440000000400000000000002340000030400000314000009F40000022400000104002020202020202020210101D800017007500FF030602063657
:4030000004102000000000007FC0000000040000000000000019324B647D00804000080B100000000000FF012002001F00800004FF081018001000140018001C4044484C5B
:4030400050000000081000000800000004000000041000000012000004210000002100000016000040114002C41300138013A013200000001C000000000021400000254095
:40308000000001400000344000002440000031400000324000001F410000234000001140010101010101010101101010800019005500F0000501053B04101C010100000071
:4030C0000FC000000004000001010101011D3A57789600082000101208000000001F00000010000F002000023F06080E00080009000A000B24282C3034000000100000001D
:403100009000000088000000080000008000000004F0000000F00000400200002005A000D00100018001A0012000000010000000000000000000001000000008C000000008
:4031400054310010C0000008400500003C060008100200000048E80100127A0000093D0000093D0000093D0004000000A00F00000000D007E9000010C1000010000000006E
:4031800010B50004400B27D0144B1A68146AB023D15ACA00531AE3181B68002BF4DA3E220F4B1A600F4A104B1A60104B0621A322D20099500E4A98509B58084B1A68106A13
:4031C000B023D15ACA00531AC31800225A60084B064AD358002BFADA10BDC04648080008040126401E1F000008012640000026401C05000010B54378FF2B20D100F042FA86
:4032000004000F4B1A683123D35C042B04D8C421FF310C4800F0FEF9094B1A68116AB023D35A9B00CB18DB685A68116801230B4313601368DB07FCD4200000F00BFA10BD8F
:4032400048080008F42C0010F0B585B001900291544B1A683123D35C002B04D1C421FF31514800F0D7F94F4B1B681E6AB4229A58971950229B5C002B77D000F0DBF90500F5
:4032800003283CD1474B1A683123D35C062B04D8C421FF31444800F0BDF9424B1968B023CB5A5A00D21853000A6A94466344B4228A58D3181B68002B23DB002000F0D2F92F
:4032C0003A4B98421FD03A4B1A6900230021012000F0B8F9002803D0364C17E0013400E00024002000F0BEF9304B984202D0324B9C42F3D9304B9C4207D92E4C06E00024F3
:4033000004E02C4C02E02B4C00E00024002C46D100F0B8F90390294B294AD358002B13DA234A0121300000F0A5F900280ED10298FFF726FF019B002B0AD03B68002BFCDBE4
:4033400000F070F9040004E01A4C02E0194C00E01C4C032D05D10121002000F053F90028F9D1039800F076F919E000F08BF905000F4A0121300000F07DF9002809D1019B86
:40338000002B08D03B68002BFCDB00F04BF9040002E0084C00E00B4C280000F05BF9200005B0F0BD48080008F42C001001018800E807000805005200EF4902001C05000017
:4033C0000000264001005000F0B54F464646C0B4824B1A685468B0235B055B78002B04D0B0235B055B78DBB200E02123212B67D1B023D15ACB005B1A116A8C4663441968DE
:403400000029F5DADD6802212943D960B023D15ACB005B1A116A8C466344D968C9073ED5D9680904090C8C4684271168D559A84641440968090A0904FF26360431400D00C9
:4034400088261168894691598846C14449460968090A0906294365462943D9601168D359C9180A685E4B98461A4090252D012A430A605A4B99461A6813689C469259624434
:403480001368414619400B002B4313604B461A681568D15969180B689359EB181B684F4B1A68B021555AEB005B1B156AAC46634400255D60156A515ACA00531AEB185B6887
:4034C000484A116904230B431361012801D030BF00E020BF414B1A68B023D15ACB005B1A116A8C46634419680029F3DAB02149054978002904D0B02149054978C9B200E060
:403500002121212932D1D968C90722D510688421525880180468324A1440DB681B0C1B02FF2109020B40234303602C4B19688823C8580B689C46604403681A400D6AB023C8
:40354000CC5AE1000B1BEB18DB681B0E1B021A430260224B1A68106AB023D15ACA00531AC318DA6802218A43DA6028E086235B00E358002B23D11C4807681C4BA321C900C1
:403580005E581B4A904615681A4A0260062058503E21424611600631174A9950164B134AD358002BFADA154A86235B00E2500E4B1F60A323DB000D4AD6500D4B1D60074B96
:4035C0001A68106AB023D15ACA00531AC31800225A600CBC90469946F0BDC04648080008FF00FFFF00ED00E00801264000002640040126401E1F00001C050000AAAAAAAA4B
:403600000000000001B40248844601BC604700BFC90D001001B40248844601BC604700BFC116001001B40248844601BC604700BF710A001001B40248844601BC604700BF82
:403640003904001001B40248844601BC604700BF3910001001B40248844601BC604700BF4B18001001B40248844601BC604700BF550E001001B40248844601BC604700BF0E
:403680003D0C001001B40248844601BC604700BF4318001000000000000000000000000000000000000000000000000000000000000000000000000000000000000000005A
:4036C00000000000000000000000000000000000000000000000000000000000000000000000000000000000000000000000000000000000000000000000000000000000CA
:403700000000000000000000000000000000000000000000000000000000000000000000000000000000000000000000000000000000000000000000000000000000000089
:403740000000000000000000000000000000000000000000000000000000000000000000000000000000000000000000000000000000000000000000000000000000000049
:403780000000000000000000000000000000000000000000000000000000000000000000000000000000000000000000000000000000000000000000000000000000000009
:4037C00000000000000000000000000000000000000000000000000000000000000000000000000000000000000000000000000000000000000000000000000000000000C9
:020000041008E2
:4000000000780408EB0208100D00000051030810510308105103081051030810000000000000000000000000000000004D0308104D030810000000004D0308104D030810DA
:400040004D0308104D0308104D0308104D0308104D0308104D0308104D0308104D0308104D0308104D0308104D0308104D0308104D0308104D0308104D0308104D03081000
:400080004D0308104D0308104D0308104D0308104D0308104D0308104D0308104D0308104D0308104D0308104D0308104D0308104D0308104D0308104D0308104D030810C0
:4000C0004D0308104D0308104D0308104D0308104D0308104D0308104D0308104D0308104D0308104D0308104D0308104D0308104D0308104D0308104D0308104D03081080
:400100004D0308104D0308104D0308104D0308104D0308104D0308104D0308104D0308104D0308104D0308104D0308104D0308104D0308104D0308104D0308104D0308103F
:400140004D0308104D0308104D0308104D0308104D0308104D0308104D0308104D0308104D0308104D0308104D0308104D0308104D0308104D0308104D0308104D030810FF
:400180004D0308104D0308104D0308104D0308104D0308104D0308104D0308104D0308104D0308104D0308104D0308104D0308104D0308104D0308104D0308104D030810BF
:4001C0004D0308104D0308104D0308104D0308104D0308104D0308104D0308104D0308104D0308104D0308104D0308104D0308104D0308104D0308104D0308104D0308107F
:400200004D0308104D0308104D0308104D0308104D0308104D0308104D0308104D0308104D0308104D0308104D0308104D0308104D0308104D0308104D0308104D0308103E
:400240004D0308104D0308104D0308104D0308104D0308104D0308104D0308104D0308104D0308104D0308104D0308104D0308104D0308104D0308104D0308104D030810FE
:400280004D0308104D0308104D03081010B5054C237833B9044B13B10448AFF300800123237010BDCCB403080000000010E20810084B10B51BB108490848AFF300800848D8
:4002C000036803B910BD074B002BFBD0BDE81040184700BF00000000D0B4030810E2081098AE0308000000007047FFF7FDFF72B6104C114DAC4209DA21686268A368043BCC
:40030000A2BFC858D050FAE70C34F3E70B490C4A00209142BCBF41F8040BFAE709480A490860BFF34F8F00F02BFB00F005FB00F00BFAFEE714E208102CE20810CCB40308A5
:40034000EC5A04080040020808ED00E0FEE7FEE700B504207146084202D0EFF3098001E0EFF30880043001F0DBFFFEE738B52DED048B08EE100A09EE101A08EE902ADFEDB9
:40038000177A68EEA77A17EE900A09F0A3F902460B460020124909F01BFB04460D4638EE498A4FF08041C8EE287A17EE900A09F00FFDFEEE007A07EE100A67EE277A17EEDC
:4003C000900A09F087FC09F085F922462B4609F0D5F909F0E5FBBDEC048B38BD996C20400000F03FF8B506460F4601F083F90546064C3B4632460146204600F0DFFF41F237
:40040000B0622946204609F01BFCF8BDE8B4030830B589B0244802F003FE002002F0FCFD6FF07F4002F0F4FD02F088FE002513E005EB4512930023441C4A52F823302BB928
:4004400005F1140104F1410003F0EAF9013400E00024832CECDD0135AF2DF9DD022002F003FE05228421124803F052F8114A06AB1068516803C3104A03AB07CA03C31A7028
:4004800006A802F0F1F803A809F008FC0B4B009303460E2206A903A803F06EF901210846FFF7A0FF09B030BD3CC208108C420208D8AC0810D0AC0810F0AC0810F0AD0308D0
:4004C0002DE9F0412DED028B694802F0A9FD002002F0A2FD6FF07F4002F09AFD02F02EFE022002F0C1FD05228421624803F010F814228421604803F00BF8032002F05AFD27
:40050000A023C3221946372003F0E4FBA0237D222821104603F0DEFB012002F04BFD574802F07EFD002002F077FDA5225D21544802F0EEFFA5227A21524802F0E9FFA52274
:400540008F21514802F0E4FFF8EE088A4FF0FF373D467DE000244FF07E5221462046FFF705FFDFED4A7A07EE100A67EE277A9FED487A87EE278A4FF07E52214618EE900A77
:40058000FFF7F4FEB0EE087A38EE877AF1EE086AC7EE267A9FED3F7A67EE877AFDEEE77A17EE906A373607EE900A28EE278ABDEEC88A18EE103AC3F1A008B5F1FF3F15D04B
:4005C000B7F1FF3F12D0362E10DDC22E0EDCB8F1270F0BDDB8F19F0F08DC022002F0EAFC434632463946284603F074FB022002F0E1FCFFEE007AF4EEE78AF1EE10FA21DB2C
:40060000F7EE007AF4EEE78AF1EE10FA1AD816E0BB1913F0030F0CD00FE03919A81903F0FFF8013401E04FF0FF34012CF5DD013501E04FF0FF35012DF5DD013700E04746D0
:400640009F2FE5DDDFED147A78EEA78A47463546F0EE087AF4EEE78AF1EE10FA7FF67AAF01210846FFF7BEFEBDEC028BBDE8F0813CC20810FCAC081008AD0810ACB1081031
:4006800010AD081014AD081018AD0810CDCC8C3F0000F04200000C43CDCCCC3D08B51F4802F0BEFC6FF07F4002F0B2FC002002F0B3FC002002F0E2FC02F040FD022002F0A6
:4006C000D3FC0A228421164802F022FF022002F0CBFC1E228421134802F01AFF022002F0C3FC32228421104802F012FF002002F0BBFC462284210D4802F00AFF002002F064
:40070000B3FC5A2284210A4802F002FF002002F0ABFC01210846FFF765FE08BD3CC208101CAD081034AD081048AD081050AD08105CAD081008B500F0F9FF0028FBD100F0A1
:40074000F5FF0028FBD008BD10B562B602F026FD142000F01FFE012000F024FE0C4801231A46014600F02AFEFFF798FFFFF7E2FF002400E00024074B03EB8403D3F8A83634
:400780009847FFF7D7FF0134E4B2022CF2D8F2E7E8B40308E4A6030808B5012001F07EFB08BD00BF704700BF5C4AD2F8803303F00F0303F1D00152F8212002F00702032AD4
:4007C00004D0042A05D092B9554914E0554A116811E003F1C002514951F8222002F01F02112A06D0132A04D04FF4FA4103E04E4901E04FF400418BBB484BD3F8902502F084
:400800000100D3F88825C2F30172D3F8883513F0405F07D0414BD3F88835C3F30173012B02D102E0012300E0002303B108B9032A46D13A48D0F88025C2F31103D0F88425EE
:40084000C2F30C02D0F88005C0F300600130B1FBF2F202FB03F2B2FBF0F131E0012B2FD12E4BD3F8402602F00100D3F80026C2F30172D3F8003613F0405F07D0274BD3F86A
:400880000036C3F30173012B02D102E0012300E0002303B108B9032A12D12048D0F8002602F07F02D0F80036C3F30423D0F80006C0F3044002FB01F2B2FBF3F2B2FBF0F1D2
:4008C000164BD3F88033C3F3011321FA03F215494A601648D0F89030C3F3072301330069000E0130B2FBF0F08860B2FBF3F3CB600B6103F5742202F23F220D48A0FB02021F
:40090000C2F387420A7503F2E7330A4AA2FB03239B098B61DB03CB61704700BF0000264000127A0098AD030800366E010000214083DE1B43D34D621008B50D4801F054FE96
:40094000FFF730FFFFF730FF00221146042001F06DF8084801F000F9074B1B6893F8513013B1064801F068F900F0AAFF08BD00BFF4B0081048E20308705904086CAD0810A7
:4009800008B501F02AFD074AD2F8883043F47003C2F88830BFF34F8FBFF36F8F01F021FD08BD00BF00ED00E02DE9F04180460E4617460A4C08256560702000F06FFD40465B
:4009C00000F06CFDA5606560722000F067FD3946304600F0C7FDA560BDE8F0810006324000B583B002AB03F8011D01221946FFF7DBFF03B05DF804FBF8B507460E46094C08
:400A000008256560702000F049FD384600F046FDA5606560732000F041FD304600F06EFDA560F8BD0006324038B50425084B5D60084C402363601023636000F0FFFC082214
:400A4000054B5A6065602023636000F0E1FC38BD00003240800232400006324010B5434C6F220021204609F011F9631C236704F14E03636704F12203A36700F0C9FC03E0BD
:400A800000F0D0FC032868D800F0AEFD0028F7D100F0CEFC00217220FFF7AEFF00F00F0002285CD14021FFF79BFF00210F20FFF7A3FF10F0800F54D002210B20FFF790FFBF
:400AC00008222B490120FFF76FFFD1210720FFF787FF02210820FFF783FFC2210920FFF77FFF03210420FFF77BFF01210320FFF777FF00210320FFF773FF0A2001F0E6FBEA
:400B0000002400E01C4601210520FFF769FF642001F0DCFB03210520FFF762FF322001F0D5FB0F210520FFF75BFF322001F0CEFB00210F20FFF760FF10F0400F05D04021D0
:400B40000220FFF74DFF234603E0631C9BB2042CD8D1032B07D9052010BD012010BD022010BD032010BD002010BD00BFC8E30308A0AD081010F1090F0EDB10F1040F0EDB8D
:400B800005280FDD0A2810DD0F2811DD142811DD282811DC5A2210E04FF496620DE04FF461720AE04FF4167207E04FF4A57204E0DC2202E0B42200E03C22034BA3F87C2074
:400BC000A3F87E20704700BFC8E303082DE9F84F06460D46047828B1CA4B984205D10127002403E00127FF2400E0002700F010FC4FF00008D0E1C8EBC80AC8EB0A1ADFF8D2
:400C00000C930AEB090B6F220021584609F03EF80BF1010EBC4BC3F870E00AF148004844063058670AF1200AD14409F10209C3F878902022002397E10FB934780136032DF2
:400C400000F29081DFE815F004006500C600270100EB030C14F0400F01D0C02100E080218CF8001049B214F0100F02D04FF0300A01E04FF0200A4AEA01018CF8001014F0B9
:400C8000040F02D04FF00C0A01E04FF0080A4AEA01018CF8001014F0010F02D04FF0030A01E04FF0020A4AEA01018CF800100EEB020C14F0800F01D0032100E002218CF8C0
:400CC000001049B214F0200F02D04FF00C0A01E04FF0080A4AEA01018CF8001014F0080F02D04FF0300A01E04FF0200A4AEA01018CF80010013A92B214F0020F02D06FF054
:400D00003F0A01E06FF07F0A4AEA01018CF8001028E100EB030C14F0400F01D0802100E040218CF8001049B214F0100F02D04FF0200A01E04FF0100A4AEA01018CF80010DD
:400D400014F0040F02D04FF0080A01E04FF0040A4AEA01018CF8001014F0010F02D04FF0020A01E04FF0010A4AEA01018CF800100EEB020C14F0800F01D0022100E001218B
:400D80008CF8001049B214F0200F02D04FF0080A01E04FF0040A4AEA01018CF8001014F0080F02D04FF0200A01E04FF0100A4AEA01018CF80010013A92B214F0020F02D096
:400DC0006FF07F0A01E04FF0400A4AEA01018CF80010C7E000EB030C14F0400F01D0C02100E040218CF8001049B214F0100F02D04FF0300A01E04FF0100A4AEA01018CF8FF
:400E0000001014F0040F02D04FF00C0A01E04FF0040A4AEA01018CF8001014F0010F02D04FF0030A01E04FF0010A4AEA01018CF800100EEB020C14F0800F01D0032100E0D6
:400E400001218CF8001049B214F0200F02D04FF00C0A01E04FF0040A4AEA01018CF8001014F0080F02D04FF0300A01E04FF0100A4AEA01018CF80010013A92B214F0020F71
:400E800002D06FF03F0A01E04FF0400A4AEA01018CF8001066E000EB030C14F0400F01D0802100E0C0218CF8001049B214F0100F02D04FF0200A01E04FF0300A4AEA010141
:400EC0008CF8001014F0040F02D04FF0080A01E04FF00C0A4AEA01018CF8001014F0010F02D04FF0020A01E04FF0030A4AEA01018CF800100EEB020C14F0800F08D0022167
:400F000007E000BFFFFF0F10C8E30308F80C040803218CF8001049B214F0200F02D04FF0080A01E04FF00C0A4AEA01018CF8001014F0080F02D04FF0200A01E04FF0300A6F
:400F40004AEA01018CF80010013A92B214F0020F02D06FF07F0A01E06FF03F0A4AEA01018CF8001001339BB2202B7FF665AEC8F1AF031BB299101A4A134003D5013B63F0B3
:400F800003030133174A02FA83F31B7A09F8013008F101081FFA88F8B8F1AF0F7FF62BAE00240FE0C4EBC403C4EB03136F220E4919440A20FFF7F8FC07210220FFF710FD19
:400FC0000134A4B2AF2CEDD9084BB3F87C4000F029FA8442E4D800F02BFABDE8F88F00BF03000080A0AD0810F80C0408C8E303082DE9F04706460D4600F00AFAD2210920CC
:40100000FFF7EEFC0024C6E0C4EBC407C4EB0717DFF8008207EB08096F220021484608F035FE09F1010C784BC3F870C007F1480EC6440EF1060EC3F874E02037B84408F17D
:401040000208C3F87880202000218EE0771C32786E1C95F800900EEB010582EA090212F0400F04D019F0400F03D0802302E0402300E0C0232B705BB212F0100F05D019F0E8
:40108000100F05D04FF0200A04E04FF0100A01E04FF0300A4AEA03032B7012F0040F05D019F0040F05D04FF0080A04E04FF0040A01E04FF00C0A4AEA03032B7012F0010FED
:4010C00005D019F0010F05D04FF0020A04E04FF0010A01E04FF0030A4AEA03032B700CEB000512F0800F04D019F0800F03D0022302E0012300E003232B705BB212F0200FDC
:4011000005D019F0200F05D04FF0080A04E04FF0040A01E04FF00C0A4AEA03032B7012F0080F05D019F0080F05D04FF0200A04E04FF0100A01E04FF0300A4AEA03032B7088
:40114000013880B212F0020F05D019F0020F04D06FF07F0203E0402201E06FF03F0213432B70013189B235463E4620297FF66EAFC4F1AF031BB29910244A134003D5013B9E
:4011800063F003030133224A02FA83F31B7A08F801300134A4B2AF2C7FF636AF002421E0C4EBC405C4EB05151A4B1D446F2229460A20FFF7F9FB07210220FFF711FCC4F1FC
:4011C000AF0343F38D032B44002283F822206F2229460A20FFF7E8FB07210220FFF700FC0134A4B2AF2CDBD9074BB3F87E4000F019F98442D2D800F01BF9C2210920FFF79D
:40120000EFFBBDE8F08700BFC8E3030803000080A0AD0810F80C0408002307E01349086F5522C254496FCA5401339BB2202BF5D970B5002416E0A6080C4DAA6F04F0030308
:401240000B490B441B7A93556F2229460A20FFF7ABFB07210220FFF7C3FBAB6F00229A550134A4B2AF2CE6D970BD00BFC8E30308A0AD081008B5002304E00021094AD154D6
:401280000133DBB2152BF8D900210420FFF7A8FB6F2204490A20FFF787FB07210220FFF79FFB08BDC8E3030838B50E4C1023A360142001F00BF800F0D9F808220A4B9A60CA
:4012C0004023A3600425A5600A2000F0FFFF65600A2000F0FBFFA5600A2000F0F7FFFFF7BDFB38BD800232400006324038B5FFF793FFFFF7BFFF1E2000F0E8FF234C402533
:401300006560322000F0E2FFA56000210F20FFF773FB10F0400F36D000210B20FFF760FB01210320FFF75CFB03210520FFF758FB01210520FFF754FB322000F0C7FF8021C1
:401340000420FFF74DFB00210520FFF749FB01210720FFF745FB1E2000F0B8FF00F094F8102363606560142000F0B0FF0822084B5A60042363602025A5601E2000F0A6FFDF
:401380006560002038BD042038BD00BF800232400006324010B50446FFF746FB2046FFF7E9FB10BD08B510B1FFF77EFF01E0FFF79DFF08B9012008BD002008BDF8B50746D2
:4013C0000E4614461D4613B10120FFF7EBFF24B931463846FFF70CFE15E0631EDBB2012B11D800213846FFF7F1FB012C07D101213846FFF7EBFB02213046FFF7E7FB032196
:401400003046FFF7E3FB15B10020FFF7CBFFF8BD08B50022024BC3F8082100F06FF908BD00003840014BD3F808017047000038400122014B5A6070470000384010B5074CA3
:40144000074A0849204600F09DFD236843F0004323600822044B9A6010BD00BF000067404C590408F4AD0810000632400822044B9A60044A136843F000431360704700BF33
:40148000000632400000674008B50249024800F0ADFE08BD4C5904080000674008B50146154800F011FD144BD3F8C03F13F0040FF9D0114BD3F8042242F48032C3F8042286
:4014C000D3F8042222F48032C3F80422D3F80422D3F8042342F48032C3F80423D3F8042322F48032C3F80423D3F804230422C3F8C02FD3F8C03F08BD0000674008B501460D
:40150000174800F0E1FC164BD3F8C03F13F0040FF9D0134BD3F84003D3F8042242F48032C3F80422D3F8042222F48032C3F80422D3F80422D3F8042342F48032C3F8042308
:40154000D3F8042322F48032C3F80423D3F804230422C3F8C02FD3F8C03FC0B208BD00BF0000674038B50C46054600B121B940F2E6511B4800F0C4FE22462946194800F0EB
:40158000E9FC184AD2F80832C3F30803D2F80822C2F3C032D342F4D1124BD3F8042242F48032C3F80422D3F8042222F48032C3F80422D3F80422D3F8042342F48032C3F873
:4015C0000423D3F8042322F48032C3F80423D3F804230422C3F8C02FD3F8C03F204638BDACAD081000006740044B1B6913F0080F01D0012070470020704700BF8002324009
:4016000008B54FF48051034801F048F9024801F061FD08BD48E40308C8D70810024A136801331360704700BF4859040810B52021002000F017FF002409E0204600F042FFAF
:4016400020B90849204600F02FFF02E00134042CF3D9042C03D9A421034800F051FE00F0D9FE10BD1D160810ECAD081008B5FFF7DDFF08BD10B582B002AC012344F8043D24
:4016800000231A461449154801F0A4FE214603F00EFC04F08BF860B14FF48472B021002004F019FC4FF48472B021002004F03FFC0BE0B0224FF48471002004F00CFCB022FF
:4016C0004FF48471002004F032FC0549002004F019FC02B010BD00BF50DF081084DF0810B8AD0308012901D1002070474FF0FF30704700BF0048704748F4030808B5084B7C
:401700001B783BB9074A0021074800F0E5FE0122034B1A70044B01229A609A6108BD00BFF80A040828AE081000003840014B1878704700BF041634401F4B98422DD00CD82F
:4017400040282ED003D8E8B1102828D02FE0802829D0B0F5807F28D029E0184B984228D006D8B0F1204F0DD0154B984212D01EE0144B98420AD00133984209D0023B9842DF
:4017800015D101E0002070470F4870470F4870470F4870474FF4A0007047074870470D4870470D4870470D487047034870470C4870474FF4A400704706005200010000F0A9
:4017C000090000A0040000F0010052000200520003005200010050000200500005005200FF00520038B5124B1B6893F83130012B04D840F2C3110F4800F082FD0C4B1D689C
:401800002A6AB5F8B03013442C46D5F8B420D358002B0BDB084B1868FFF78EFF6B6801229A6063689B68002BFBD138BD034838BD7059040874AE0810FC0A0408020050002E
:401840001A4B186128B102230370FF23437000234380174B1B6893F850202AB300B583B0B3F93830ADF80030002301931149684600F0F2FCBDF90030002B08DB590903F0EA
:401880001F03012202FA03F30B4A42F82130084B1B6893F8513023B102220849012000F077FA03B05DF804FB704700BFFC0A04087059040809AF030800E100E0C1AF030801
:4018C00008B50248FFF7BCFF08BD00BF100B040838B50B4B1B68D3F8B4301B58002B0DDA0D4604460B0C1B0423B140F2D521054800F006FDA9B26160002038BD024838BD0C
:4019000070590408B4AE081001008A0038B50368002B01DA002300E0094B73B90D460446C2600B0C1B0423B140F2BB21054800F0E7FCA9B2A160002038BD014838BD00BF87
:4019400001008A00B4AE081038B504460D4619B99921084800F0D4FC074B1B68D3F8B4301B59002B03DAE3682B60002038BD034838BD00BFF4AE08107059040801008A0038
:40198000254B1B6893F8313083423AD900293AD00B6813F01F0F38D170B50D4604461E4B1B6893F83130984204D340F2C3111B4800F0A6FC184B1B68186AB3F8B03004FB58
:4019C0000304174E34602A68D2080021686808F05DF900212046FFF77BFF346825B940F293310E4800F08CFC2A4600212046FFF78DFF60B900210A4B1868FFF769FF40B928
:401A000070BD084870470748704706487047064870BD054870BD00BF70590408B4AE0810140B040803018A0001018A0010B504461346B2B9A9B9124B1B6893F83130984244
:401A400004D340F2C3110F4800F05AFC0C4B1B681A6AB3F8B03004FB03240B4B1C60002010BD43B149B1084A51609360111D2046FFF786FF10BD054810BD044810BD00BF6C
:401A800070590408B4AE0810140B040803018A002DE9F0411B4B1B68DC68236883422CD90D464609A0EB4610012303FA00F819B900F093FC074600E00027124B18680368CC
:401AC000002B01DA002300E00F4B83B9626852F8263018EA030F05D023EA080342F82630002400E0094C0021FFF7F2FE00E0084C25B9384600F075FC00E0064C2046BDE8BE
:401B0000F08100BF140B040801008A00020188000301880004018A000B4B1B68DB681A6882420CD94109A0EB4110012202FA00F05B6853F82130184203D0044870470448C2
:401B400070470448704700BF140B04080101880004018A0000018800024B1B680BB9014B18607047200B04082DE9F8430446884691461D46089F2C4B1B681BB9B5212B4878
:401B800000F0BEFB284B1B682C2000FB04F01C18EEB21E50C5F3072363602D0CA560244B1B6893F831309E4204D340F2C311214800F0A6FB1E4B1B68196AB3F8B02006FBA6
:401BC00002162661666893F832309E4204D340F2DF11184800F094FB154B1B681D6A803605EB46156561A668330C1B0423B14FF4FF71104800F084FB330C1B0423B140F284
:401C0000FF110C4800F07CFBB3B243EA0646AE60C4F81C90C4F820800023A36117B1B7F90030A381BDE8F883200B040834AF081070590408B4AE0810F0B58FB0044618B996
:401C40005221274800F05CFBA369072B03D95621234800F055FBE36A1BB95821204800F04FFB236B1BB959211D4800F049FB07AD04F114060FCE0FC537682F6002AD264691
:401C80000FCE0FC533682B60164B1B68B3F93620079B1344ADF83030089B0D93A26AE16A0CAD00953B460A98FFF75EFF00210091069B0A460598FFF757FF216B284600F095
:401CC000CBFABDF93030002B08DB590903F01F03012202FA03F3044A42F821300FB0F0BD34AF08107059040800E100E0F8B506460F461D4614461AB9FD211F4800F000FB4B
:401D00001E4B1B681BB9FE211B4800F0F9FA1B4B1B682C2101FB063001FB07314B68012202FA03F31B04466802FA06F60269EAB18F69EFB91268002A01DA002200E0104AD4
:401D4000C2B92288134323600369DC6001238B614D620469330C1B0423B140F2BB21094800F0CEFAB2B2A2600020F8BD0648F8BD0648F8BD0548F8BD34AF0810200B0408D3
:401D800001008A00B4AE081004028A0007028A00F8B505460F4616460E4B1B6823B94FF4AF710D4800F0ACFA0A4B1B682C2404FB0534236A23B94FF4B171074800F0A0FA45
:401DC000E369B34204D9236A43F826700020F8BD0248F8BD200B040834AF08100A028A0070B582B000230193044620B940F2D111284800F085FA236923B94FF4E971254835
:401E000000F07EFA636923B940F2D311214800F077FA236A23B94FF4EA711E4800F070FA6369DD682A0C20D012041A601B682069194B1B68D3F8B430C358002B15DA01A9A3
:401E4000FFF782FD60B9019803681E0CDBB2E269934206D2226A52F8233013B1984700E0002631462069FFF733FDADB275B16369ADB21D601B68636A1BB198470023636219
:401E800002E0A36A03B198470023A36163691B6802B070BD34AF08107059040810B50446074B1B6823B940F2B111064800F028FA034B1B682C2000FB0430FFF791FF10BDC8
:401EC000200B040834AF0810036813F4006F01D0802200E04022D0F80832C3F30803934203D0C0F84012012070470020704700BF10B4D0F8003203F00F03072B06D9002340
:401F00000DE0CC5CC0F84042013300E000239342F7D306E031F81340C0F8404201339342F8D35DF8044B704710B51446036813F4006F01D0802200E04022D0F80832C3F344
:401F40000803D31AA34200D81C462246FFF7D0FF204610BDF8B507460D461446D0F8006206F00F060BE0224629463846FFF7DCFF072E01D9430000E003461D44241A002CB7
:401F8000F1D1F8BD002800F02481F8B50546002900F0218117460C460B78012B03D93F218F4800F0ADF96378012B07D9052B05D0022B03D040218A4800F0A2F9A378032B40
:401FC00003D94121864800F09BF92378012B07D16368023B0E2B03D94321814800F090F9A36933F00F0303D044217D4800F088F9A368043B0C2B03D94521794800F080F953
:40200000E368043B0C2B03D94621754800F078F96378022B07D0A268E3689A4203D047216F4800F06DF9636A33F06D0303D049216B4800F065F9E36A33F0730303D04A2164
:40204000674800F05DF9236B33F4206303D04B21634800F055F96378A678052B07D8DFE803F0060305060603022600E00026A368082B04D8E368082B03D9002302E0002362
:4020800000E0012313B14FF4006200E00022237F13B14FF4807300E000231A436368013B03F00F03134343F080732B60226A2B6813F4006F01D0802300E040239A4203D3A4
:4020C0005821474800F01CF9A26A2B6813F4006F01D0802300E040239A4203D35921404800F00EF9237D0BB9012100E000216278052A01D1022300E000230B43E17C09B16D
:40210000102100E000210B43617C09B1202100E000210B432178012902D14FF0004100E000210B43B60006F00C063343A169090201F470610B43120602F0407213432B6297
:40214000237C13B14FF4807200E00022A37C13B14FF4007300E000231A43A368013B03F00F031343C5F8003394F82030C5F80433237C13B14FF4807200E00022E368013B49
:4021800003F00F031343C5F8003294F82830C5F80432636A03F06D03C5F8C83FE36A03F07303C5F8883F236B03F40073C5F8003F236B03F40063C5F8403F0023C5F8C83ED2
:4021C0005FB118463B60BB61FB60FB61054B3B62F8BD054870470448F8BD0020F8BD00BFB8AF0810EFCDAB000140AA00036823F00043036019B100220A60CA608A61036AFB
:40220000002B04DB0023C0F8C83FC0F8883F704738B50D4B9A680D4B9A420FD10D46044621B940F237110A4800F06AF804F11003064A52F8230042F8235038BD1030054B95
:4022400053F8200038BD00BF00ED00E000400208F8AF08100000081048B338B504460D464368072B03D93221134800F049F8B4F900306268002B08DB5201D2B203F1604311
:4022800003F5614383F8002305E003F00F035201D2B20A49CA540A4B9A680A4B9A4208D12946B4F90000FFF7B3FF002038BD06487047002038BD00BFF8AF081014ED00E0FF
:4022C00000ED00E0004002080100560010B5044605E0084B186800F077F8A4F50044B4F5004FF6D8044B186800FB04F000F06CF810BD00BFB4AD0308B0AD030801BEFEE791
:4023000038B50D46044C18220146204607F0CEFCA5610020FFF7F2FF38B40308FEE700BF08B50268254BDA6142681A6282685A62C2689A620269DA6242691A6382695A6382
:40234000C2699A631E4A916AD963D16A1964516A5964516B9964926BDA64F1EE103A13F0900F27D0026A154B1A65426A5A65826A9A65C26ADA65026B1A66426B5A66826B5D
:402380009A66C26BDA66026C1A67426C5A67826C9A67C26CDA67026DC3F88020426DC3F88420826DC3F88820C26DC3F88C20026EC3F89020FFF7B2FF08BD00BF38B4030837
:4023C00000ED00E0000000000230800803D001300238FCD100BF00BF7047EFF3108072B6704780F310887047084B1B6813F4803F07D17047064B53F8243003B19847013420
:4024000001E010B50024042CF4D910BD10E000E0600B0408044B1A6842F002021A601A6842F001021A60704710E000E0042805D10A4A136843F0040313607047084B1B687D
:402440001A68D3F8A030000600F04070D050034A136823F004031360704700BF10E000E07059040810B50C46002304E000210A4A42F823100133042BF8D9084A084BDA63F3
:40248000FFF7D4FF24F07F44064B5C6000229A60FFF7C0FF10BD00BF600B0408E92308100040020810E000E00346042805D8044A52F8200042F8231070470020704700BF99
:4024C000600B0408042803D8024B53F82000704700207047600B040800287DD00346002A7CD070B45068000280B29568AD0405F480252843D468240404F440340443106916
:40250000000600F0E0602043147F0CB1012400E0002420430C1DA4011851D06828B903EB81100024C0F808410CE0012805D1146803EB8110C0F8084104E003EB81100124C3
:40254000C0F80841106938B9546903EB8110C0F80C419469C0F81041146803EB8110C0F81441906CB0F1FF3F17D0946A04F00F04166B360206F470663443956B2D0405F4B0
:4025800070252543146C2403A4B22C430001C0B2204303EB8114C4F82001506A00F00300D66A360106F030063043556B2D0205F440752843D46BA401E4B20443506C8000B4
:4025C00000F00C00204303EB8113C3F82401126AC3F83821002003E0024870470148704770BC70470100B600014B1860704700BF70590408F0B51B4C85B02668F76C3D1856
:40260000306DBC1841180191C718337E02A9013B9BB2EA1A0A801A198A80019A0800D21ADB194A80CB8004F079F9002818D022000199280002F092FC22003900280002F0C8
:402640008DFC019B7A1E5E1C3100280002F0ACFC7A1E3100200002F0A7FC04F0AFF8E4E705B0F0BDD8AD030810B50622835E0421425E0224015F0024005FFFF7BBFF10BD41
:40268000064B5A68596B01325A60C2008A18596A51600021117058627047C046745904080F2330B542680E4CD90009190D6C2100AA4202D2013BF7D211E00F2B0FD8246879
:4026C000A21A0A608268C068002A00D05060002801D0026003E00833DB00CB185A6030BD74590408F8B5284C0600E368A26B013B0818D3180D00984206D80368002B03D14C
:402700004368F618FFF7CCFFA36B9D420BD92B1F1F68EF1B3B68002B05D17B683800F6183D00FFF7BDFF0F23DA00A218126C964202D2013BF8D225E00F2B23D80833DA0072
:40274000A21850680022A91904392A606E60A8602D610E6029000831904200D04160EA602200DB00E318A860596023682932F31823601278002A05D1E268D31AA2689342AE
:4027800000D9A3603000F8BD74590408F0B5234B87B09C6BDB680490013BE318039323686568002B30D1039B6719BB422CD93B680293002B28D0194EDB00726B9B5C012B49
:4027C00022D17B6820000193F36A0593FFF768FF3B68726BDB00D3185C60019A3900200007F039FA029B059A934202D1736B5B1B7363019B2800E118FFF774FF049B002BDF
:4028000001D0984206D2019D039B6419A342C6D8012000E0002007B0F0BDC04674590408002806D0034BDA6B0260002A00D05060D863704774590408034BC0005B6B181809
:40284000406808307047C04674590408064A10B5D3690133D361526BC300D3181A7801321A70FFF7E9FF10BD74590408036810B5083B094C1B68626BDB00D3181A78012A50
:4028800004D9E169002901D00139E161013A1A7000230360180010BD745904080322024B9143186059607047740B040810B5041E0BD0064B5A6BC300D3185B681900586897
:4028C000FFF710FF2000FFF7DBFE10BD74590408F7B5224DEB6A002B07D1214B99685868083106F069FD841C03E02B691C1DDB08E418E00000F0CAF80126071E2CD06A6B2B
:40290000C300D3185E68EB6A083601932B69696BDA00144B30001B68984729696E630B00CA000432EF62B218601E834203D2013313600832F9E7DB00F31800265E60074B4B
:402940005A685962511A091959601C61019BB34202D01800FFF7AAFF3000FEBD74590408740B0408FCAD030870B5184C230028331A78002A29D101321A70154B0F32DA60A5
:402980009A68002A02D15A6892089A605A2210252262002228009040D100611801320864102AF7D15868196803000125143BCB180E3A22616363A163E0605D6065626560CE
:4029C000FFF790FEFFF784FF256370BD74590408740B0408F0B5040085B0FFF7C5FF0323294E03349C43376C201DB84200D30700F26B1400002C06D0231F196823688F4230
:402A000032D01C00F6E7F268B36B944663440193043B02931B680393039A019B9D1A2B68002B06D02000FFF7B1FE029B1D68019B5D1B2B68002B23D16B689F4220DC280018
:402A40001C1DFFF72DFEF368E41BDB1BF36073692C19DB1973616B68D81B02D02900FFF741FE231F1F600BE0002B01D0616859606168002900D00B60A24201D12368F3638C
:402A8000200005B0F0BDC04674590408F0B585B00400FFF769FF3C4D2E6CB44203D3032303349C4326002B680C360196B34241D32B6B6A689A420FD96B686F6A013B6B60D4
:402AC000FB0003936B6BFA009B185A686A6201221A70002F0AD12DE0013B2B63FFF7F8FE2B6B01332B630028E6D023E00F23DA00AA18126C964201D2013BF8D21A00DB008F
:402B00004433EB180F2A0DD81968002907D08C68002C04D061688E420ED9A168F5E701320833EFE73000FFF731FE0028DED03800FFF7A6FD002723E0636802939E1B2B6C09
:402B40000C339E4201D2029B01932000FFF7A8FD6B6B039A9B185C60019B019A63600023A360019B2760E1180B1F24611A601300029A934204DA1300019A981AFFF7B2FDC9
:402B8000380005B0F0BDC04674590408002310B5984202D0FFF77AFF0300180010BD000037B50500FFF7F2FF041E0AD0FFF74EFE054B01901B682A000021984701A8FFF76E
:402BC00055FE20003EBDC04600AE0308514BF0B51B688FB0DA69D469A589A84208DBE189814205D32168451B09910121494215E0A168002900D184E00D88A84200DA80E0E0
:402C00004E8886427DD3451B4968A8B266688000081809960021455E0221415E0891691C6FD022215E5E2420195E0691127E0A92A27C0A9951430C91227C0B922A229B5E5C
:402C40001800079302F054F9324F0D903A680699D369926B300005920C9A5543099A551904950125A27C02950392DA7E01929B7E0B9A00930A9B02F0CDFA089B01331BD050
:402C80000220079B184302F033F93B680899DA699B6B300005930C9B4B430999CB180493A37C02950393D37E06990193937E0B9A00930A9B02F0AEFA164D2B68DB695A7EC7
:402CC0001B7E9A4217D9079B022B14D00420584002F00EF92B68069AD8690B99437E057E9B18827E51438A19C17E069869430918300002F07FF96B4634229B18187802F041
:402D0000F7F8044B617C1A68538CCB1853840FB0F0BDC046D8AD0308044B1B68DB69DB69002901D01A7C0A60587C7047D8AD030802230B80704710B5C3699A89914203DBC0
:402D4000DA8901208A4210D29B68181E0DD01A880020914209D35C888C4206D3891A5B688900C85AC04380B2C00B10BD002807D003888B4202D843888B4201D28068F5E7D1
:402D800070470000F0B5334F8BB03B6804002A215A5EDB690100D8690792FFF7E7FF002855D00388E41A4368E4001E190798B47802F09EF839680990CD6932782B7E089308
:402DC0002423C85E84462223C85E896B089B059171680394049101210291E97E0191A97E0091614602F016FA3B68DB695C7E1A7E089294421FD9079A022A1CD0DD7E00F02B
:402E000088F8079000F07FF800F006F93A682423D15E2223D05E2300D2696B43D47E32785B186243089C12186543691802F0E2F8079800F0F1F8099802F05AF8054B717821
:402E40001B68DA69927E4A43598C52185A840BB0F0BDC046D8AD03080C4B70B51B680400DE690D000100F069FFF780FF00280CD002884368A41AE4001C196078B37E5843EA
:402E8000002D02D0227853432B6070BDD8AD030801230B80704710B5C069FFF767FF431E9841C0B210BDFF2230B5040014400A40A21A92B213B2002B01DA524213B25B4308
:402EC0001D00FF23020A1A4014000A0A1340E21A92B213B2002B01DA524213B2000C5B43090C411A89B208B25B19002801DA494208B280B24043C01830BD10B5002801D04B
:402F000003F080FE10BD10B502F0ECFB02F0F2FA10BD10B502F0EEFB02F0ECFA10BD70B500282CD0002926D0002A25D013880D881C1C2EB21BB2B34200DD2C1C04805388B0
:402F40004D881C1C2EB21BB2B34200DD2C1C448093888D881C1C2EB21BB2B34200DA2C1C8480D388C9881A1C0CB21BB2A34200DA0A1CC28003E01100082206F061FE70BD55
:402F800000280DD0038889B2CB180380838892B2C91843888180D3184380C388D218C28070470000024B1B685884998400207047D8AD0308024B1B681A7E1876100070471B
:402FC000D8AD030830B503000222845E06200A5E0020944213DC02228C5E06255A5F94420DDC00229C5E04254A5F944207DC00228A5E0421595ED00FCB179142584130BD88
:4030000010B502F02FFF02F0A9FF03F007FD10BD10B502F0B3FA10BD10B502F0B7FA10BD034B021E1B68D86900D0DA617047C046D8AD0308084B10B51880084B0A001980B7
:40304000074B08491B685B7C9B005B58D9680C6A01001800A04710BD5C5A04084C5A0408D8AD0308845A0408034B1B682C215A5E988510007047C046D8AD0308034B1B6872
:403080002A215A5E588510007047C046D8AD030870B50024094D0A4E10C53368210028007022984733680422210006489847064B1D60064B1C70064B1C6070BD840B040863
:4030C00000AE0308845A0408D8AD03086C5A0408485A0408014BD8607047C046D8AD0308F0B50700160085B00C000420019301F0FFFE114B00901A68D36CDD199E19176DC5
:40310000019B3C19FF1802AB18001D809E805C80DF8003F003FC002804D1009801F0E8FE05B0F0BD3B0032002100280001F062FF03F044FBEFE7C046D8AD0308002110B580
:403140000800FFF72FFF034A034813000100FFF7C7FF10BDFF3F000001C0FFFF024BDA6FD86742607047C046840B0408084B10B51A68002A0AD101321A60FEF741FAFEF7B1
:4031800079FA0448044B0360FFF7E8FF10BDC046840B0408040C04089130081070B5FFF7E5FF2E22314B1A70FEF760FA304C314D2100314B0C3123672B681A1DDA6304321F
:4031C000A2619B631B645B7C2C4A9B009858C3681B6B98472A4B6366EB6823622B680833A36101232377E37703F01CFD2300032268331A70234BE064606F6363A36302F02F
:40320000BDF9A86802F0C2F91F4A204B1A6002F017F9050002F014FB060002F017FB002E01D0002808D102F0FBFA060002F0FDFA0100300002F0FEFA00210800FFF7FAFEB3
:4032400003F03AFCA36F002B0AD0A36F002B07D01B68002B00D09847A36F5B68A367F4E701220B4B28001A7070BDC0463D5A0408840B0408D8AD0308E8DE0810845A0408EF
:40328000E0DE0810785634FF40DF08107C5A0408645A04080300002083420ADC054A9B009858002805D0C3681B68002B01D00068F7E77047845A040810B5FFF7B1FA10BDEB
:4032C000F8B506000D0017001C1E01DD00201BE01C20FFF77FFB0028F8D0002D01D005610BE00A4BA200D358002B06D01A68002A01D01300FAE71B6903610023846187824C
:40330000C660036043608360F8BDC046845A040883690C499A0010B554580368A04204D15350002B01D000225A604268002A00D013600368002B00D05A6000230360436090
:4033400010BDC046845A040830B5002801D101203BE08269002AFADC1C4B19788A4201DB012119701A49920053580D00002B02D15050180029E05968002901D00B00FAE72C
:40338000C1680968DC6824688C4203DD1B68002BF8D1DCE78C420AD1848A012C07D11C68002C04D02300E4682468A142F7DD5968002902D00860416000E0A8505860002252
:4033C000984200D01A000260002030BD355A0408845A040870B51C00FFF772FF051E0AD0FFF7B2FFEB681B68002B04D1034B16341B68A400E550280070BDC046D8AD030814
:40340000F0B5040087B0002800D17BE003F082FD3D4D02902B6822229B5E039303F064FD2A6883B20093938C00995B1A93842378002B5AD03549200003F0D8FD0100060015
:40344000200003F0FDFD304B1A680323918D19400300012905D00023022902D1C30F1B185B10518C04ADCB1A9BB219B25184298081B2019101395B18AB802423D35E6A4644
:4034800017896B80013BFB182A0020003100EB8003F004FE1C4D04AB5B882A6820009384310000F063FD241823780A2B01D00D2B12D103212B689A8D0A40013A012A02D8B2
:4034C0006A46928900E01A8C5A8422780A2A09D19A8CBF189F8405E004AA1088019A2B68101858842378002B0AD10321064B009A1B68988C10189A8D98848A439A8501E0E9
:40350000013494E707B0F0BDD8AD0308FF7F000010B5034B1B6859849A84FFF771FF10BDD8AD0308F0B58BB0059004920C000822002106A8009306F0A9FB03F0EBFC059B5E
:403540000290039308AD002C05D008222100280006F076FB02E02800FFF7CFFC0C24049B1C4002D10223EC5E33E00025009E002E11D03100059803F039FD0100361A059891
:4035800000F0F4FC059B01351818059005A803F047FC0028EBD0082C03D00C2C09D0042C16D108AB06229B5E029A55435C1B01340FE008AB02229C5E06229B5E029A1B1B34
:4035C000554301335D1BEB0F5D196D102C1900E000240026039B0593009B002B00D187E00099059803F002FD009B01901B1A01000598009303F024FD0322049B1340012BE6
:4036000013D0022B05D0002B14D108AB00269E5F10E008AB00215A5E04215B5E9B1A1B1AD90FCB185B109E1804E008AB04229B5E1B1A5E1C3D4F06AD396823B28B846B807B
:40364000029B013832B28019013B4A841B192A80A8802A0001990598EB8003F01FFD344B1B78002B34D002223B685B8D13422FD1039B059A93420DD108A80222AB5E0222D6
:40368000815E8B4206DD0425425F013B0025405FFFF726FD06A90023CA5E08AB0020185E824206DD06254B5F013A0225495FFFF717FD06A90423C85E08AB04229A5E904226
:4036C00006DA06254B5F01300225495FFFF708FD0199059800F04AFC059B1818059003F019FC241805A803F09BFB002800D173E70F4B1B78002B17D00C4B1B685B8D9B0718
:4037000012D4039B059A93420ED006AB08A80621595E0622835E994206DA0424025F01310024005FFFF7DCFC0BB0F0BDD8AD0308140C0408F0B585B006000C0017000193E9
:40374000002817D00D1E0CD0080003F0E3FA051E07D00200210002A803F091FB02A803F0D9FA3000019B3A002100FFF7DBFE280003F0D0FA05B0F0BDF0B589B003930E9B4B
:4037800002900D001700002B03D1039BFFF7D2FF3DE0082206A8002903D106F077FA2C0013E006F04DFA082206A91A4806F048FA280003F0AFFA041E07D00200290004A833
:4037C00003F05DFB04A803F0A5FA0022124E134D336806A801932B685A610E9B33605B689847039B3A0006A90298FFF79BFE200003F090FA019A3300002A02D02A6800218B
:4038000002E02A68110008315161019A1A6009B0F0BDC046905A0408405A0408D8AD030873B50E4E3368DA6C1B6D84186A46CD1823B29380138068462BB2D380538003F02E
:403840006DF8002808D0336829001B6E20005B68984702F0B3FFF4E773BDC046D8AD030810B5084B1B681A7E012A03D11B6E5B68984705E0013AD30F9A18521003F05CFCD1
:4038800010BDC046D8AD030810B51F4A030012680020927E013A032A35D8100005F078FD020F1D25194A0633134004D51022013B524213430133D80F00210B220AE0144AB7
:4038C000134004D50422013B52421343013300210122D80F9A42484115E01421180005F08BFD01200B2909DC0DE01821180005F083FD01200B2906DD042399430023103939
:4039000088425B41180010BDD8AD03080F000080030000808023000530B5000D1B010021984202DD104A013180188022D200904200DD181A3F23402482111840201A0B4D4E
:4039400083B25000405B5843A34207D0102A05D001325200525BE31A5343C01820308009002900D0404230BD00F8FFFFFCDE0810802310B5DB00C018FFF7CCFF10BD000052
:40398000F0B587B002910299141A5F1A210001900C9D394303D10299FFF762FFBFE0F917E61778184840A11971400026049688420BDD21003C000F0011001A000B000199DC
:4039C00002980291012101900491E0172118414001200390A14208D00293019B01921A0001235B4264427F4203932E68002F3FD14C4B04991B6800291BD09B7E3700002B7B
