:400000000010002011000000410200004102000010B500F01DF9C04670B5164C23688022D20213432360182000F012FA2268124B13402360114A124B1A601022114B1A609C
:400040001032114B1A6080221206104B1A60002525600F4A0F4B1A600F4A104B1A601049092000F0D9F9092000F0CAF90D4B1D6070BDC04600010B40FFFFFBFF06000080E2
:4000800004010B400C0202402002024008010B40CF00008000000240BF5D008040000240610600000C020B4010B572B600240FE01F486200131959000B00411889881A5A42
:4000C000C31858880004104300F0B4F80134E4B2012CEDD9164801000C31203000F090F8144A154B1A60EE221202144B1A6099231B04134A13608A21C903124A1160124AB0
:400100001360124A117806230B43DBB2137024220F4B1A600F4A104B1A6020220F4B1A60D82212010E4B1A60FFF776FF10BDC0460409000000039000000001400C00014036
:4001400000500F4008500F4030500F4000700F40000004408001030008000440180004400803044010B5064C2378002B07D1054B002B02D0044800E000BF0123237010BD7B
:400180004001002000000000A8080000084B10B5002B03D00749084800E000BF07480368002B00D110BD064B002BFBD09847F9E70000000044010020A8080000C00000205B
:4001C0000000000010B562B600F00EFB00F098F8074800F009F9074800F006F9064800F003F9064800F000F900F0EEFAFEE7C046AC080000C8080000E0080000F40800008E
:40020000F0B50025002711E0BB00C658F3B2FF22964308E06A008A181478A419527822700135013BDBB2002BF4D10137032FEBD9F0BDC04610B50A00002100F02DFB10BD26
:4002400010B500F0FDFA03680C2B00D1FEE7FEE770B50F4E0F4D13E029686B68AC68002202E001C901C30432A242FAD1E868002202E0002102C304328242FAD11035013E52
:40028000002EE9D100F0E2FAFFF79CFFFEE7C046010000008809000010B500230AE0032B03D89A000949505800E009489900094A885001332F2BF2D9FFF7F6FE8022D2055C
:4002C000116801230B43136010BDC04600000000410200000000002010B500F06FF810BD10B500F01DF810BD10B5044A1368802109060B431360FFF7EFFF10BD00000740F3
:4003000010B5064B1B78002B04D1FFF7E9FF0122024B1A70FFF7E8FF10BDC0465C010020134A144B1A600023134A13601349144A1160072213490A6013490A60134A136036
:400340000121134A11601349134A1160134A1360134A1360134A1360134A1360134A1360134A1360134A13601268134B1A8070470B000002000007404000074001000A00A4
:400380004800074000030740040307401003074044000740070000800002074004020740880E0740C80E0740480F0740080F0740C80F0740880F07405E010020064A1168DA
:4003C000064B0B40902109040B431360044B1A88044B1A607047C04600000140FFFF0FFF5E010020880F074070B50500002402E000F018FA0134285D0028F9D170BDC046B0
:400400001F2318401E3B8340014A13607047C04600E100E001BE704770B504000D001F2802D90020FFF7F6FF1034A40080239B059C4664442068256070BDC04610B5034BE9
:400440001B7B584300F0DCF910BDC046C4000020F0B557464E46C0B483B0040000F0DAF90190E71E2D2F74D83F4B1B78DBB29C4208D83E4B1B78DBB29A463D4B1B78DBB2B4
:40048000994631E03B4B1B78DBB29C4208D83A4B1B78DBB29A46394B1B78DBB2994623E0374B1B78DBB29C4208D8364B1B78DBB29A46354B1B78DBB2994615E0334B1B7877
:4004C000DBB29C4208D8324B1B78DBB29A46314B1B78DBB2994607E02F4B1B78DBB29A462E4B1B78DBB299462D4BDE5D2F2E09D92A2C07D919222B4B1A60052000F080F9FF
:40050000192503E0274B1D683F231D40B54206D9234BDA5D234B1A60052000F071F91F4B9C4664442378DBB21F4A13601F4B52461A601F4B4A461A600520FFF77FFFB5428A
:400540000AD2174BDA5D174B1A60052000F058F902E00020FFF75EFF019800F05FF903B00CBC91469A46F0BDC0F1FF0FC1F1FF0FC2F1FF0FC3F1FF0FC4F1FF0FC5F1FF0F26
:40058000C6F1FF0FC7F1FF0FC8F1FF0FC9F1FF0FCAF1FF0FCBF1FF0FCCF1FF0FCDF1FF0F340900002CFF0B4028FF0B401CFF0B4020FF0B40034B1868C0231B02184000D00C
:4005C0000120704700010B4010B500F023F9044A1368C02109020B43136000F01FF910BD00010B4010B500F015F908490A68084B1A408024E40122430A600A68134080227D
:40060000120213430B6000F009F910BD00010B40FF3FFFFF70B5050000F0FCF80400FFF7C9FF002803D0FFF7DDFF012100E0002108482840084A1568084B2B4018431060CE
:400640001368012901D1FFF7BFFF200000F0E6F870BDC0460404040010020B40FBFBFBFF10B5244B1B685B0715D5234B1B685B070ED5224BD969042001401F4C22688A43C6
:400680002260DA698243DA611B69002B00D098470420FFF7BFFF174B1B685B0518D5164B1B685B0510D5154BD9698022D2001140114802688A430260D969114A0A40DA6169
:4006C0005B69002B00D098478020C000FFF7A2FF084B1B685B030CD5074B1B685B0304D5064B9B69002B00D098478020C002FFF791FF10BD10020B40D8000020600100208A
:40070000FFFBFFFF0004000C014B18607047C046080105400004000C014B18607047C046140105400004000C014B18607047C0460C01054070B504000D0000F06BF8AC409F
:40074000024B1C6000F06AF870BDC0460800054010B500F05FF8064A116801230B43136000F05CF818210120FFF7E4FF10BDC04600000540014B18607047C0463801054096
:4007800010B50E4C8023DB042360236823600020FFF7B8FF236823600C22094B1A600020FFF7E8FF3122074B1A60FA20C000FFF7B1FFF020FFF7B6FF10BDC04600010540C0
:4007C000240105402801054010B5064B1B78002B04D1FFF7D5FF0122024B1A70FFF7B8FF10BDC04680010020034A1368802109060B4313607047C04640000240000000001B
:400800000230800804D0C0460138FDD1C046C046C0467047EFF3108072B6704780F310887047C046044B1B680F221340082BF9D0024B18607047C04608020740400207408D
:40084000014B18687047C0463C0100200E4B70B500251E000D4CE41AA410A54204D0AB00F35898470135F8E700F07CF8084B00251E00084CE41AA410A54204D0AB00F35870
:4008800098470135F8E770BD7009000070090000700900007809000003008218934202D019700133FAE77047000000004645495F33325F547973686368656E6B6F5F416E6D
:4008C0006E61200D0A0000004C61626F7261746F727920576F726B2333200D0A00000000506572696F64203D2032303030206D73200D0A00434D50203D20323430206D73B7
:40090000200D0A0000300F40000400400F400004E2805304D4208B04970819088908C608E201000001330F4002400F4002410F4004430F40030405060708090A0B0C0E0F88
:40094000101112131415161718191B1C1D1E1F2021222325262728292A2B2E2F3031323334354300F8B5C046F8BC08BC9E4670478D01000099020000F8B5C046F8BC08BC92
:400980009E4670476501000098090000C0000020800000004800000000000000010000000000E02EC05D00001800000000366E0104040400000000000000000000000000F8
:4009C000000000000000000000000000000000000000000062090000000000000000000000000000000000000000000000000000000000000000000000000000000000008C
:400A00000000000000000000000000000000000000000000DC00002000000000000000000000000000000000000000000000000000000000000000000000000000000000BA
:400A40000000000000000000000000000000000000000000000000000000000000000000000000000000000000000000000000000000000000000000000000000000000076
:400A80000000000000000000000000000000000000000000000000000000000000000000000000000000000000000000000000000000000000000000000000000000000036
:400AC00000000000000000000000000000000000000000000000000000000000000000000000000000000000000000000000000000000000000000000000000000000000F6
:400B000000000000000000000000000000000000000000000000000000000000000000000000000000000000000000000000000000000000000000000000000000000000B5
:0200000490303A
:02000000197174
:0200000490402A
:200000000000000000000000000000000000000000000000000000000000000000000000E0
:0200000490501A
:0C000000000204C81193110104CB2B0472
:0200000490600A
:0100000001FE
:00000001FF