:400000000010002011000000AD020000AD02000010B500F053F9C04670B5134C23688022D20213432360182000F08EFA22680F4B134023600E4A0F4B1A6010220E4B1A6021
:40004000802212060D4B1A60002525600C4A0D4B1A600D49092000F05BFA092000F04CFA0A4B1D6070BDC04600010B40FFFFFBFF0600008004010B402002024008010B4028
:40008000BF5D008000000240590700000C020B4010B572B60122254B1A7000240FE024486200131959000B00411889881A5AC31858880004104300F0F3F80134E4B2012C6B
:4000C000EDD91B4801000C31283000F0CFF8C0229200184B1A60EE221202174B1A6099231B04164A13608A21C903154A1160154A13600122144B1A600132144B1A60144A0C
:40010000117806230B43DBB213708422114B1A60114A124B1A608022D201114B1A60D8221201104B1A60FFF777FF10BD1C700F40A8080000000001400C00014000500F40E3
:4001400008500F4030500F402000004000800F4000700F4000000440800D4000080004400C0004400803044010B5064C2378002B07D1054B002B02D0044800E000BF01230E
:40018000237010BD4801002000000000A4080000084B10B5002B03D00749084800E000BF07480368002B00D110BD064B002BFBD09847F9E7000000004C010020A4080000D3
:4001C000C00000200000000010B5012000F07EF9012000F013FB00F069F900F0E3F800F0E7F80022014B1A7010BDC046C400002010B5002000F06AF9002000F0FFFA00F0E7
:40020000E1F800F0CFF800F0D3F80122014B1A7010BDC046C400002010B562B600F062F900F0D0F8002000F051F9012000F0E6FA0B4B1B785BB2012B05D10A4800F0A4F8C2
:40024000032000F085F8064B1B785BB2002BEFD1054800F099F8032000F07AF8E8E7C046C4000020C9010000F1010000F0B50025002711E0BB00C658F3B2FF22964308E008
:400280006A008A181478A419527822700135013BDBB2002BF4D10137032FEBD9F0BDC04610B50A00002100F0F5FA10BD10B500F0C5FA03680C2B00D1FEE7FEE770B50F4EEE
:4002C0000F4D13E029686B68AC68002202E001C901C30432A242FAD1E868002202E0002102C304328242FAD11035013E002EE9D100F0AAFAFFF790FFFEE7C0460100000050
:400300003409000010B500230AE0032B03D89A000949505800E009489900094A885001332F2BF2D9FFF7B4FE8022D205116801230B43136010BDC04600000000AD020000C2
:4003400000000020014B18647047C0460000002010B5040000F06AFA044A1368C0218B43A4011C43146000F065FA10BD00E400E00122014B1A60704700E100E00122014BFB
:400380001A60704780E100E010B50400FFF7F6FF2000FFF7D7FF0320FFF7DAFFFFF7E8FF10BDC0460122014B1A60704780E200E0034B1868C0B27F2290431860C0097047FB
:4003C0001000044010B500F031FA044A136801218B43136000F02EFA10BDC046000005400004000C014B18607047C046080105400004000C014B18607047C04614010540A3
:400400000004000C014B18607047C0460C01054070B504000D0000F009FAAC40024B1C6000F008FA70BDC0460800054010B500F0FDF9064A116801230B43136000F0FAF94D
:4004400018210120FFF7E4FF10BDC04600000540014B18607047C0463801054010B50F4C0F4B2360236823600020FFF7B9FF2368A0221201134323600C220A4B1A60002003
:40048000FFF7E6FF3122084B1A60FA20C000FFF7AFFFF020FFF7B4FF10BDC0460001054008001005240105402801054010B5064B1B78002B04D1FFF7D1FF0122024B1A7093
:4004C000FFF7B4FF10BDC0466401002004490A68D2B208239A43C000184010430860704700000440034A1368802109060B4313607047C046000002401F2318401E3B8340F4
:40050000014A13607047C04600E100E001BE704770B504000D001F2802D90020FFF7F6FF1034A40080239B059C4664442068256070BDC04610B5034B1B7B584300F06CF918
:4005400010BDC046C8000020F0B557464E46C0B483B0040000F06AF90190E71E2D2F74D83F4B1B78DBB29C4208D83E4B1B78DBB29A463D4B1B78DBB2994631E03B4B1B780C
:40058000DBB29C4208D83A4B1B78DBB29A46394B1B78DBB2994623E0374B1B78DBB29C4208D8364B1B78DBB29A46354B1B78DBB2994615E0334B1B78DBB29C4208D8324BB7
:4005C0001B78DBB29A46314B1B78DBB2994607E02F4B1B78DBB29A462E4B1B78DBB299462D4BDE5D2F2E09D92A2C07D919222B4B1A60052000F010F9192503E0274B1D681E
:400600003F231D40B54206D9234BDA5D234B1A60052000F001F91F4B9C4664442378DBB21F4A13601F4B52461A601F4B4A461A600520FFF77FFFB5420AD2174BDA5D174B3A
:400640001A60052000F0E8F802E00020FFF75EFF019800F0EFF803B00CBC91469A46F0BDC0F1FF0FC1F1FF0FC2F1FF0FC3F1FF0FC4F1FF0FC5F1FF0FC6F1FF0FC7F1FF0F53
:40068000C8F1FF0FC9F1FF0FCAF1FF0FCBF1FF0FCCF1FF0FCDF1FF0FE00800002CFF0B4028FF0B401CFF0B4020FF0B40034B1868C0231B02184000D00120704700010B40C7
:4006C00010B500F0B3F8044A1368C02109020B43136000F0AFF810BD00010B4010B500F0A5F808490A68084B1A408024E40122430A600A6813408022120213430B6000F02E
:4007000099F810BD00010B40FF3FFFFF70B5050000F08CF80400FFF7C9FF002803D0FFF7DDFF012100E0002108482840084A1568084B2B40184310601368012901D1FFF706
:40074000BFFF200000F076F870BDC0460404040010020B40FBFBFBFF10B5244B1B685B0715D5234B1B685B070ED5224BD969042001401F4C22688A432260DA698243DA61DD
:400780001B69002B00D098470420FFF7BFFF174B1B685B0518D5164B1B685B0510D5154BD9698022D2001140114802688A430260D969114A0A40DA615B69002B00D098478F
:4007C0008020C000FFF7A2FF084B1B685B030CD5074B1B685B0304D5064B9B69002B00D098478020C002FFF791FF10BD10020B40DC00002068010020FFFBFFFF04490A6864
:40080000D2B204239A438000184010430860704700000440000000000230800804D0C0460138FDD1C046C046C0467047EFF3108072B6704780F310887047C046014B186859
:400840007047C046400100200E4B70B500251E000D4CE41AA410A54204D0AB00F35898470135F8E700F054F8084B00251E00084CE41AA410A54204D0AB00F358984701354B
:40088000F8E770BD1C0900001C0900001C0900002409000003008218934202D019700133FAE770470000000000300F40000400400F400004E280110853046D08C410D420D2
:4008C000DA808B04970819088908C608E201000001330F4006400F4002410F4004430F40030405060708090A0B0C0E0F101112131415161718191B1C1D1E1F20212223255C
:40090000262728292A2B2E2F3031323334354300F8B5C046F8BC08BC9E4670479101000005030000F8B5C046F8BC08BC9E4670476901000048090000C000002088000000AC
:4009400040000000000000000000000001000000010000000000E02EC05D00001800000000366E010404040000000000000000000000000000000000000000000000000041
:4009800000000000000000000E0900000000000000000000000000000000000000000000000000000000000000000000000000000000000000000000000000000000000020
:4009C0000000000000000000E000002000000000000000000000000000000000000000000000000000000000000000000000000000000000000000000000000000000000F7
:400A000000000000000000000000000000000000000000000000000000000000000000000000000000000000000000000000000000000000000000000000000000000000B6
:400A40000000000000000000000000000000000000000000000000000000000000000000000000000000000000000000000000000000000000000000000000000000000076
:400A80000000000000000000000000000000000000000000000000000000000000000000000000000000000000000000000000000000000000000000000000000000000036
:400AC00000000000000000000000000000000000000000000000000000000000000000000000000000000000000000000000000000000000000000000000000000000000F6
:0200000490303A
:020000002C8052
:0200000490402A
:200000000000000000000000000000000000000000000000000000000000000000000000E0
:0200000490501A
:0C000000000204C81193110104CB3E1350
:0200000490600A
:0100000001FE
:00000001FF